{
  "contractName": "ClaimContainer",
  "abi": [
    {
      "inputs": [],
      "stateMutability": "nonpayable",
      "type": "constructor"
    },
    {
      "anonymous": false,
      "inputs": [
        {
          "indexed": false,
          "internalType": "address",
          "name": "_issuer",
          "type": "address"
        },
        {
          "indexed": false,
          "internalType": "string",
          "name": "_ownerName",
          "type": "string"
        },
        {
          "indexed": false,
          "internalType": "string",
          "name": "_data",
          "type": "string"
        }
      ],
      "name": "ClaimAdded",
      "type": "event"
    },
    {
      "anonymous": false,
      "inputs": [
        {
          "indexed": false,
          "internalType": "address",
          "name": "_sender",
          "type": "address"
        },
        {
          "indexed": false,
          "internalType": "address",
          "name": "_issuer",
          "type": "address"
        }
      ],
      "name": "ClaimRequested",
      "type": "event"
    },
    {
      "inputs": [],
      "name": "claimCount",
      "outputs": [
        {
          "internalType": "uint256",
          "name": "",
          "type": "uint256"
        }
      ],
      "stateMutability": "view",
      "type": "function",
      "constant": true
    },
    {
      "inputs": [
        {
          "internalType": "uint256",
          "name": "",
          "type": "uint256"
        }
      ],
      "name": "claims",
      "outputs": [
        {
          "internalType": "address payable",
          "name": "issuer",
          "type": "address"
        },
        {
          "internalType": "string",
          "name": "ownerName",
          "type": "string"
        },
        {
          "internalType": "string",
          "name": "data",
          "type": "string"
        }
      ],
      "stateMutability": "view",
      "type": "function",
      "constant": true
    },
    {
      "inputs": [
        {
          "internalType": "address",
          "name": "",
          "type": "address"
        }
      ],
      "name": "numberOfOwned",
      "outputs": [
        {
          "internalType": "uint256",
          "name": "",
          "type": "uint256"
        }
      ],
      "stateMutability": "view",
      "type": "function",
      "constant": true
    },
    {
      "inputs": [],
      "name": "test_adding",
      "outputs": [
        {
          "internalType": "address",
          "name": "",
          "type": "address"
        }
      ],
      "stateMutability": "view",
      "type": "function",
      "constant": true
    },
    {
      "inputs": [
        {
          "internalType": "uint256",
          "name": "_index",
          "type": "uint256"
        }
      ],
      "name": "returnTest_ConstrValues",
      "outputs": [
        {
          "internalType": "string",
          "name": "_ownerNameR",
          "type": "string"
        },
        {
          "internalType": "string",
          "name": "_dataR",
          "type": "string"
        },
        {
          "internalType": "address",
          "name": "_issuer",
          "type": "address"
        }
      ],
      "stateMutability": "view",
      "type": "function",
      "constant": true
    },
    {
      "inputs": [],
      "name": "returnTest_ConstrValues",
      "outputs": [
        {
          "internalType": "string",
          "name": "_ownerNameR",
          "type": "string"
        },
        {
          "internalType": "string",
          "name": "_dataR",
          "type": "string"
        },
        {
          "internalType": "address",
          "name": "_issuer",
          "type": "address"
        }
      ],
      "stateMutability": "view",
      "type": "function",
      "constant": true
    },
    {
      "inputs": [],
      "name": "addToTestingAdding",
      "outputs": [],
      "stateMutability": "nonpayable",
      "type": "function"
    },
    {
      "inputs": [],
      "name": "get",
      "outputs": [
        {
          "internalType": "string",
          "name": "_ownerName",
          "type": "string"
        }
      ],
      "stateMutability": "view",
      "type": "function",
      "constant": true
    },
    {
      "inputs": [
        {
          "internalType": "address",
          "name": "owner",
          "type": "address"
        }
      ],
      "name": "getClaimOwnedNumber",
      "outputs": [
        {
          "internalType": "uint256",
          "name": "_nrOwned",
          "type": "uint256"
        }
      ],
      "stateMutability": "view",
      "type": "function",
      "constant": true
    },
    {
      "inputs": [
        {
          "internalType": "address",
          "name": "owner",
          "type": "address"
        }
      ],
      "name": "getClaimOwnedNumberLength",
      "outputs": [
        {
          "internalType": "uint256",
          "name": "_nrOwned",
          "type": "uint256"
        }
      ],
      "stateMutability": "view",
      "type": "function",
      "constant": true
    },
    {
      "inputs": [
        {
          "internalType": "address",
          "name": "test_add",
          "type": "address"
        }
      ],
      "name": "fill_map",
      "outputs": [],
      "stateMutability": "nonpayable",
      "type": "function"
    },
    {
      "inputs": [],
      "name": "fill_map",
      "outputs": [],
      "stateMutability": "nonpayable",
      "type": "function"
    },
    {
      "inputs": [],
      "name": "addTest_values",
      "outputs": [],
      "stateMutability": "nonpayable",
      "type": "function"
    },
    {
      "inputs": [
        {
          "internalType": "address",
          "name": "test_add",
          "type": "address"
        }
      ],
      "name": "addTest_values",
      "outputs": [],
      "stateMutability": "nonpayable",
      "type": "function"
    },
    {
      "inputs": [],
      "name": "addTest_values2",
      "outputs": [],
      "stateMutability": "nonpayable",
      "type": "function"
    },
    {
      "inputs": [
        {
          "internalType": "address",
          "name": "test_add",
          "type": "address"
        }
      ],
      "name": "addTest_values2",
      "outputs": [],
      "stateMutability": "nonpayable",
      "type": "function"
    },
    {
      "inputs": [
        {
          "internalType": "uint256",
          "name": "claimRequestedId",
          "type": "uint256"
        },
        {
          "internalType": "address",
          "name": "owAddress",
          "type": "address"
        }
      ],
      "name": "addOwnedClaim",
      "outputs": [],
      "stateMutability": "nonpayable",
      "type": "function"
    },
    {
      "inputs": [
        {
          "internalType": "uint256",
          "name": "_claimOwnedId",
          "type": "uint256"
        },
        {
          "internalType": "address",
          "name": "addr0",
          "type": "address"
        }
      ],
      "name": "getOwnedClaim",
      "outputs": [
        {
          "internalType": "address",
          "name": "_issuer",
          "type": "address"
        },
        {
          "internalType": "string",
          "name": "_ownerName",
          "type": "string"
        },
        {
          "internalType": "string",
          "name": "_data",
          "type": "string"
        }
      ],
      "stateMutability": "view",
      "type": "function",
      "constant": true
    },
    {
      "inputs": [
        {
          "internalType": "address",
          "name": "test_add",
          "type": "address"
        }
      ],
      "name": "getMsgSender",
      "outputs": [
        {
          "internalType": "address",
          "name": "_me",
          "type": "address"
        }
      ],
      "stateMutability": "pure",
      "type": "function",
      "constant": true
    },
    {
      "inputs": [],
      "name": "getMsgSender",
      "outputs": [
        {
          "internalType": "address",
          "name": "_me",
          "type": "address"
        }
      ],
      "stateMutability": "view",
      "type": "function",
      "constant": true
    },
    {
      "inputs": [
        {
          "internalType": "address",
          "name": "test_add",
          "type": "address"
        }
      ],
      "name": "getOwned0Value",
      "outputs": [
        {
          "internalType": "string",
          "name": "_ownerNameR",
          "type": "string"
        },
        {
          "internalType": "string",
          "name": "_dataR",
          "type": "string"
        },
        {
          "internalType": "address",
          "name": "_issuer",
          "type": "address"
        }
      ],
      "stateMutability": "view",
      "type": "function",
      "constant": true
    },
    {
      "inputs": [
        {
          "internalType": "string",
          "name": "_ownerName",
          "type": "string"
        },
        {
          "internalType": "string",
          "name": "_data",
          "type": "string"
        }
      ],
      "name": "addClaim",
      "outputs": [
        {
          "internalType": "string",
          "name": "_ownerNameR",
          "type": "string"
        },
        {
          "internalType": "string",
          "name": "_dataR",
          "type": "string"
        },
        {
          "internalType": "address",
          "name": "_issuer",
          "type": "address"
        }
      ],
      "stateMutability": "nonpayable",
      "type": "function"
    },
    {
      "inputs": [
        {
          "internalType": "uint256",
          "name": "_claimId",
          "type": "uint256"
        }
      ],
      "name": "getClaim",
      "outputs": [
        {
          "internalType": "string",
          "name": "_ownerName",
          "type": "string"
        },
        {
          "internalType": "string",
          "name": "_data",
          "type": "string"
        },
        {
          "internalType": "address",
          "name": "_issuer",
          "type": "address"
        }
      ],
      "stateMutability": "view",
      "type": "function",
      "constant": true
    }
  ],
  "bytecode": "0x60806040523480156200001157600080fd5b5073b2341897b1ce81ac2c7553ce841d7efd2767e9ea600460006101000a81548173ffffffffffffffffffffffffffffffffffffffff021916908373ffffffffffffffffffffffffffffffffffffffff160217905550620000e36040518060400160405280600881526020017f46616365626f6f6b0000000000000000000000000000000000000000000000008152506040518060400160405280600d81526020017f48617320496e7374616772616d000000000000000000000000000000000000008152506200035860201b60201c565b505050620001626040518060400160405280600881526020017f46616365626f6f6b0000000000000000000000000000000000000000000000008152506040518060400160405280600c81526020017f4861732046616365626f6f6b00000000000000000000000000000000000000008152506200035860201b60201c565b505050620001e16040518060400160405280600881526020017f46616365626f6f6b0000000000000000000000000000000000000000000000008152506040518060400160405280600c81526020017f48617320576861747361707000000000000000000000000000000000000000008152506200035860201b60201c565b50505062000352604051806060016040528073b2341897b1ce81ac2c7553ce841d7efd2767e9ea73ffffffffffffffffffffffffffffffffffffffff1681526020016040518060400160405280600981526020017f4d6963726f736f6674000000000000000000000000000000000000000000000081525081526020016040518060400160405280600581526020017f5573657273000000000000000000000000000000000000000000000000000000815250815250604051806060016040528073b2341897b1ce81ac2c7553ce841d7efd2767e9ea73ffffffffffffffffffffffffffffffffffffffff1681526020016040518060400160405280600981526020017f4d6963726f736f6674000000000000000000000000000000000000000000000081525081526020016040518060400160405280600a81526020017f57696e646f7773203130000000000000000000000000000000000000000000008152508152506200071a60201b60201c565b62000ae9565b6060806000806000549050336001600083815260200190815260200160002060000160006101000a81548173ffffffffffffffffffffffffffffffffffffffff021916908373ffffffffffffffffffffffffffffffffffffffff16021790555085600160008381526020019081526020016000206001019080519060200190620003e4929190620009b3565b508460016000838152602001908152602001600020600201908051906020019062000411929190620009b3565b507fddd09ba2bdf0909225fd15c1849448b1d6c0dd7f37663029d382180ab2049b42338787604051808473ffffffffffffffffffffffffffffffffffffffff1673ffffffffffffffffffffffffffffffffffffffff1681526020018060200180602001838103835285818151815260200191508051906020019080838360005b83811015620004ae57808201518184015260208101905062000491565b50505050905090810190601f168015620004dc5780820380516001836020036101000a031916815260200191505b50838103825284818151815260200191508051906020019080838360005b8381101562000517578082015181840152602081019050620004fa565b50505050905090810190601f168015620005455780820380516001836020036101000a031916815260200191505b509550505050505060405180910390a1600080815480929190600101919050555060016000828152602001908152602001600020600101600160008381526020019081526020016000206002016001600084815260200190815260200160002060000160009054906101000a900473ffffffffffffffffffffffffffffffffffffffff16828054600181600116156101000203166002900480601f016020809104026020016040519081016040528092919081815260200182805460018160011615610100020316600290048015620006625780601f10620006365761010080835404028352916020019162000662565b820191906000526020600020905b8154815290600101906020018083116200064457829003601f168201915b50505050509250818054600181600116156101000203166002900480601f016020809104026020016040519081016040528092919081815260200182805460018160011615610100020316600290048015620007025780601f10620006d65761010080835404028352916020019162000702565b820191906000526020600020905b815481529060010190602001808311620006e457829003601f168201915b50505050509150809050935093509350509250925092565b60026000600460009054906101000a900473ffffffffffffffffffffffffffffffffffffffff1673ffffffffffffffffffffffffffffffffffffffff1673ffffffffffffffffffffffffffffffffffffffff16815260200190815260200160002082908060018154018082558091505060019003906000526020600020906003020160009091909190915060008201518160000160006101000a81548173ffffffffffffffffffffffffffffffffffffffff021916908373ffffffffffffffffffffffffffffffffffffffff16021790555060208201518160010190805190602001906200080a92919062000a3a565b5060408201518160020190805190602001906200082992919062000a3a565b50505060026000600460009054906101000a900473ffffffffffffffffffffffffffffffffffffffff1673ffffffffffffffffffffffffffffffffffffffff1673ffffffffffffffffffffffffffffffffffffffff16815260200190815260200160002081908060018154018082558091505060019003906000526020600020906003020160009091909190915060008201518160000160006101000a81548173ffffffffffffffffffffffffffffffffffffffff021916908373ffffffffffffffffffffffffffffffffffffffff16021790555060208201518160010190805190602001906200091c92919062000a3a565b5060408201518160020190805190602001906200093b92919062000a3a565b50505060036000600460009054906101000a900473ffffffffffffffffffffffffffffffffffffffff1673ffffffffffffffffffffffffffffffffffffffff1673ffffffffffffffffffffffffffffffffffffffff168152602001908152602001600020600081548092919060010191905055505050565b828054600181600116156101000203166002900490600052602060002090601f016020900481019282601f10620009f657805160ff191683800117855562000a27565b8280016001018555821562000a27579182015b8281111562000a2657825182559160200191906001019062000a09565b5b50905062000a36919062000ac1565b5090565b828054600181600116156101000203166002900490600052602060002090601f016020900481019282601f1062000a7d57805160ff191683800117855562000aae565b8280016001018555821562000aae579182015b8281111562000aad57825182559160200191906001019062000a90565b5b50905062000abd919062000ac1565b5090565b62000ae691905b8082111562000ae257600081600090555060010162000ac8565b5090565b90565b61388b8062000af96000396000f3fe608060405234801561001057600080fd5b506004361061014d5760003560e01c80637753a2da116100c3578063952197321161007c5780639521973214610bd9578063a888c2cd14610be3578063ab395e7214610d29578063c2ce90ec14610e8f578063ce63da6014610ee7578063e9cae5e014610f2b5761014d565b80637753a2da1461075d5780637a6ce2e1146107a1578063802a29e9146107eb578063815da40a14610947578063848cb5ac146109515780638da4d3c914610bbb5761014d565b80632867b3ca116101155780632867b3ca1461047457806329313002146104f85780635aef24471461054657806361e555941461068c5780636d4ce63c14610696578063705d2751146107195761014d565b8063028dd150146101525780630babc84b146101aa5780630f7aa0fe146102f05780631d04e1681461034857806324905ef51461046a575b600080fd5b6101946004803603602081101561016857600080fd5b81019080803573ffffffffffffffffffffffffffffffffffffffff169060200190929190505050610f75565b6040518082815260200191505060405180910390f35b6101d6600480360360208110156101c057600080fd5b8101908080359060200190929190505050610fbe565b6040518080602001806020018473ffffffffffffffffffffffffffffffffffffffff1673ffffffffffffffffffffffffffffffffffffffff168152602001838103835286818151815260200191508051906020019080838360005b8381101561024c578082015181840152602081019050610231565b50505050905090810190601f1680156102795780820380516001836020036101000a031916815260200191505b50838103825285818151815260200191508051906020019080838360005b838110156102b2578082015181840152602081019050610297565b50505050905090810190601f1680156102df5780820380516001836020036101000a031916815260200191505b509550505050505060405180910390f35b6103326004803603602081101561030657600080fd5b81019080803573ffffffffffffffffffffffffffffffffffffffff1690602001909291905050506113f2565b6040518082815260200191505060405180910390f35b61035061140a565b6040518080602001806020018473ffffffffffffffffffffffffffffffffffffffff1673ffffffffffffffffffffffffffffffffffffffff168152602001838103835286818151815260200191508051906020019080838360005b838110156103c65780820151818401526020810190506103ab565b50505050905090810190601f1680156103f35780820380516001836020036101000a031916815260200191505b50838103825285818151815260200191508051906020019080838360005b8381101561042c578082015181840152602081019050610411565b50505050905090810190601f1680156104595780820380516001836020036101000a031916815260200191505b509550505050505060405180910390f35b6104726116f0565b005b6104b66004803603602081101561048a57600080fd5b81019080803573ffffffffffffffffffffffffffffffffffffffff1690602001909291905050506118f3565b604051808273ffffffffffffffffffffffffffffffffffffffff1673ffffffffffffffffffffffffffffffffffffffff16815260200191505060405180910390f35b6105446004803603604081101561050e57600080fd5b8101908080359060200190929190803573ffffffffffffffffffffffffffffffffffffffff1690602001909291905050506118fd565b005b6105726004803603602081101561055c57600080fd5b8101908080359060200190929190505050611bc1565b6040518080602001806020018473ffffffffffffffffffffffffffffffffffffffff1673ffffffffffffffffffffffffffffffffffffffff168152602001838103835286818151815260200191508051906020019080838360005b838110156105e85780820151818401526020810190506105cd565b50505050905090810190601f1680156106155780820380516001836020036101000a031916815260200191505b50838103825285818151815260200191508051906020019080838360005b8381101561064e578082015181840152602081019050610633565b50505050905090810190601f16801561067b5780820380516001836020036101000a031916815260200191505b509550505050505060405180910390f35b610694611d71565b005b61069e611f35565b6040518080602001828103825283818151815260200191508051906020019080838360005b838110156106de5780820151818401526020810190506106c3565b50505050905090810190601f16801561070b5780820380516001836020036101000a031916815260200191505b509250505060405180910390f35b61075b6004803603602081101561072f57600080fd5b81019080803573ffffffffffffffffffffffffffffffffffffffff169060200190929190505050612031565b005b61079f6004803603602081101561077357600080fd5b81019080803573ffffffffffffffffffffffffffffffffffffffff169060200190929190505050612235565b005b6107a96125bb565b604051808273ffffffffffffffffffffffffffffffffffffffff1673ffffffffffffffffffffffffffffffffffffffff16815260200191505060405180910390f35b61082d6004803603602081101561080157600080fd5b81019080803573ffffffffffffffffffffffffffffffffffffffff1690602001909291905050506125c3565b6040518080602001806020018473ffffffffffffffffffffffffffffffffffffffff1673ffffffffffffffffffffffffffffffffffffffff168152602001838103835286818151815260200191508051906020019080838360005b838110156108a3578082015181840152602081019050610888565b50505050905090810190601f1680156108d05780820380516001836020036101000a031916815260200191505b50838103825285818151815260200191508051906020019080838360005b838110156109095780820151818401526020810190506108ee565b50505050905090810190601f1680156109365780820380516001836020036101000a031916815260200191505b509550505050505060405180910390f35b61094f612845565b005b610aa16004803603604081101561096757600080fd5b810190808035906020019064010000000081111561098457600080fd5b82018360208201111561099657600080fd5b803590602001918460018302840111640100000000831117156109b857600080fd5b91908080601f016020809104026020016040519081016040528093929190818152602001838380828437600081840152601f19601f82011690508083019250505050505050919291929080359060200190640100000000811115610a1b57600080fd5b820183602082011115610a2d57600080fd5b80359060200191846001830284011164010000000083111715610a4f57600080fd5b91908080601f016020809104026020016040519081016040528093929190818152602001838380828437600081840152601f19601f8201169050808301925050505050505091929192905050506129e7565b6040518080602001806020018473ffffffffffffffffffffffffffffffffffffffff1673ffffffffffffffffffffffffffffffffffffffff168152602001838103835286818151815260200191508051906020019080838360005b83811015610b17578082015181840152602081019050610afc565b50505050905090810190601f168015610b445780820380516001836020036101000a031916815260200191505b50838103825285818151815260200191508051906020019080838360005b83811015610b7d578082015181840152602081019050610b62565b50505050905090810190601f168015610baa5780820380516001836020036101000a031916815260200191505b509550505050505060405180910390f35b610bc3612d97565b6040518082815260200191505060405180910390f35b610be1612d9d565b005b610c0f60048036036020811015610bf957600080fd5b8101908080359060200190929190505050613122565b604051808473ffffffffffffffffffffffffffffffffffffffff1673ffffffffffffffffffffffffffffffffffffffff1681526020018060200180602001838103835285818151815260200191508051906020019080838360005b83811015610c85578082015181840152602081019050610c6a565b50505050905090810190601f168015610cb25780820380516001836020036101000a031916815260200191505b50838103825284818151815260200191508051906020019080838360005b83811015610ceb578082015181840152602081019050610cd0565b50505050905090810190601f168015610d185780820380516001836020036101000a031916815260200191505b509550505050505060405180910390f35b610d7560048036036040811015610d3f57600080fd5b8101908080359060200190929190803573ffffffffffffffffffffffffffffffffffffffff16906020019092919050505061329c565b604051808473ffffffffffffffffffffffffffffffffffffffff1673ffffffffffffffffffffffffffffffffffffffff1681526020018060200180602001838103835285818151815260200191508051906020019080838360005b83811015610deb578082015181840152602081019050610dd0565b50505050905090810190601f168015610e185780820380516001836020036101000a031916815260200191505b50838103825284818151815260200191508051906020019080838360005b83811015610e51578082015181840152602081019050610e36565b50505050905090810190601f168015610e7e5780820380516001836020036101000a031916815260200191505b509550505050505060405180910390f35b610ed160048036036020811015610ea557600080fd5b81019080803573ffffffffffffffffffffffffffffffffffffffff16906020019092919050505061351b565b6040518082815260200191505060405180910390f35b610f2960048036036020811015610efd57600080fd5b81019080803573ffffffffffffffffffffffffffffffffffffffff169060200190929190505050613567565b005b610f3361370a565b604051808273ffffffffffffffffffffffffffffffffffffffff1673ffffffffffffffffffffffffffffffffffffffff16815260200191505060405180910390f35b6000600360008373ffffffffffffffffffffffffffffffffffffffff1673ffffffffffffffffffffffffffffffffffffffff168152602001908152602001600020549050919050565b606080600080841015611039576040517f08c379a00000000000000000000000000000000000000000000000000000000081526004018080602001828103825260088152602001807f4572726f72203c3000000000000000000000000000000000000000000000000081525060200191505060405180910390fd5b60026000600460009054906101000a900473ffffffffffffffffffffffffffffffffffffffff1673ffffffffffffffffffffffffffffffffffffffff1673ffffffffffffffffffffffffffffffffffffffff168152602001908152602001600020805490508410611112576040517f08c379a00000000000000000000000000000000000000000000000000000000081526004018080602001828103825260138152602001807f4572726f72206f7574206f6620626f756e64730000000000000000000000000081525060200191505060405180910390fd5b60026000600460009054906101000a900473ffffffffffffffffffffffffffffffffffffffff1673ffffffffffffffffffffffffffffffffffffffff1673ffffffffffffffffffffffffffffffffffffffff168152602001908152602001600020848154811061117e57fe5b906000526020600020906003020160010160026000600460009054906101000a900473ffffffffffffffffffffffffffffffffffffffff1673ffffffffffffffffffffffffffffffffffffffff1673ffffffffffffffffffffffffffffffffffffffff16815260200190815260200160002085815481106111fb57fe5b906000526020600020906003020160020160026000600460009054906101000a900473ffffffffffffffffffffffffffffffffffffffff1673ffffffffffffffffffffffffffffffffffffffff1673ffffffffffffffffffffffffffffffffffffffff168152602001908152602001600020868154811061127857fe5b906000526020600020906003020160000160009054906101000a900473ffffffffffffffffffffffffffffffffffffffff16828054600181600116156101000203166002900480601f01602080910402602001604051908101604052809291908181526020018280546001816001161561010002031660029004801561133f5780601f106113145761010080835404028352916020019161133f565b820191906000526020600020905b81548152906001019060200180831161132257829003601f168201915b50505050509250818054600181600116156101000203166002900480601f0160208091040260200160405190810160405280929190818152602001828054600181600116156101000203166002900480156113db5780601f106113b0576101008083540402835291602001916113db565b820191906000526020600020905b8154815290600101906020018083116113be57829003601f168201915b505050505091508090509250925092509193909250565b60036020528060005260406000206000915090505481565b606080600060026000600460009054906101000a900473ffffffffffffffffffffffffffffffffffffffff1673ffffffffffffffffffffffffffffffffffffffff1673ffffffffffffffffffffffffffffffffffffffff16815260200190815260200160002060008154811061147c57fe5b906000526020600020906003020160010160026000600460009054906101000a900473ffffffffffffffffffffffffffffffffffffffff1673ffffffffffffffffffffffffffffffffffffffff1673ffffffffffffffffffffffffffffffffffffffff1681526020019081526020016000206000815481106114fa57fe5b906000526020600020906003020160020160026000600460009054906101000a900473ffffffffffffffffffffffffffffffffffffffff1673ffffffffffffffffffffffffffffffffffffffff1673ffffffffffffffffffffffffffffffffffffffff16815260200190815260200160002060008154811061157857fe5b906000526020600020906003020160000160009054906101000a900473ffffffffffffffffffffffffffffffffffffffff16828054600181600116156101000203166002900480601f01602080910402602001604051908101604052809291908181526020018280546001816001161561010002031660029004801561163f5780601f106116145761010080835404028352916020019161163f565b820191906000526020600020905b81548152906001019060200180831161162257829003601f168201915b50505050509250818054600181600116156101000203166002900480601f0160208091040260200160405190810160405280929190818152602001828054600181600116156101000203166002900480156116db5780601f106116b0576101008083540402835291602001916116db565b820191906000526020600020905b8154815290600101906020018083116116be57829003601f168201915b50505050509150809050925092509250909192565b6040518060400160405280600781526020017f5465737456616c00000000000000000000000000000000000000000000000000815250600260003373ffffffffffffffffffffffffffffffffffffffff1673ffffffffffffffffffffffffffffffffffffffff16815260200190815260200160002060008154811061177157fe5b90600052602060002090600302016001019080519060200190611795929190613730565b506040518060400160405280600781526020017f5465737456616c00000000000000000000000000000000000000000000000000815250600260003373ffffffffffffffffffffffffffffffffffffffff1673ffffffffffffffffffffffffffffffffffffffff16815260200190815260200160002060008154811061181757fe5b9060005260206000209060030201600201908051906020019061183b929190613730565b50600073b2341897b1ce81ac2c7553ce841d7efd2767e9ea905080600260003373ffffffffffffffffffffffffffffffffffffffff1673ffffffffffffffffffffffffffffffffffffffff1681526020019081526020016000206000815481106118a157fe5b906000526020600020906003020160000160006101000a81548173ffffffffffffffffffffffffffffffffffffffff021916908373ffffffffffffffffffffffffffffffffffffffff16021790555050565b6000819050919050565b60006001600084815260200190815260200160002060000160009054906101000a900473ffffffffffffffffffffffffffffffffffffffff1690506060600160008581526020019081526020016000206001018054600181600116156101000203166002900480601f0160208091040260200160405190810160405280929190818152602001828054600181600116156101000203166002900480156119e45780601f106119b9576101008083540402835291602001916119e4565b820191906000526020600020905b8154815290600101906020018083116119c757829003601f168201915b505050505090506060600160008681526020019081526020016000206002018054600181600116156101000203166002900480601f016020809104026020016040519081016040528092919081815260200182805460018160011615610100020316600290048015611a975780601f10611a6c57610100808354040283529160200191611a97565b820191906000526020600020905b815481529060010190602001808311611a7a57829003601f168201915b50505050509050600260008573ffffffffffffffffffffffffffffffffffffffff1673ffffffffffffffffffffffffffffffffffffffff16815260200190815260200160002060405180606001604052808573ffffffffffffffffffffffffffffffffffffffff16815260200184815260200183815250908060018154018082558091505060019003906000526020600020906003020160009091909190915060008201518160000160006101000a81548173ffffffffffffffffffffffffffffffffffffffff021916908373ffffffffffffffffffffffffffffffffffffffff1602179055506020820151816001019080519060200190611b9a9291906137b0565b506040820151816002019080519060200190611bb79291906137b0565b5050505050505050565b606080600060016000858152602001908152602001600020600101600160008681526020019081526020016000206002016001600087815260200190815260200160002060000160009054906101000a900473ffffffffffffffffffffffffffffffffffffffff16828054600181600116156101000203166002900480601f016020809104026020016040519081016040528092919081815260200182805460018160011615610100020316600290048015611cbe5780601f10611c9357610100808354040283529160200191611cbe565b820191906000526020600020905b815481529060010190602001808311611ca157829003601f168201915b50505050509250818054600181600116156101000203166002900480601f016020809104026020016040519081016040528092919081815260200182805460018160011615610100020316600290048015611d5a5780601f10611d2f57610100808354040283529160200191611d5a565b820191906000526020600020905b815481529060010190602001808311611d3d57829003601f168201915b505050505091508090509250925092509193909250565b600073b2341897b1ce81ac2c7553ce841d7efd2767e9ea905060026000600460009054906101000a900473ffffffffffffffffffffffffffffffffffffffff1673ffffffffffffffffffffffffffffffffffffffff1673ffffffffffffffffffffffffffffffffffffffff16815260200190815260200160002060405180606001604052808373ffffffffffffffffffffffffffffffffffffffff1681526020016040518060400160405280600781526020017f5465737456616c0000000000000000000000000000000000000000000000000081525081526020016040518060400160405280600781526020017f5465737456616c00000000000000000000000000000000000000000000000000815250815250908060018154018082558091505060019003906000526020600020906003020160009091909190915060008201518160000160006101000a81548173ffffffffffffffffffffffffffffffffffffffff021916908373ffffffffffffffffffffffffffffffffffffffff1602179055506020820151816001019080519060200190611f129291906137b0565b506040820151816002019080519060200190611f2f9291906137b0565b50505050565b6060600260003373ffffffffffffffffffffffffffffffffffffffff1673ffffffffffffffffffffffffffffffffffffffff168152602001908152602001600020600181548110611f8257fe5b90600052602060002090600302016001018054600181600116156101000203166002900480601f0160208091040260200160405190810160405280929190818152602001828054600181600116156101000203166002900480156120275780601f10611ffc57610100808354040283529160200191612027565b820191906000526020600020905b81548152906001019060200180831161200a57829003601f168201915b5050505050905090565b6040518060400160405280600781526020017f5465737456616c00000000000000000000000000000000000000000000000000815250600260008373ffffffffffffffffffffffffffffffffffffffff1673ffffffffffffffffffffffffffffffffffffffff1681526020019081526020016000206000815481106120b257fe5b906000526020600020906003020160010190805190602001906120d6929190613730565b506040518060400160405280600781526020017f5465737456616c00000000000000000000000000000000000000000000000000815250600260008373ffffffffffffffffffffffffffffffffffffffff1673ffffffffffffffffffffffffffffffffffffffff16815260200190815260200160002060008154811061215857fe5b9060005260206000209060030201600201908051906020019061217c929190613730565b50600073b2341897b1ce81ac2c7553ce841d7efd2767e9ea905080600260008473ffffffffffffffffffffffffffffffffffffffff1673ffffffffffffffffffffffffffffffffffffffff1681526020019081526020016000206000815481106121e257fe5b906000526020600020906003020160000160006101000a81548173ffffffffffffffffffffffffffffffffffffffff021916908373ffffffffffffffffffffffffffffffffffffffff1602179055505050565b600260008273ffffffffffffffffffffffffffffffffffffffff1673ffffffffffffffffffffffffffffffffffffffff168152602001908152602001600020604051806060016040528073b2341897b1ce81ac2c7553ce841d7efd2767e9ea73ffffffffffffffffffffffffffffffffffffffff1681526020016040518060400160405280600981526020017f4d6963726f736f6674000000000000000000000000000000000000000000000081525081526020016040518060400160405280600581526020017f5465616d73000000000000000000000000000000000000000000000000000000815250815250908060018154018082558091505060019003906000526020600020906003020160009091909190915060008201518160000160006101000a81548173ffffffffffffffffffffffffffffffffffffffff021916908373ffffffffffffffffffffffffffffffffffffffff16021790555060208201518160010190805190602001906123af9291906137b0565b5060408201518160020190805190602001906123cc9291906137b0565b505050600260008273ffffffffffffffffffffffffffffffffffffffff1673ffffffffffffffffffffffffffffffffffffffff168152602001908152602001600020604051806060016040528073b2341897b1ce81ac2c7553ce841d7efd2767e9ea73ffffffffffffffffffffffffffffffffffffffff1681526020016040518060400160405280600981526020017f4d6963726f736f6674000000000000000000000000000000000000000000000081525081526020016040518060400160405280600b81526020017f57696e646f777320382e31000000000000000000000000000000000000000000815250815250908060018154018082558091505060019003906000526020600020906003020160009091909190915060008201518160000160006101000a81548173ffffffffffffffffffffffffffffffffffffffff021916908373ffffffffffffffffffffffffffffffffffffffff16021790555060208201518160010190805190602001906125499291906137b0565b5060408201518160020190805190602001906125669291906137b0565b505050600360008273ffffffffffffffffffffffffffffffffffffffff1673ffffffffffffffffffffffffffffffffffffffff1681526020019081526020016000206000815480929190600101919050555050565b600033905090565b6060806000600260008573ffffffffffffffffffffffffffffffffffffffff1673ffffffffffffffffffffffffffffffffffffffff16815260200190815260200160002060008154811061261357fe5b9060005260206000209060030201600101600260008673ffffffffffffffffffffffffffffffffffffffff1673ffffffffffffffffffffffffffffffffffffffff16815260200190815260200160002060008154811061266f57fe5b9060005260206000209060030201600201600260008773ffffffffffffffffffffffffffffffffffffffff1673ffffffffffffffffffffffffffffffffffffffff1681526020019081526020016000206000815481106126cb57fe5b906000526020600020906003020160000160009054906101000a900473ffffffffffffffffffffffffffffffffffffffff16828054600181600116156101000203166002900480601f0160208091040260200160405190810160405280929190818152602001828054600181600116156101000203166002900480156127925780601f1061276757610100808354040283529160200191612792565b820191906000526020600020905b81548152906001019060200180831161277557829003601f168201915b50505050509250818054600181600116156101000203166002900480601f01602080910402602001604051908101604052809291908181526020018280546001816001161561010002031660029004801561282e5780601f106128035761010080835404028352916020019161282e565b820191906000526020600020905b81548152906001019060200180831161281157829003601f168201915b505050505091508090509250925092509193909250565b600073b2341897b1ce81ac2c7553ce841d7efd2767e9ea9050600260003373ffffffffffffffffffffffffffffffffffffffff1673ffffffffffffffffffffffffffffffffffffffff16815260200190815260200160002060405180606001604052808373ffffffffffffffffffffffffffffffffffffffff1681526020016040518060400160405280600781526020017f5465737456616c0000000000000000000000000000000000000000000000000081525081526020016040518060400160405280600781526020017f5465737456616c00000000000000000000000000000000000000000000000000815250815250908060018154018082558091505060019003906000526020600020906003020160009091909190915060008201518160000160006101000a81548173ffffffffffffffffffffffffffffffffffffffff021916908373ffffffffffffffffffffffffffffffffffffffff16021790555060208201518160010190805190602001906129c49291906137b0565b5060408201518160020190805190602001906129e19291906137b0565b50505050565b6060806000806000549050336001600083815260200190815260200160002060000160006101000a81548173ffffffffffffffffffffffffffffffffffffffff021916908373ffffffffffffffffffffffffffffffffffffffff16021790555085600160008381526020019081526020016000206001019080519060200190612a71929190613730565b5084600160008381526020019081526020016000206002019080519060200190612a9c929190613730565b507fddd09ba2bdf0909225fd15c1849448b1d6c0dd7f37663029d382180ab2049b42338787604051808473ffffffffffffffffffffffffffffffffffffffff1673ffffffffffffffffffffffffffffffffffffffff1681526020018060200180602001838103835285818151815260200191508051906020019080838360005b83811015612b37578082015181840152602081019050612b1c565b50505050905090810190601f168015612b645780820380516001836020036101000a031916815260200191505b50838103825284818151815260200191508051906020019080838360005b83811015612b9d578082015181840152602081019050612b82565b50505050905090810190601f168015612bca5780820380516001836020036101000a031916815260200191505b509550505050505060405180910390a1600080815480929190600101919050555060016000828152602001908152602001600020600101600160008381526020019081526020016000206002016001600084815260200190815260200160002060000160009054906101000a900473ffffffffffffffffffffffffffffffffffffffff16828054600181600116156101000203166002900480601f016020809104026020016040519081016040528092919081815260200182805460018160011615610100020316600290048015612ce35780601f10612cb857610100808354040283529160200191612ce3565b820191906000526020600020905b815481529060010190602001808311612cc657829003601f168201915b50505050509250818054600181600116156101000203166002900480601f016020809104026020016040519081016040528092919081815260200182805460018160011615610100020316600290048015612d7f5780601f10612d5457610100808354040283529160200191612d7f565b820191906000526020600020905b815481529060010190602001808311612d6257829003601f168201915b50505050509150809050935093509350509250925092565b60005481565b600260003373ffffffffffffffffffffffffffffffffffffffff1673ffffffffffffffffffffffffffffffffffffffff168152602001908152602001600020604051806060016040528073b2341897b1ce81ac2c7553ce841d7efd2767e9ea73ffffffffffffffffffffffffffffffffffffffff1681526020016040518060400160405280600981526020017f4d6963726f736f6674000000000000000000000000000000000000000000000081525081526020016040518060400160405280600581526020017f5465616d73000000000000000000000000000000000000000000000000000000815250815250908060018154018082558091505060019003906000526020600020906003020160009091909190915060008201518160000160006101000a81548173ffffffffffffffffffffffffffffffffffffffff021916908373ffffffffffffffffffffffffffffffffffffffff1602179055506020820151816001019080519060200190612f179291906137b0565b506040820151816002019080519060200190612f349291906137b0565b505050600260003373ffffffffffffffffffffffffffffffffffffffff1673ffffffffffffffffffffffffffffffffffffffff168152602001908152602001600020604051806060016040528073b2341897b1ce81ac2c7553ce841d7efd2767e9ea73ffffffffffffffffffffffffffffffffffffffff1681526020016040518060400160405280600981526020017f4d6963726f736f6674000000000000000000000000000000000000000000000081525081526020016040518060400160405280600b81526020017f57696e646f777320382e31000000000000000000000000000000000000000000815250815250908060018154018082558091505060019003906000526020600020906003020160009091909190915060008201518160000160006101000a81548173ffffffffffffffffffffffffffffffffffffffff021916908373ffffffffffffffffffffffffffffffffffffffff16021790555060208201518160010190805190602001906130b19291906137b0565b5060408201518160020190805190602001906130ce9291906137b0565b505050600360003373ffffffffffffffffffffffffffffffffffffffff1673ffffffffffffffffffffffffffffffffffffffff16815260200190815260200160002060008154809291906001019190505550565b60016020528060005260406000206000915090508060000160009054906101000a900473ffffffffffffffffffffffffffffffffffffffff1690806001018054600181600116156101000203166002900480601f0160208091040260200160405190810160405280929190818152602001828054600181600116156101000203166002900480156131f45780601f106131c9576101008083540402835291602001916131f4565b820191906000526020600020905b8154815290600101906020018083116131d757829003601f168201915b505050505090806002018054600181600116156101000203166002900480601f0160208091040260200160405190810160405280929190818152602001828054600181600116156101000203166002900480156132925780601f1061326757610100808354040283529160200191613292565b820191906000526020600020905b81548152906001019060200180831161327557829003601f168201915b5050505050905083565b6000606080600260008573ffffffffffffffffffffffffffffffffffffffff1673ffffffffffffffffffffffffffffffffffffffff16815260200190815260200160002085815481106132eb57fe5b906000526020600020906003020160000160009054906101000a900473ffffffffffffffffffffffffffffffffffffffff16600260008673ffffffffffffffffffffffffffffffffffffffff1673ffffffffffffffffffffffffffffffffffffffff168152602001908152602001600020868154811061336757fe5b9060005260206000209060030201600101600260008773ffffffffffffffffffffffffffffffffffffffff1673ffffffffffffffffffffffffffffffffffffffff16815260200190815260200160002087815481106133c257fe5b9060005260206000209060030201600201829250818054600181600116156101000203166002900480601f01602080910402602001604051908101604052809291908181526020018280546001816001161561010002031660029004801561346b5780601f106134405761010080835404028352916020019161346b565b820191906000526020600020905b81548152906001019060200180831161344e57829003601f168201915b50505050509150808054600181600116156101000203166002900480601f0160208091040260200160405190810160405280929190818152602001828054600181600116156101000203166002900480156135075780601f106134dc57610100808354040283529160200191613507565b820191906000526020600020905b8154815290600101906020018083116134ea57829003601f168201915b505050505090509250925092509250925092565b6000600260008373ffffffffffffffffffffffffffffffffffffffff1673ffffffffffffffffffffffffffffffffffffffff168152602001908152602001600020805490509050919050565b600073b2341897b1ce81ac2c7553ce841d7efd2767e9ea9050600260008373ffffffffffffffffffffffffffffffffffffffff1673ffffffffffffffffffffffffffffffffffffffff16815260200190815260200160002060405180606001604052808373ffffffffffffffffffffffffffffffffffffffff1681526020016040518060400160405280600781526020017f5465737456616c0000000000000000000000000000000000000000000000000081525081526020016040518060400160405280600781526020017f5465737456616c00000000000000000000000000000000000000000000000000815250815250908060018154018082558091505060019003906000526020600020906003020160009091909190915060008201518160000160006101000a81548173ffffffffffffffffffffffffffffffffffffffff021916908373ffffffffffffffffffffffffffffffffffffffff16021790555060208201518160010190805190602001906136e69291906137b0565b5060408201518160020190805190602001906137039291906137b0565b5050505050565b600460009054906101000a900473ffffffffffffffffffffffffffffffffffffffff1681565b828054600181600116156101000203166002900490600052602060002090601f016020900481019282601f1061377157805160ff191683800117855561379f565b8280016001018555821561379f579182015b8281111561379e578251825591602001919060010190613783565b5b5090506137ac9190613830565b5090565b828054600181600116156101000203166002900490600052602060002090601f016020900481019282601f106137f157805160ff191683800117855561381f565b8280016001018555821561381f579182015b8281111561381e578251825591602001919060010190613803565b5b50905061382c9190613830565b5090565b61385291905b8082111561384e576000816000905550600101613836565b5090565b9056fea26469706673582212204749c89c191ed22e4fb9a7f0f55d44a83a729f02cba0df7af2f2251f66ef2d0b64736f6c63430006040033",
  "source": "pragma solidity >=0.5.0 <0.7.0;\r\n\r\ncontract ClaimContainer {\r\n\r\n    uint256 public claimCount;\r\n    mapping (uint256 => Claim) public claims;\r\n\r\n    mapping (address => Claim[]) ownedClaims;\r\n    mapping (address => uint256) public numberOfOwned;\r\n    event ClaimRequested(address _sender,address _issuer);\r\n    event ClaimAdded(address _issuer, string _ownerName, string _data);\r\n    address public test_adding;\r\n    constructor () public {\r\n        test_adding = 0xb2341897B1CE81aC2C7553cE841d7efd2767e9EA;  //msg.sender\r\n        addClaim(\"Facebook\",\"Has Instagram\");\r\n        addClaim(\"Facebook\",\"Has Facebook\");\r\n        addClaim(\"Facebook\",\"Has Whatsapp\");\r\n        // addClaimToOwned(1);\r\n        fill_mapHardCoded(\r\n            Claim({issuer:0xb2341897B1CE81aC2C7553cE841d7efd2767e9EA,ownerName: \"Microsoft\",data:\"Users\" }),\r\n            Claim({issuer:0xb2341897B1CE81aC2C7553cE841d7efd2767e9EA,ownerName: \"Microsoft\",data:\"Windows 10\" })\r\n        );\r\n    }\r\n// --------------------------------------------------- TESTING HARD CODED\r\n    function fill_mapHardCoded(Claim memory struct1,Claim memory struct2) internal  {\r\n        ownedClaims[test_adding].push(struct1);\r\n        ownedClaims[test_adding].push(struct2);\r\n        numberOfOwned[test_adding] ++;\r\n  }\r\n    function returnTest_ConstrValues(uint256 _index) public view  //working\r\n        returns( string memory _ownerNameR, string memory _dataR, address _issuer) {\r\n            require(_index >= 0,\"Error <0\");\r\n            require(_index < ownedClaims[test_adding].length,\"Error out of bounds\");\r\n            return (\r\n                ownedClaims[test_adding][_index].ownerName,\r\n                ownedClaims[test_adding][_index].data,\r\n                ownedClaims[test_adding][_index].issuer\r\n            );\r\n        }\r\n    function returnTest_ConstrValues() public view  // working\r\n        returns( string memory _ownerNameR, string memory _dataR, address _issuer) {\r\n            return (\r\n                ownedClaims[test_adding][0].ownerName,\r\n                ownedClaims[test_adding][0].data,\r\n                ownedClaims[test_adding][0].issuer\r\n            );\r\n    }\r\n    function addToTestingAdding() public { // working\r\n        address payable _is = 0xb2341897B1CE81aC2C7553cE841d7efd2767e9EA;\r\n        ownedClaims[test_adding].push(Claim({\r\n            issuer: _is,\r\n            ownerName: \"TestVal\",\r\n            data: \"TestVal\"})\r\n             );\r\n    }\r\n// --------------------------------------------------- TESTING WITH ADDRESS MSG.SENDER THIS DOESNT WORK!!!\r\n    function fill_map() public  {\r\n        ownedClaims[msg.sender].push(Claim({issuer:0xb2341897B1CE81aC2C7553cE841d7efd2767e9EA,ownerName: \"Microsoft\",data:\"Teams\" }));\r\n        ownedClaims[msg.sender].push(Claim({issuer:0xb2341897B1CE81aC2C7553cE841d7efd2767e9EA,ownerName: \"Microsoft\",data:\"Windows 8.1\" }));\r\n        numberOfOwned[msg.sender] ++;\r\n  }\r\n    function addTest_values() public{  //not working\r\n        ownedClaims[msg.sender][0].ownerName = \"TestVal\";\r\n        ownedClaims[msg.sender][0].data = \"TestVal\";\r\n        address payable _is = 0xb2341897B1CE81aC2C7553cE841d7efd2767e9EA;\r\n        ownedClaims[msg.sender][0].issuer = _is;\r\n    }\r\n     function addTest_values2() public{\r\n        address payable _is = 0xb2341897B1CE81aC2C7553cE841d7efd2767e9EA;\r\n        ownedClaims[msg.sender].push(Claim({\r\n            issuer: _is,\r\n            ownerName: \"TestVal\",\r\n            data: \"TestVal\"})\r\n             );\r\n    }\r\n\r\n    function getMsgSender() public view returns (address _me){\r\n        return msg.sender;\r\n    }\r\n\r\n    function get()  public view returns(string memory _ownerName) {\r\n        return ownedClaims[msg.sender][1].ownerName;\r\n    }\r\n\r\n// --------------------------------------------------- TESTING WITH ADDRESS GIVEN ADDRESS\r\n    // returns how many claim the owner has\r\n    function getClaimOwnedNumber(address owner) public view returns(uint256 _nrOwned){\r\n        return numberOfOwned[owner];\r\n    }\r\n     function getClaimOwnedNumberLength(address owner) public view returns(uint256 _nrOwned){\r\n        return ownedClaims[owner].length;\r\n    }\r\n    function fill_map(address test_add) public  {\r\n        ownedClaims[test_add].push(Claim({issuer:0xb2341897B1CE81aC2C7553cE841d7efd2767e9EA,ownerName: \"Microsoft\",data:\"Teams\" }));\r\n        ownedClaims[test_add].push(Claim({issuer:0xb2341897B1CE81aC2C7553cE841d7efd2767e9EA,ownerName: \"Microsoft\",data:\"Windows 8.1\" }));\r\n        numberOfOwned[test_add] ++;\r\n  }\r\n    function addTest_values(address test_add) public{  //not working\r\n        ownedClaims[test_add][0].ownerName = \"TestVal\";\r\n        ownedClaims[test_add][0].data = \"TestVal\";\r\n        address payable _is = 0xb2341897B1CE81aC2C7553cE841d7efd2767e9EA;\r\n        ownedClaims[test_add][0].issuer = _is;\r\n    }\r\n     function addTest_values2(address test_add) public{\r\n        address payable _is = 0xb2341897B1CE81aC2C7553cE841d7efd2767e9EA;\r\n        ownedClaims[test_add].push(Claim({\r\n            issuer: _is,\r\n            ownerName: \"TestVal\",\r\n            data: \"TestVal\"})\r\n             );\r\n    }\r\n    function addOwnedClaim(uint256 claimRequestedId, address owAddress) public{\r\n        address payable _is = claims[claimRequestedId].issuer;\r\n        string memory _owner = claims[claimRequestedId].ownerName;\r\n        string memory _data = claims[claimRequestedId].data;\r\n        ownedClaims[owAddress].push(Claim({\r\n            issuer: _is,\r\n            ownerName: _owner,\r\n            data: _data})\r\n             );\r\n    }\r\n\r\n  function getOwnedClaim(uint256 _claimOwnedId,address addr0) //Not working\r\n        public\r\n        view\r\n        returns(\r\n            address _issuer,\r\n            string memory _ownerName,\r\n            string memory _data\r\n        )\r\n    {\r\n        return (\r\n            ownedClaims[addr0][_claimOwnedId].issuer,\r\n            ownedClaims[addr0][_claimOwnedId].ownerName,\r\n            ownedClaims[addr0][_claimOwnedId].data\r\n        );\r\n    }\r\n    function getMsgSender(address test_add) public pure returns (address _me){\r\n        return test_add;\r\n    }\r\n     function getOwned0Value(address test_add) public view\r\n        returns( string memory _ownerNameR, string memory _dataR, address _issuer) {\r\n            return (\r\n                ownedClaims[test_add][0].ownerName,\r\n                ownedClaims[test_add][0].data,\r\n                ownedClaims[test_add][0].issuer\r\n            );\r\n        }\r\n\r\n\r\n    struct Claim {\r\n        address payable issuer;\r\n        string ownerName;\r\n        string data;\r\n    }\r\n     function addClaim(string memory _ownerName, string memory _data) public\r\n        returns( string memory _ownerNameR, string memory _dataR, address _issuer) {\r\n        uint256 claimId = claimCount;\r\n        claims[claimId].issuer = msg.sender;\r\n        claims[claimId].ownerName = _ownerName;\r\n        claims[claimId].data = _data;\r\n\r\n        emit ClaimAdded(\r\n            msg.sender,\r\n            _ownerName,\r\n            _data\r\n        );\r\n        claimCount++;\r\n        return (\r\n            claims[claimId].ownerName,\r\n            claims[claimId].data,\r\n            claims[claimId].issuer\r\n        );\r\n    }\r\n    function getClaim(uint256 _claimId)\r\n            public\r\n            view\r\n            returns(\r\n                string memory _ownerName,\r\n                string memory _data,\r\n                address _issuer\r\n            )\r\n        {\r\n            return (\r\n                claims[_claimId].ownerName,\r\n                claims[_claimId].data,\r\n                claims[_claimId].issuer\r\n            );\r\n        }\r\n\r\n}",
  "sourcePath": "D:\\Stuffs\\Facultate\\Anul3-Cazac\\blockchain\\react-proj-blockchain\\contracts\\ClaimContainer.sol",
  "compiler": {
    "name": "solc",
    "version": "0.6.4+commit.1dca32f3.Emscripten.clang"
  },
  "schemaVersion": "3.1.0",
  "updatedAt": "2020-04-26T22:22:20.036Z",
  "networkType": "ethereum",
  "devdoc": {
    "methods": {}
  },
  "userdoc": {
    "methods": {}
  }
}