{
  "contractName": "ClaimContainer",
  "abi": [
    {
      "inputs": [],
      "stateMutability": "nonpayable",
      "type": "constructor"
    },
    {
      "anonymous": false,
      "inputs": [
        {
          "indexed": false,
          "internalType": "address",
          "name": "_issuer",
          "type": "address"
        },
        {
          "indexed": false,
          "internalType": "string",
          "name": "_ownerName",
          "type": "string"
        },
        {
          "indexed": false,
          "internalType": "string",
          "name": "_data",
          "type": "string"
        }
      ],
      "name": "ClaimAdded",
      "type": "event"
    },
    {
      "anonymous": false,
      "inputs": [
        {
          "indexed": false,
          "internalType": "address",
          "name": "_sender",
          "type": "address"
        },
        {
          "indexed": false,
          "internalType": "address",
          "name": "_issuer",
          "type": "address"
        }
      ],
      "name": "ClaimRequested",
      "type": "event"
    },
    {
      "inputs": [],
      "name": "claimCount",
      "outputs": [
        {
          "internalType": "uint256",
          "name": "",
          "type": "uint256"
        }
      ],
      "stateMutability": "view",
      "type": "function"
    },
    {
      "inputs": [
        {
          "internalType": "uint256",
          "name": "",
          "type": "uint256"
        }
      ],
      "name": "claims",
      "outputs": [
        {
          "internalType": "address payable",
          "name": "issuer",
          "type": "address"
        },
        {
          "internalType": "string",
          "name": "ownerName",
          "type": "string"
        },
        {
          "internalType": "string",
          "name": "data",
          "type": "string"
        }
      ],
      "stateMutability": "view",
      "type": "function"
    },
    {
      "inputs": [
        {
          "internalType": "address",
          "name": "",
          "type": "address"
        }
      ],
      "name": "numberOfOwned",
      "outputs": [
        {
          "internalType": "uint256",
          "name": "",
          "type": "uint256"
        }
      ],
      "stateMutability": "view",
      "type": "function"
    },
    {
      "inputs": [
        {
          "internalType": "address",
          "name": "",
          "type": "address"
        },
        {
          "internalType": "uint256",
          "name": "",
          "type": "uint256"
        }
      ],
      "name": "ownedClaims",
      "outputs": [
        {
          "internalType": "address payable",
          "name": "issuer",
          "type": "address"
        },
        {
          "internalType": "string",
          "name": "ownerName",
          "type": "string"
        },
        {
          "internalType": "string",
          "name": "data",
          "type": "string"
        }
      ],
      "stateMutability": "view",
      "type": "function"
    },
    {
      "inputs": [],
      "name": "get",
      "outputs": [
        {
          "internalType": "string",
          "name": "_ownerName",
          "type": "string"
        }
      ],
      "stateMutability": "view",
      "type": "function"
    },
    {
      "inputs": [
        {
          "internalType": "string",
          "name": "_ownerName",
          "type": "string"
        },
        {
          "internalType": "string",
          "name": "_data",
          "type": "string"
        }
      ],
      "name": "addClaim",
      "outputs": [
        {
          "internalType": "string",
          "name": "_ownerNameR",
          "type": "string"
        },
        {
          "internalType": "string",
          "name": "_dataR",
          "type": "string"
        },
        {
          "internalType": "address",
          "name": "_issuer",
          "type": "address"
        }
      ],
      "stateMutability": "nonpayable",
      "type": "function"
    },
    {
      "inputs": [
        {
          "internalType": "uint256",
          "name": "_id",
          "type": "uint256"
        },
        {
          "internalType": "address",
          "name": "account0",
          "type": "address"
        }
      ],
      "name": "addClaimToOwned",
      "outputs": [
        {
          "internalType": "address",
          "name": "_issuer",
          "type": "address"
        },
        {
          "internalType": "string",
          "name": "_ownerName",
          "type": "string"
        },
        {
          "internalType": "string",
          "name": "_data",
          "type": "string"
        }
      ],
      "stateMutability": "nonpayable",
      "type": "function"
    },
    {
      "inputs": [],
      "name": "getClaimOwnedNumber",
      "outputs": [
        {
          "internalType": "uint256",
          "name": "_nrOwned",
          "type": "uint256"
        }
      ],
      "stateMutability": "view",
      "type": "function"
    },
    {
      "inputs": [
        {
          "internalType": "uint256",
          "name": "_claimOwnedId",
          "type": "uint256"
        },
        {
          "internalType": "address",
          "name": "addr0",
          "type": "address"
        }
      ],
      "name": "getClaimOwnedWithAddress",
      "outputs": [
        {
          "internalType": "address",
          "name": "_issuer",
          "type": "address"
        },
        {
          "internalType": "string",
          "name": "_ownerName",
          "type": "string"
        },
        {
          "internalType": "string",
          "name": "_data",
          "type": "string"
        }
      ],
      "stateMutability": "view",
      "type": "function"
    },
    {
      "inputs": [
        {
          "internalType": "uint256",
          "name": "_claimOwnedId",
          "type": "uint256"
        }
      ],
      "name": "getClaimOwned",
      "outputs": [
        {
          "internalType": "address",
          "name": "_issuer",
          "type": "address"
        },
        {
          "internalType": "string",
          "name": "_ownerName",
          "type": "string"
        },
        {
          "internalType": "string",
          "name": "_data",
          "type": "string"
        }
      ],
      "stateMutability": "view",
      "type": "function"
    },
    {
      "inputs": [
        {
          "internalType": "uint256",
          "name": "_claimId",
          "type": "uint256"
        }
      ],
      "name": "getClaim",
      "outputs": [
        {
          "internalType": "string",
          "name": "_ownerName",
          "type": "string"
        },
        {
          "internalType": "string",
          "name": "_data",
          "type": "string"
        },
        {
          "internalType": "address",
          "name": "_issuer",
          "type": "address"
        }
      ],
      "stateMutability": "view",
      "type": "function"
    }
  ],
  "bytecode": "0x60806040523480156200001157600080fd5b5060008081905550620000956040518060400160405280600881526020017f46616365626f6f6b0000000000000000000000000000000000000000000000008152506040518060400160405280600d81526020017f48617320496e7374616772616d00000000000000000000000000000000000000815250620001c660201b60201c565b505050620001146040518060400160405280600881526020017f46616365626f6f6b0000000000000000000000000000000000000000000000008152506040518060400160405280600c81526020017f4861732046616365626f6f6b0000000000000000000000000000000000000000815250620001c660201b60201c565b505050620001936040518060400160405280600881526020017f46616365626f6f6b0000000000000000000000000000000000000000000000008152506040518060400160405280600c81526020017f4861732057686174736170700000000000000000000000000000000000000000815250620001c660201b60201c565b505050620001bd600173b2341897b1ce81ac2c7553ce841d7efd2767e9ea6200058b60201b60201c565b50505062000be2565b6060806000806001600054019050336001600083815260200190815260200160002060000160006101000a81548173ffffffffffffffffffffffffffffffffffffffff021916908373ffffffffffffffffffffffffffffffffffffffff160217905550856001600083815260200190815260200160002060010190805190602001906200025592919062000aa5565b50846001600083815260200190815260200160002060020190805190602001906200028292919062000aa5565b507fddd09ba2bdf0909225fd15c1849448b1d6c0dd7f37663029d382180ab2049b42338787604051808473ffffffffffffffffffffffffffffffffffffffff1673ffffffffffffffffffffffffffffffffffffffff1681526020018060200180602001838103835285818151815260200191508051906020019080838360005b838110156200031f57808201518184015260208101905062000302565b50505050905090810190601f1680156200034d5780820380516001836020036101000a031916815260200191505b50838103825284818151815260200191508051906020019080838360005b83811015620003885780820151818401526020810190506200036b565b50505050905090810190601f168015620003b65780820380516001836020036101000a031916815260200191505b509550505050505060405180910390a1600080815480929190600101919050555060016000828152602001908152602001600020600101600160008381526020019081526020016000206002016001600084815260200190815260200160002060000160009054906101000a900473ffffffffffffffffffffffffffffffffffffffff16828054600181600116156101000203166002900480601f016020809104026020016040519081016040528092919081815260200182805460018160011615610100020316600290048015620004d35780601f10620004a757610100808354040283529160200191620004d3565b820191906000526020600020905b815481529060010190602001808311620004b557829003601f168201915b50505050509250818054600181600116156101000203166002900480601f016020809104026020016040519081016040528092919081815260200182805460018160011615610100020316600290048015620005735780601f10620005475761010080835404028352916020019162000573565b820191906000526020600020905b8154815290600101906020018083116200055557829003601f168201915b50505050509150809050935093509350509250925092565b600060608060008490506000600360008373ffffffffffffffffffffffffffffffffffffffff1673ffffffffffffffffffffffffffffffffffffffff16815260200190815260200160002054905080806001019150506001600088815260200190815260200160002060000160009054906101000a900473ffffffffffffffffffffffffffffffffffffffff16600260003373ffffffffffffffffffffffffffffffffffffffff1673ffffffffffffffffffffffffffffffffffffffff16815260200190815260200160002088815481106200066357fe5b906000526020600020906003020160000160006101000a81548173ffffffffffffffffffffffffffffffffffffffff021916908373ffffffffffffffffffffffffffffffffffffffff16021790555060016000888152602001908152602001600020600101600260003373ffffffffffffffffffffffffffffffffffffffff1673ffffffffffffffffffffffffffffffffffffffff16815260200190815260200160002088815481106200071357fe5b906000526020600020906003020160010190805460018160011615610100020316600290046200074592919062000b2c565b5060016000888152602001908152602001600020600201600260003373ffffffffffffffffffffffffffffffffffffffff1673ffffffffffffffffffffffffffffffffffffffff1681526020019081526020016000208881548110620007a757fe5b90600052602060002090600302016002019080546001816001161561010002031660029004620007d992919062000b2c565b5080600360008473ffffffffffffffffffffffffffffffffffffffff1673ffffffffffffffffffffffffffffffffffffffff16815260200190815260200160002081905550600260003373ffffffffffffffffffffffffffffffffffffffff1673ffffffffffffffffffffffffffffffffffffffff16815260200190815260200160002087815481106200086957fe5b906000526020600020906003020160000160009054906101000a900473ffffffffffffffffffffffffffffffffffffffff16600260003373ffffffffffffffffffffffffffffffffffffffff1673ffffffffffffffffffffffffffffffffffffffff1681526020019081526020016000208881548110620008e657fe5b9060005260206000209060030201600101600260003373ffffffffffffffffffffffffffffffffffffffff1673ffffffffffffffffffffffffffffffffffffffff16815260200190815260200160002089815481106200094257fe5b9060005260206000209060030201600201829250818054600181600116156101000203166002900480601f016020809104026020016040519081016040528092919081815260200182805460018160011615610100020316600290048015620009ef5780601f10620009c357610100808354040283529160200191620009ef565b820191906000526020600020905b815481529060010190602001808311620009d157829003601f168201915b50505050509150808054600181600116156101000203166002900480601f01602080910402602001604051908101604052809291908181526020018280546001816001161561010002031660029004801562000a8f5780601f1062000a635761010080835404028352916020019162000a8f565b820191906000526020600020905b81548152906001019060200180831162000a7157829003601f168201915b5050505050905094509450945050509250925092565b828054600181600116156101000203166002900490600052602060002090601f016020900481019282601f1062000ae857805160ff191683800117855562000b19565b8280016001018555821562000b19579182015b8281111562000b1857825182559160200191906001019062000afb565b5b50905062000b28919062000bba565b5090565b828054600181600116156101000203166002900490600052602060002090601f016020900481019282601f1062000b67578054855562000ba7565b8280016001018555821562000ba757600052602060002091601f016020900482015b8281111562000ba657825482559160010191906001019062000b89565b5b50905062000bb6919062000bba565b5090565b62000bdf91905b8082111562000bdb57600081600090555060010162000bc1565b5090565b90565b6121728062000bf26000396000f3fe608060405234801561001057600080fd5b50600436106100a95760003560e01c806383be8ea11161007157806383be8ea11461057b578063848cb5ac146106e15780638da4d3c91461094b578063a888c2cd14610969578063b68ecb2e14610aaf578063d639f64214610c15576100a9565b80630f7aa0fe146100ae57806316c675d5146101065780635aef24471461026c578063610cd51e146103b25780636d4ce63c146104f8575b600080fd5b6100f0600480360360208110156100c457600080fd5b81019080803573ffffffffffffffffffffffffffffffffffffffff169060200190929190505050610c33565b6040518082815260200191505060405180910390f35b6101526004803603604081101561011c57600080fd5b8101908080359060200190929190803573ffffffffffffffffffffffffffffffffffffffff169060200190929190505050610c4b565b604051808473ffffffffffffffffffffffffffffffffffffffff1673ffffffffffffffffffffffffffffffffffffffff1681526020018060200180602001838103835285818151815260200191508051906020019080838360005b838110156101c85780820151818401526020810190506101ad565b50505050905090810190601f1680156101f55780820380516001836020036101000a031916815260200191505b50838103825284818151815260200191508051906020019080838360005b8381101561022e578082015181840152602081019050610213565b50505050905090810190601f16801561025b5780820380516001836020036101000a031916815260200191505b509550505050505060405180910390f35b6102986004803603602081101561028257600080fd5b8101908080359060200190929190505050610eca565b6040518080602001806020018473ffffffffffffffffffffffffffffffffffffffff1673ffffffffffffffffffffffffffffffffffffffff168152602001838103835286818151815260200191508051906020019080838360005b8381101561030e5780820151818401526020810190506102f3565b50505050905090810190601f16801561033b5780820380516001836020036101000a031916815260200191505b50838103825285818151815260200191508051906020019080838360005b83811015610374578082015181840152602081019050610359565b50505050905090810190601f1680156103a15780820380516001836020036101000a031916815260200191505b509550505050505060405180910390f35b6103de600480360360208110156103c857600080fd5b810190808035906020019092919050505061107a565b604051808473ffffffffffffffffffffffffffffffffffffffff1673ffffffffffffffffffffffffffffffffffffffff1681526020018060200180602001838103835285818151815260200191508051906020019080838360005b83811015610454578082015181840152602081019050610439565b50505050905090810190601f1680156104815780820380516001836020036101000a031916815260200191505b50838103825284818151815260200191508051906020019080838360005b838110156104ba57808201518184015260208101905061049f565b50505050905090810190601f1680156104e75780820380516001836020036101000a031916815260200191505b509550505050505060405180910390f35b6105006112f9565b6040518080602001828103825283818151815260200191508051906020019080838360005b83811015610540578082015181840152602081019050610525565b50505050905090810190601f16801561056d5780820380516001836020036101000a031916815260200191505b509250505060405180910390f35b6105c76004803603604081101561059157600080fd5b8101908080359060200190929190803573ffffffffffffffffffffffffffffffffffffffff1690602001909291905050506113f5565b604051808473ffffffffffffffffffffffffffffffffffffffff1673ffffffffffffffffffffffffffffffffffffffff1681526020018060200180602001838103835285818151815260200191508051906020019080838360005b8381101561063d578082015181840152602081019050610622565b50505050905090810190601f16801561066a5780820380516001836020036101000a031916815260200191505b50838103825284818151815260200191508051906020019080838360005b838110156106a3578082015181840152602081019050610688565b50505050905090810190601f1680156106d05780820380516001836020036101000a031916815260200191505b509550505050505060405180910390f35b610831600480360360408110156106f757600080fd5b810190808035906020019064010000000081111561071457600080fd5b82018360208201111561072657600080fd5b8035906020019184600183028401116401000000008311171561074857600080fd5b91908080601f016020809104026020016040519081016040528093929190818152602001838380828437600081840152601f19601f820116905080830192505050505050509192919290803590602001906401000000008111156107ab57600080fd5b8201836020820111156107bd57600080fd5b803590602001918460018302840111640100000000831117156107df57600080fd5b91908080601f016020809104026020016040519081016040528093929190818152602001838380828437600081840152601f19601f8201169050808301925050505050505091929192905050506118fd565b6040518080602001806020018473ffffffffffffffffffffffffffffffffffffffff1673ffffffffffffffffffffffffffffffffffffffff168152602001838103835286818151815260200191508051906020019080838360005b838110156108a757808201518184015260208101905061088c565b50505050905090810190601f1680156108d45780820380516001836020036101000a031916815260200191505b50838103825285818151815260200191508051906020019080838360005b8381101561090d5780820151818401526020810190506108f2565b50505050905090810190601f16801561093a5780820380516001836020036101000a031916815260200191505b509550505050505060405180910390f35b610953611cb0565b6040518082815260200191505060405180910390f35b6109956004803603602081101561097f57600080fd5b8101908080359060200190929190505050611cb6565b604051808473ffffffffffffffffffffffffffffffffffffffff1673ffffffffffffffffffffffffffffffffffffffff1681526020018060200180602001838103835285818151815260200191508051906020019080838360005b83811015610a0b5780820151818401526020810190506109f0565b50505050905090810190601f168015610a385780820380516001836020036101000a031916815260200191505b50838103825284818151815260200191508051906020019080838360005b83811015610a71578082015181840152602081019050610a56565b50505050905090810190601f168015610a9e5780820380516001836020036101000a031916815260200191505b509550505050505060405180910390f35b610afb60048036036040811015610ac557600080fd5b81019080803573ffffffffffffffffffffffffffffffffffffffff16906020019092919080359060200190929190505050611e30565b604051808473ffffffffffffffffffffffffffffffffffffffff1673ffffffffffffffffffffffffffffffffffffffff1681526020018060200180602001838103835285818151815260200191508051906020019080838360005b83811015610b71578082015181840152602081019050610b56565b50505050905090810190601f168015610b9e5780820380516001836020036101000a031916815260200191505b50838103825284818151815260200191508051906020019080838360005b83811015610bd7578082015181840152602081019050610bbc565b50505050905090810190601f168015610c045780820380516001836020036101000a031916815260200191505b509550505050505060405180910390f35b610c1d611fc4565b6040518082815260200191505060405180910390f35b60036020528060005260406000206000915090505481565b6000606080600260008573ffffffffffffffffffffffffffffffffffffffff1673ffffffffffffffffffffffffffffffffffffffff1681526020019081526020016000208581548110610c9a57fe5b906000526020600020906003020160000160009054906101000a900473ffffffffffffffffffffffffffffffffffffffff16600260008673ffffffffffffffffffffffffffffffffffffffff1673ffffffffffffffffffffffffffffffffffffffff1681526020019081526020016000208681548110610d1657fe5b9060005260206000209060030201600101600260008773ffffffffffffffffffffffffffffffffffffffff1673ffffffffffffffffffffffffffffffffffffffff1681526020019081526020016000208781548110610d7157fe5b9060005260206000209060030201600201829250818054600181600116156101000203166002900480601f016020809104026020016040519081016040528092919081815260200182805460018160011615610100020316600290048015610e1a5780601f10610def57610100808354040283529160200191610e1a565b820191906000526020600020905b815481529060010190602001808311610dfd57829003601f168201915b50505050509150808054600181600116156101000203166002900480601f016020809104026020016040519081016040528092919081815260200182805460018160011615610100020316600290048015610eb65780601f10610e8b57610100808354040283529160200191610eb6565b820191906000526020600020905b815481529060010190602001808311610e9957829003601f168201915b505050505090509250925092509250925092565b606080600060016000858152602001908152602001600020600101600160008681526020019081526020016000206002016001600087815260200190815260200160002060000160009054906101000a900473ffffffffffffffffffffffffffffffffffffffff16828054600181600116156101000203166002900480601f016020809104026020016040519081016040528092919081815260200182805460018160011615610100020316600290048015610fc75780601f10610f9c57610100808354040283529160200191610fc7565b820191906000526020600020905b815481529060010190602001808311610faa57829003601f168201915b50505050509250818054600181600116156101000203166002900480601f0160208091040260200160405190810160405280929190818152602001828054600181600116156101000203166002900480156110635780601f1061103857610100808354040283529160200191611063565b820191906000526020600020905b81548152906001019060200180831161104657829003601f168201915b505050505091508090509250925092509193909250565b6000606080600260003373ffffffffffffffffffffffffffffffffffffffff1673ffffffffffffffffffffffffffffffffffffffff16815260200190815260200160002084815481106110c957fe5b906000526020600020906003020160000160009054906101000a900473ffffffffffffffffffffffffffffffffffffffff16600260003373ffffffffffffffffffffffffffffffffffffffff1673ffffffffffffffffffffffffffffffffffffffff168152602001908152602001600020858154811061114557fe5b9060005260206000209060030201600101600260003373ffffffffffffffffffffffffffffffffffffffff1673ffffffffffffffffffffffffffffffffffffffff16815260200190815260200160002086815481106111a057fe5b9060005260206000209060030201600201829250818054600181600116156101000203166002900480601f0160208091040260200160405190810160405280929190818152602001828054600181600116156101000203166002900480156112495780601f1061121e57610100808354040283529160200191611249565b820191906000526020600020905b81548152906001019060200180831161122c57829003601f168201915b50505050509150808054600181600116156101000203166002900480601f0160208091040260200160405190810160405280929190818152602001828054600181600116156101000203166002900480156112e55780601f106112ba576101008083540402835291602001916112e5565b820191906000526020600020905b8154815290600101906020018083116112c857829003601f168201915b505050505090509250925092509193909250565b6060600260003373ffffffffffffffffffffffffffffffffffffffff1673ffffffffffffffffffffffffffffffffffffffff16815260200190815260200160002060018154811061134657fe5b90600052602060002090600302016001018054600181600116156101000203166002900480601f0160208091040260200160405190810160405280929190818152602001828054600181600116156101000203166002900480156113eb5780601f106113c0576101008083540402835291602001916113eb565b820191906000526020600020905b8154815290600101906020018083116113ce57829003601f168201915b5050505050905090565b600060608060008490506000600360008373ffffffffffffffffffffffffffffffffffffffff1673ffffffffffffffffffffffffffffffffffffffff16815260200190815260200160002054905080806001019150506001600088815260200190815260200160002060000160009054906101000a900473ffffffffffffffffffffffffffffffffffffffff16600260003373ffffffffffffffffffffffffffffffffffffffff1673ffffffffffffffffffffffffffffffffffffffff16815260200190815260200160002088815481106114cc57fe5b906000526020600020906003020160000160006101000a81548173ffffffffffffffffffffffffffffffffffffffff021916908373ffffffffffffffffffffffffffffffffffffffff16021790555060016000888152602001908152602001600020600101600260003373ffffffffffffffffffffffffffffffffffffffff1673ffffffffffffffffffffffffffffffffffffffff168152602001908152602001600020888154811061157b57fe5b906000526020600020906003020160010190805460018160011615610100020316600290046115ab929190612010565b5060016000888152602001908152602001600020600201600260003373ffffffffffffffffffffffffffffffffffffffff1673ffffffffffffffffffffffffffffffffffffffff168152602001908152602001600020888154811061160c57fe5b9060005260206000209060030201600201908054600181600116156101000203166002900461163c929190612010565b5080600360008473ffffffffffffffffffffffffffffffffffffffff1673ffffffffffffffffffffffffffffffffffffffff16815260200190815260200160002081905550600260003373ffffffffffffffffffffffffffffffffffffffff1673ffffffffffffffffffffffffffffffffffffffff16815260200190815260200160002087815481106116cb57fe5b906000526020600020906003020160000160009054906101000a900473ffffffffffffffffffffffffffffffffffffffff16600260003373ffffffffffffffffffffffffffffffffffffffff1673ffffffffffffffffffffffffffffffffffffffff168152602001908152602001600020888154811061174757fe5b9060005260206000209060030201600101600260003373ffffffffffffffffffffffffffffffffffffffff1673ffffffffffffffffffffffffffffffffffffffff16815260200190815260200160002089815481106117a257fe5b9060005260206000209060030201600201829250818054600181600116156101000203166002900480601f01602080910402602001604051908101604052809291908181526020018280546001816001161561010002031660029004801561184b5780601f106118205761010080835404028352916020019161184b565b820191906000526020600020905b81548152906001019060200180831161182e57829003601f168201915b50505050509150808054600181600116156101000203166002900480601f0160208091040260200160405190810160405280929190818152602001828054600181600116156101000203166002900480156118e75780601f106118bc576101008083540402835291602001916118e7565b820191906000526020600020905b8154815290600101906020018083116118ca57829003601f168201915b5050505050905094509450945050509250925092565b6060806000806001600054019050336001600083815260200190815260200160002060000160006101000a81548173ffffffffffffffffffffffffffffffffffffffff021916908373ffffffffffffffffffffffffffffffffffffffff1602179055508560016000838152602001908152602001600020600101908051906020019061198a929190612097565b50846001600083815260200190815260200160002060020190805190602001906119b5929190612097565b507fddd09ba2bdf0909225fd15c1849448b1d6c0dd7f37663029d382180ab2049b42338787604051808473ffffffffffffffffffffffffffffffffffffffff1673ffffffffffffffffffffffffffffffffffffffff1681526020018060200180602001838103835285818151815260200191508051906020019080838360005b83811015611a50578082015181840152602081019050611a35565b50505050905090810190601f168015611a7d5780820380516001836020036101000a031916815260200191505b50838103825284818151815260200191508051906020019080838360005b83811015611ab6578082015181840152602081019050611a9b565b50505050905090810190601f168015611ae35780820380516001836020036101000a031916815260200191505b509550505050505060405180910390a1600080815480929190600101919050555060016000828152602001908152602001600020600101600160008381526020019081526020016000206002016001600084815260200190815260200160002060000160009054906101000a900473ffffffffffffffffffffffffffffffffffffffff16828054600181600116156101000203166002900480601f016020809104026020016040519081016040528092919081815260200182805460018160011615610100020316600290048015611bfc5780601f10611bd157610100808354040283529160200191611bfc565b820191906000526020600020905b815481529060010190602001808311611bdf57829003601f168201915b50505050509250818054600181600116156101000203166002900480601f016020809104026020016040519081016040528092919081815260200182805460018160011615610100020316600290048015611c985780601f10611c6d57610100808354040283529160200191611c98565b820191906000526020600020905b815481529060010190602001808311611c7b57829003601f168201915b50505050509150809050935093509350509250925092565b60005481565b60016020528060005260406000206000915090508060000160009054906101000a900473ffffffffffffffffffffffffffffffffffffffff1690806001018054600181600116156101000203166002900480601f016020809104026020016040519081016040528092919081815260200182805460018160011615610100020316600290048015611d885780601f10611d5d57610100808354040283529160200191611d88565b820191906000526020600020905b815481529060010190602001808311611d6b57829003601f168201915b505050505090806002018054600181600116156101000203166002900480601f016020809104026020016040519081016040528092919081815260200182805460018160011615610100020316600290048015611e265780601f10611dfb57610100808354040283529160200191611e26565b820191906000526020600020905b815481529060010190602001808311611e0957829003601f168201915b5050505050905083565b60026020528160005260406000208181548110611e4957fe5b9060005260206000209060030201600091509150508060000160009054906101000a900473ffffffffffffffffffffffffffffffffffffffff1690806001018054600181600116156101000203166002900480601f016020809104026020016040519081016040528092919081815260200182805460018160011615610100020316600290048015611f1c5780601f10611ef157610100808354040283529160200191611f1c565b820191906000526020600020905b815481529060010190602001808311611eff57829003601f168201915b505050505090806002018054600181600116156101000203166002900480601f016020809104026020016040519081016040528092919081815260200182805460018160011615610100020316600290048015611fba5780601f10611f8f57610100808354040283529160200191611fba565b820191906000526020600020905b815481529060010190602001808311611f9d57829003601f168201915b5050505050905083565b600080339050600360008273ffffffffffffffffffffffffffffffffffffffff1673ffffffffffffffffffffffffffffffffffffffff1681526020019081526020016000205491505090565b828054600181600116156101000203166002900490600052602060002090601f016020900481019282601f106120495780548555612086565b8280016001018555821561208657600052602060002091601f016020900482015b8281111561208557825482559160010191906001019061206a565b5b5090506120939190612117565b5090565b828054600181600116156101000203166002900490600052602060002090601f016020900481019282601f106120d857805160ff1916838001178555612106565b82800160010185558215612106579182015b828111156121055782518255916020019190600101906120ea565b5b5090506121139190612117565b5090565b61213991905b8082111561213557600081600090555060010161211d565b5090565b9056fea26469706673582212209d34e437cfc6ed96da0d1577b8468c9b6deb5f040343d3d62fe9d7b3d3647bd764736f6c63430006040033",
  "source": "pragma solidity >=0.5.0 <0.7.0;\r\n\r\ncontract ClaimContainer {\r\n\r\n    uint256 public claimCount;\r\n    mapping (uint256 => Claim) public claims;\r\n\r\n    mapping (address => Claim[]) public ownedClaims;\r\n    mapping (address => uint256) public numberOfOwned;\r\n\r\n    event ClaimRequested(\r\n        address _sender,\r\n        address _issuer);\r\n    event ClaimAdded(\r\n        address _issuer,\r\n        string _ownerName,\r\n        string _data);\r\n    constructor  () public {\r\n        claimCount = 0;\r\n        addClaim(\"Facebook\",\"Has Instagram\");\r\n        addClaim(\"Facebook\",\"Has Facebook\");\r\n        addClaim(\"Facebook\",\"Has Whatsapp\");\r\n        addClaimToOwned(1,address(0xb2341897B1CE81aC2C7553cE841d7efd2767e9EA));\r\n    }\r\n    function get()\r\n    public\r\n    view\r\n    returns(string memory _ownerName)\r\n    {\r\n        return ownedClaims[msg.sender][1].ownerName;\r\n    }\r\n    struct Claim {\r\n        address payable issuer;\r\n        string ownerName;\r\n        string data;\r\n    }\r\n\r\n    function addClaim(\r\n        string memory _ownerName,\r\n        string memory _data\r\n    )\r\n        public\r\n        returns(\r\n            string memory _ownerNameR,\r\n            string memory _dataR,\r\n            address _issuer\r\n        )\r\n    {\r\n        uint256 claimId = claimCount + 1;\r\n        claims[claimId].issuer = msg.sender;\r\n        claims[claimId].ownerName = _ownerName;\r\n        claims[claimId].data = _data;\r\n\r\n        emit ClaimAdded(\r\n            msg.sender,\r\n            _ownerName,\r\n            _data\r\n        );\r\n\r\n        claimCount++;\r\n        return (\r\n            claims[claimId].ownerName,\r\n            claims[claimId].data,\r\n            claims[claimId].issuer\r\n        );\r\n    }\r\n\r\n    // function sendEther(address payable _addr) public payable {\r\n    //         _addr.transfer(msg.value);\r\n    //     }\r\n    function addClaimToOwned(uint256 _id, address account0) public returns(\r\n            address _issuer,\r\n            string memory _ownerName,\r\n            string memory _data\r\n        ){\r\n            // if(_id >= 1 && _id <= claimCount){\r\n                address self = account0;\r\n            //    claims[_id].issuer.transfer(msg.value);\r\n                // sendEther(claims[claimId].issuer);\r\n                uint256 nr = numberOfOwned[self];\r\n                nr++;\r\n                ownedClaims[msg.sender][_id].issuer    = claims[_id].issuer;\r\n                ownedClaims[msg.sender][_id].ownerName = claims[_id].ownerName;\r\n                ownedClaims[msg.sender][_id].data      = claims[_id].data;\r\n                // ownedClaims[self].push(Claim(\r\n                //                                 claims[_id].issuer,\r\n                //                                 claims[_id].ownerName,\r\n                //                                 claims[_id].data)\r\n                numberOfOwned[self] = nr;\r\n        // }\r\n         return (\r\n            ownedClaims[msg.sender][_id].issuer,\r\n            ownedClaims[msg.sender][_id].ownerName,\r\n            ownedClaims[msg.sender][_id].data\r\n        );\r\n    }\r\n\r\n    function getClaimOwnedNumber() public view returns(uint256 _nrOwned){\r\n        address payable self = msg.sender;\r\n        return numberOfOwned[self];\r\n    }\r\n  function getClaimOwnedWithAddress(uint256 _claimOwnedId,address addr0) //Not working\r\n        public\r\n        view\r\n        returns(\r\n            address _issuer,\r\n            string memory _ownerName,\r\n            string memory _data\r\n        )\r\n    {\r\n        return (\r\n            ownedClaims[addr0][_claimOwnedId].issuer,\r\n            ownedClaims[addr0][_claimOwnedId].ownerName,\r\n            ownedClaims[addr0][_claimOwnedId].data\r\n        );\r\n    }\r\n    function getClaimOwned(uint256 _claimOwnedId) //Not working\r\n        public\r\n        view\r\n        returns(\r\n            address _issuer,\r\n            string memory _ownerName,\r\n            string memory _data\r\n        )\r\n    {\r\n        return (\r\n            ownedClaims[msg.sender][_claimOwnedId].issuer,\r\n            ownedClaims[msg.sender][_claimOwnedId].ownerName,\r\n            ownedClaims[msg.sender][_claimOwnedId].data\r\n        );\r\n    }\r\n    function getClaim(uint256 _claimId)\r\n            public\r\n            view\r\n            returns(\r\n                string memory _ownerName,\r\n                string memory _data,\r\n                address _issuer\r\n            )\r\n        {\r\n            return (\r\n                claims[_claimId].ownerName,\r\n                claims[_claimId].data,\r\n                claims[_claimId].issuer\r\n            );\r\n        }\r\n\r\n}",
  "sourcePath": "D:\\Stuffs\\Facultate\\Anul3-Cazac\\blockchain\\react-proj-blockchain\\contracts\\ClaimContainer.sol",
  "compiler": {
    "name": "solc",
    "version": "0.6.4+commit.1dca32f3.Emscripten.clang"
  },
  "schemaVersion": "3.1.0",
  "updatedAt": "2020-04-25T21:10:03.548Z",
  "devdoc": {
    "methods": {}
  },
  "userdoc": {
    "methods": {}
  }
}