{
  "contractName": "ClaimContainer",
  "abi": [
    {
      "inputs": [],
      "stateMutability": "nonpayable",
      "type": "constructor"
    },
    {
      "anonymous": false,
      "inputs": [
        {
          "indexed": false,
          "internalType": "address",
          "name": "_issuer",
          "type": "address"
        },
        {
          "indexed": false,
          "internalType": "string",
          "name": "_ownerName",
          "type": "string"
        },
        {
          "indexed": false,
          "internalType": "string",
          "name": "_data",
          "type": "string"
        }
      ],
      "name": "ClaimAdded",
      "type": "event"
    },
    {
      "anonymous": false,
      "inputs": [
        {
          "indexed": false,
          "internalType": "address",
          "name": "_sender",
          "type": "address"
        },
        {
          "indexed": false,
          "internalType": "address",
          "name": "_issuer",
          "type": "address"
        }
      ],
      "name": "ClaimRequested",
      "type": "event"
    },
    {
      "inputs": [],
      "name": "claimCount",
      "outputs": [
        {
          "internalType": "uint256",
          "name": "",
          "type": "uint256"
        }
      ],
      "stateMutability": "view",
      "type": "function",
      "constant": true
    },
    {
      "inputs": [
        {
          "internalType": "uint256",
          "name": "",
          "type": "uint256"
        }
      ],
      "name": "claims",
      "outputs": [
        {
          "internalType": "address payable",
          "name": "issuer",
          "type": "address"
        },
        {
          "internalType": "string",
          "name": "ownerName",
          "type": "string"
        },
        {
          "internalType": "string",
          "name": "data",
          "type": "string"
        }
      ],
      "stateMutability": "view",
      "type": "function",
      "constant": true
    },
    {
      "inputs": [
        {
          "internalType": "address",
          "name": "",
          "type": "address"
        }
      ],
      "name": "numberOfOwned",
      "outputs": [
        {
          "internalType": "uint256",
          "name": "",
          "type": "uint256"
        }
      ],
      "stateMutability": "view",
      "type": "function",
      "constant": true
    },
    {
      "inputs": [
        {
          "internalType": "address",
          "name": "",
          "type": "address"
        },
        {
          "internalType": "uint256",
          "name": "",
          "type": "uint256"
        }
      ],
      "name": "ownedClaims",
      "outputs": [
        {
          "internalType": "address payable",
          "name": "issuer",
          "type": "address"
        },
        {
          "internalType": "string",
          "name": "ownerName",
          "type": "string"
        },
        {
          "internalType": "string",
          "name": "data",
          "type": "string"
        }
      ],
      "stateMutability": "view",
      "type": "function",
      "constant": true
    },
    {
      "inputs": [],
      "name": "get",
      "outputs": [
        {
          "internalType": "string",
          "name": "_ownerName",
          "type": "string"
        }
      ],
      "stateMutability": "view",
      "type": "function",
      "constant": true
    },
    {
      "inputs": [
        {
          "internalType": "string",
          "name": "_ownerName",
          "type": "string"
        },
        {
          "internalType": "string",
          "name": "_data",
          "type": "string"
        }
      ],
      "name": "addClaim",
      "outputs": [
        {
          "internalType": "string",
          "name": "_ownerNameR",
          "type": "string"
        },
        {
          "internalType": "string",
          "name": "_dataR",
          "type": "string"
        },
        {
          "internalType": "address",
          "name": "_issuer",
          "type": "address"
        }
      ],
      "stateMutability": "nonpayable",
      "type": "function"
    },
    {
      "inputs": [
        {
          "internalType": "uint256",
          "name": "claimId",
          "type": "uint256"
        }
      ],
      "name": "addClaimToOwned",
      "outputs": [],
      "stateMutability": "nonpayable",
      "type": "function"
    },
    {
      "inputs": [],
      "name": "getClaimOwnedNumber",
      "outputs": [
        {
          "internalType": "uint256",
          "name": "_nrOwned",
          "type": "uint256"
        }
      ],
      "stateMutability": "view",
      "type": "function",
      "constant": true
    },
    {
      "inputs": [
        {
          "internalType": "uint256",
          "name": "_claimOwnedId",
          "type": "uint256"
        }
      ],
      "name": "getClaimOwned",
      "outputs": [
        {
          "internalType": "address",
          "name": "_issuer",
          "type": "address"
        },
        {
          "internalType": "string",
          "name": "_ownerName",
          "type": "string"
        },
        {
          "internalType": "string",
          "name": "_data",
          "type": "string"
        }
      ],
      "stateMutability": "view",
      "type": "function",
      "constant": true
    },
    {
      "inputs": [
        {
          "internalType": "uint256",
          "name": "_claimId",
          "type": "uint256"
        }
      ],
      "name": "getClaim",
      "outputs": [
        {
          "internalType": "string",
          "name": "_ownerName",
          "type": "string"
        },
        {
          "internalType": "string",
          "name": "_data",
          "type": "string"
        },
        {
          "internalType": "address",
          "name": "_issuer",
          "type": "address"
        }
      ],
      "stateMutability": "view",
      "type": "function",
      "constant": true
    }
  ],
  "bytecode": "0x60806040523480156200001157600080fd5b5060008081905550620000956040518060400160405280600881526020017f46616365626f6f6b0000000000000000000000000000000000000000000000008152506040518060400160405280600d81526020017f48617320496e7374616772616d00000000000000000000000000000000000000815250620001ae60201b60201c565b505050620001146040518060400160405280600881526020017f46616365626f6f6b0000000000000000000000000000000000000000000000008152506040518060400160405280600c81526020017f4861732046616365626f6f6b0000000000000000000000000000000000000000815250620001ae60201b60201c565b505050620001936040518060400160405280600881526020017f46616365626f6f6b0000000000000000000000000000000000000000000000008152506040518060400160405280600c81526020017f4861732057686174736170700000000000000000000000000000000000000000815250620001ae60201b60201c565b505050620001a860016200057360201b60201c565b62000a17565b6060806000806001600054019050336001600083815260200190815260200160002060000160006101000a81548173ffffffffffffffffffffffffffffffffffffffff021916908373ffffffffffffffffffffffffffffffffffffffff160217905550856001600083815260200190815260200160002060010190805190602001906200023d929190620008e1565b50846001600083815260200190815260200160002060020190805190602001906200026a929190620008e1565b507fddd09ba2bdf0909225fd15c1849448b1d6c0dd7f37663029d382180ab2049b42338787604051808473ffffffffffffffffffffffffffffffffffffffff1673ffffffffffffffffffffffffffffffffffffffff1681526020018060200180602001838103835285818151815260200191508051906020019080838360005b8381101562000307578082015181840152602081019050620002ea565b50505050905090810190601f168015620003355780820380516001836020036101000a031916815260200191505b50838103825284818151815260200191508051906020019080838360005b838110156200037057808201518184015260208101905062000353565b50505050905090810190601f1680156200039e5780820380516001836020036101000a031916815260200191505b509550505050505060405180910390a1600080815480929190600101919050555060016000828152602001908152602001600020600101600160008381526020019081526020016000206002016001600084815260200190815260200160002060000160009054906101000a900473ffffffffffffffffffffffffffffffffffffffff16828054600181600116156101000203166002900480601f016020809104026020016040519081016040528092919081815260200182805460018160011615610100020316600290048015620004bb5780601f106200048f57610100808354040283529160200191620004bb565b820191906000526020600020905b8154815290600101906020018083116200049d57829003601f168201915b50505050509250818054600181600116156101000203166002900480601f0160208091040260200160405190810160405280929190818152602001828054600181600116156101000203166002900480156200055b5780601f106200052f576101008083540402835291602001916200055b565b820191906000526020600020905b8154815290600101906020018083116200053d57829003601f168201915b50505050509150809050935093509350509250925092565b6001811180156200058657506000548111155b15620008de5760003390506000600360008373ffffffffffffffffffffffffffffffffffffffff1673ffffffffffffffffffffffffffffffffffffffff1681526020019081526020016000205490508080600101915050600260008373ffffffffffffffffffffffffffffffffffffffff1673ffffffffffffffffffffffffffffffffffffffff16815260200190815260200160002060405180606001604052806001600087815260200190815260200160002060000160009054906101000a900473ffffffffffffffffffffffffffffffffffffffff1673ffffffffffffffffffffffffffffffffffffffff168152602001600160008781526020019081526020016000206001018054600181600116156101000203166002900480601f016020809104026020016040519081016040528092919081815260200182805460018160011615610100020316600290048015620007275780601f10620006fb5761010080835404028352916020019162000727565b820191906000526020600020905b8154815290600101906020018083116200070957829003601f168201915b50505050508152602001600160008781526020019081526020016000206002018054600181600116156101000203166002900480601f016020809104026020016040519081016040528092919081815260200182805460018160011615610100020316600290048015620007df5780601f10620007b357610100808354040283529160200191620007df565b820191906000526020600020905b815481529060010190602001808311620007c157829003601f168201915b5050505050815250908060018154018082558091505060019003906000526020600020906003020160009091909190915060008201518160000160006101000a81548173ffffffffffffffffffffffffffffffffffffffff021916908373ffffffffffffffffffffffffffffffffffffffff16021790555060208201518160010190805190602001906200087592919062000968565b5060408201518160020190805190602001906200089492919062000968565b50505080600360008473ffffffffffffffffffffffffffffffffffffffff1673ffffffffffffffffffffffffffffffffffffffff1681526020019081526020016000208190555050505b50565b828054600181600116156101000203166002900490600052602060002090601f016020900481019282601f106200092457805160ff191683800117855562000955565b8280016001018555821562000955579182015b828111156200095457825182559160200191906001019062000937565b5b509050620009649190620009ef565b5090565b828054600181600116156101000203166002900490600052602060002090601f016020900481019282601f10620009ab57805160ff1916838001178555620009dc565b82800160010185558215620009dc579182015b82811115620009db578251825591602001919060010190620009be565b5b509050620009eb9190620009ef565b5090565b62000a1491905b8082111562000a10576000816000905550600101620009f6565b5090565b90565b611a9b8062000a276000396000f3fe608060405234801561001057600080fd5b506004361061009e5760003560e01c80638da4d3c9116100665780638da4d3c914610674578063a888c2cd14610692578063b68ecb2e146107d8578063d639f6421461093e578063ee87384f1461095c5761009e565b80630f7aa0fe146100a35780635aef2447146100fb578063610cd51e146102415780636d4ce63c14610387578063848cb5ac1461040a575b600080fd5b6100e5600480360360208110156100b957600080fd5b81019080803573ffffffffffffffffffffffffffffffffffffffff16906020019092919050505061098a565b6040518082815260200191505060405180910390f35b6101276004803603602081101561011157600080fd5b81019080803590602001909291905050506109a2565b6040518080602001806020018473ffffffffffffffffffffffffffffffffffffffff1673ffffffffffffffffffffffffffffffffffffffff168152602001838103835286818151815260200191508051906020019080838360005b8381101561019d578082015181840152602081019050610182565b50505050905090810190601f1680156101ca5780820380516001836020036101000a031916815260200191505b50838103825285818151815260200191508051906020019080838360005b838110156102035780820151818401526020810190506101e8565b50505050905090810190601f1680156102305780820380516001836020036101000a031916815260200191505b509550505050505060405180910390f35b61026d6004803603602081101561025757600080fd5b8101908080359060200190929190505050610b52565b604051808473ffffffffffffffffffffffffffffffffffffffff1673ffffffffffffffffffffffffffffffffffffffff1681526020018060200180602001838103835285818151815260200191508051906020019080838360005b838110156102e35780820151818401526020810190506102c8565b50505050905090810190601f1680156103105780820380516001836020036101000a031916815260200191505b50838103825284818151815260200191508051906020019080838360005b8381101561034957808201518184015260208101905061032e565b50505050905090810190601f1680156103765780820380516001836020036101000a031916815260200191505b509550505050505060405180910390f35b61038f610dd1565b6040518080602001828103825283818151815260200191508051906020019080838360005b838110156103cf5780820151818401526020810190506103b4565b50505050905090810190601f1680156103fc5780820380516001836020036101000a031916815260200191505b509250505060405180910390f35b61055a6004803603604081101561042057600080fd5b810190808035906020019064010000000081111561043d57600080fd5b82018360208201111561044f57600080fd5b8035906020019184600183028401116401000000008311171561047157600080fd5b91908080601f016020809104026020016040519081016040528093929190818152602001838380828437600081840152601f19601f820116905080830192505050505050509192919290803590602001906401000000008111156104d457600080fd5b8201836020820111156104e657600080fd5b8035906020019184600183028401116401000000008311171561050857600080fd5b91908080601f016020809104026020016040519081016040528093929190818152602001838380828437600081840152601f19601f820116905080830192505050505050509192919290505050610ecd565b6040518080602001806020018473ffffffffffffffffffffffffffffffffffffffff1673ffffffffffffffffffffffffffffffffffffffff168152602001838103835286818151815260200191508051906020019080838360005b838110156105d05780820151818401526020810190506105b5565b50505050905090810190601f1680156105fd5780820380516001836020036101000a031916815260200191505b50838103825285818151815260200191508051906020019080838360005b8381101561063657808201518184015260208101905061061b565b50505050905090810190601f1680156106635780820380516001836020036101000a031916815260200191505b509550505050505060405180910390f35b61067c611280565b6040518082815260200191505060405180910390f35b6106be600480360360208110156106a857600080fd5b8101908080359060200190929190505050611286565b604051808473ffffffffffffffffffffffffffffffffffffffff1673ffffffffffffffffffffffffffffffffffffffff1681526020018060200180602001838103835285818151815260200191508051906020019080838360005b83811015610734578082015181840152602081019050610719565b50505050905090810190601f1680156107615780820380516001836020036101000a031916815260200191505b50838103825284818151815260200191508051906020019080838360005b8381101561079a57808201518184015260208101905061077f565b50505050905090810190601f1680156107c75780820380516001836020036101000a031916815260200191505b509550505050505060405180910390f35b610824600480360360408110156107ee57600080fd5b81019080803573ffffffffffffffffffffffffffffffffffffffff16906020019092919080359060200190929190505050611400565b604051808473ffffffffffffffffffffffffffffffffffffffff1673ffffffffffffffffffffffffffffffffffffffff1681526020018060200180602001838103835285818151815260200191508051906020019080838360005b8381101561089a57808201518184015260208101905061087f565b50505050905090810190601f1680156108c75780820380516001836020036101000a031916815260200191505b50838103825284818151815260200191508051906020019080838360005b838110156109005780820151818401526020810190506108e5565b50505050905090810190601f16801561092d5780820380516001836020036101000a031916815260200191505b509550505050505060405180910390f35b610946611594565b6040518082815260200191505060405180910390f35b6109886004803603602081101561097257600080fd5b81019080803590602001909291905050506115e0565b005b60036020528060005260406000206000915090505481565b606080600060016000858152602001908152602001600020600101600160008681526020019081526020016000206002016001600087815260200190815260200160002060000160009054906101000a900473ffffffffffffffffffffffffffffffffffffffff16828054600181600116156101000203166002900480601f016020809104026020016040519081016040528092919081815260200182805460018160011615610100020316600290048015610a9f5780601f10610a7457610100808354040283529160200191610a9f565b820191906000526020600020905b815481529060010190602001808311610a8257829003601f168201915b50505050509250818054600181600116156101000203166002900480601f016020809104026020016040519081016040528092919081815260200182805460018160011615610100020316600290048015610b3b5780601f10610b1057610100808354040283529160200191610b3b565b820191906000526020600020905b815481529060010190602001808311610b1e57829003601f168201915b505050505091508090509250925092509193909250565b6000606080600260003373ffffffffffffffffffffffffffffffffffffffff1673ffffffffffffffffffffffffffffffffffffffff1681526020019081526020016000208481548110610ba157fe5b906000526020600020906003020160000160009054906101000a900473ffffffffffffffffffffffffffffffffffffffff16600260003373ffffffffffffffffffffffffffffffffffffffff1673ffffffffffffffffffffffffffffffffffffffff1681526020019081526020016000208581548110610c1d57fe5b9060005260206000209060030201600101600260003373ffffffffffffffffffffffffffffffffffffffff1673ffffffffffffffffffffffffffffffffffffffff1681526020019081526020016000208681548110610c7857fe5b9060005260206000209060030201600201829250818054600181600116156101000203166002900480601f016020809104026020016040519081016040528092919081815260200182805460018160011615610100020316600290048015610d215780601f10610cf657610100808354040283529160200191610d21565b820191906000526020600020905b815481529060010190602001808311610d0457829003601f168201915b50505050509150808054600181600116156101000203166002900480601f016020809104026020016040519081016040528092919081815260200182805460018160011615610100020316600290048015610dbd5780601f10610d9257610100808354040283529160200191610dbd565b820191906000526020600020905b815481529060010190602001808311610da057829003601f168201915b505050505090509250925092509193909250565b6060600260003373ffffffffffffffffffffffffffffffffffffffff1673ffffffffffffffffffffffffffffffffffffffff168152602001908152602001600020600181548110610e1e57fe5b90600052602060002090600302016001018054600181600116156101000203166002900480601f016020809104026020016040519081016040528092919081815260200182805460018160011615610100020316600290048015610ec35780601f10610e9857610100808354040283529160200191610ec3565b820191906000526020600020905b815481529060010190602001808311610ea657829003601f168201915b5050505050905090565b6060806000806001600054019050336001600083815260200190815260200160002060000160006101000a81548173ffffffffffffffffffffffffffffffffffffffff021916908373ffffffffffffffffffffffffffffffffffffffff16021790555085600160008381526020019081526020016000206001019080519060200190610f5a929190611940565b5084600160008381526020019081526020016000206002019080519060200190610f85929190611940565b507fddd09ba2bdf0909225fd15c1849448b1d6c0dd7f37663029d382180ab2049b42338787604051808473ffffffffffffffffffffffffffffffffffffffff1673ffffffffffffffffffffffffffffffffffffffff1681526020018060200180602001838103835285818151815260200191508051906020019080838360005b83811015611020578082015181840152602081019050611005565b50505050905090810190601f16801561104d5780820380516001836020036101000a031916815260200191505b50838103825284818151815260200191508051906020019080838360005b8381101561108657808201518184015260208101905061106b565b50505050905090810190601f1680156110b35780820380516001836020036101000a031916815260200191505b509550505050505060405180910390a1600080815480929190600101919050555060016000828152602001908152602001600020600101600160008381526020019081526020016000206002016001600084815260200190815260200160002060000160009054906101000a900473ffffffffffffffffffffffffffffffffffffffff16828054600181600116156101000203166002900480601f0160208091040260200160405190810160405280929190818152602001828054600181600116156101000203166002900480156111cc5780601f106111a1576101008083540402835291602001916111cc565b820191906000526020600020905b8154815290600101906020018083116111af57829003601f168201915b50505050509250818054600181600116156101000203166002900480601f0160208091040260200160405190810160405280929190818152602001828054600181600116156101000203166002900480156112685780601f1061123d57610100808354040283529160200191611268565b820191906000526020600020905b81548152906001019060200180831161124b57829003601f168201915b50505050509150809050935093509350509250925092565b60005481565b60016020528060005260406000206000915090508060000160009054906101000a900473ffffffffffffffffffffffffffffffffffffffff1690806001018054600181600116156101000203166002900480601f0160208091040260200160405190810160405280929190818152602001828054600181600116156101000203166002900480156113585780601f1061132d57610100808354040283529160200191611358565b820191906000526020600020905b81548152906001019060200180831161133b57829003601f168201915b505050505090806002018054600181600116156101000203166002900480601f0160208091040260200160405190810160405280929190818152602001828054600181600116156101000203166002900480156113f65780601f106113cb576101008083540402835291602001916113f6565b820191906000526020600020905b8154815290600101906020018083116113d957829003601f168201915b5050505050905083565b6002602052816000526040600020818154811061141957fe5b9060005260206000209060030201600091509150508060000160009054906101000a900473ffffffffffffffffffffffffffffffffffffffff1690806001018054600181600116156101000203166002900480601f0160208091040260200160405190810160405280929190818152602001828054600181600116156101000203166002900480156114ec5780601f106114c1576101008083540402835291602001916114ec565b820191906000526020600020905b8154815290600101906020018083116114cf57829003601f168201915b505050505090806002018054600181600116156101000203166002900480601f01602080910402602001604051908101604052809291908181526020018280546001816001161561010002031660029004801561158a5780601f1061155f5761010080835404028352916020019161158a565b820191906000526020600020905b81548152906001019060200180831161156d57829003601f168201915b5050505050905083565b600080339050600360008273ffffffffffffffffffffffffffffffffffffffff1673ffffffffffffffffffffffffffffffffffffffff1681526020019081526020016000205491505090565b6001811180156115f257506000548111155b1561193d5760003390506000600360008373ffffffffffffffffffffffffffffffffffffffff1673ffffffffffffffffffffffffffffffffffffffff1681526020019081526020016000205490508080600101915050600260008373ffffffffffffffffffffffffffffffffffffffff1673ffffffffffffffffffffffffffffffffffffffff16815260200190815260200160002060405180606001604052806001600087815260200190815260200160002060000160009054906101000a900473ffffffffffffffffffffffffffffffffffffffff1673ffffffffffffffffffffffffffffffffffffffff168152602001600160008781526020019081526020016000206001018054600181600116156101000203166002900480601f01602080910402602001604051908101604052809291908181526020018280546001816001161561010002031660029004801561178e5780601f106117635761010080835404028352916020019161178e565b820191906000526020600020905b81548152906001019060200180831161177157829003601f168201915b50505050508152602001600160008781526020019081526020016000206002018054600181600116156101000203166002900480601f0160208091040260200160405190810160405280929190818152602001828054600181600116156101000203166002900480156118425780601f1061181757610100808354040283529160200191611842565b820191906000526020600020905b81548152906001019060200180831161182557829003601f168201915b5050505050815250908060018154018082558091505060019003906000526020600020906003020160009091909190915060008201518160000160006101000a81548173ffffffffffffffffffffffffffffffffffffffff021916908373ffffffffffffffffffffffffffffffffffffffff16021790555060208201518160010190805190602001906118d69291906119c0565b5060408201518160020190805190602001906118f39291906119c0565b50505080600360008473ffffffffffffffffffffffffffffffffffffffff1673ffffffffffffffffffffffffffffffffffffffff1681526020019081526020016000208190555050505b50565b828054600181600116156101000203166002900490600052602060002090601f016020900481019282601f1061198157805160ff19168380011785556119af565b828001600101855582156119af579182015b828111156119ae578251825591602001919060010190611993565b5b5090506119bc9190611a40565b5090565b828054600181600116156101000203166002900490600052602060002090601f016020900481019282601f10611a0157805160ff1916838001178555611a2f565b82800160010185558215611a2f579182015b82811115611a2e578251825591602001919060010190611a13565b5b509050611a3c9190611a40565b5090565b611a6291905b80821115611a5e576000816000905550600101611a46565b5090565b9056fea2646970667358221220da59b6909959ced72a4bc387d3ec2e5461fcb8bba859270b0194cf983381723364736f6c63430006040033",
  "source": "pragma solidity >=0.5.0 <0.7.0;\r\n\r\ncontract ClaimContainer {\r\n\r\n    uint256 public claimCount;\r\n    mapping (uint256 => Claim) public claims;\r\n\r\n    mapping (address => Claim[]) public ownedClaims;\r\n    mapping (address => uint256) public numberOfOwned;\r\n\r\n    event ClaimRequested(\r\n        address _sender,\r\n        address _issuer);\r\n    event ClaimAdded(\r\n        address _issuer,\r\n        string _ownerName,\r\n        string _data);\r\n    constructor  () public {\r\n        claimCount = 0;\r\n        addClaim(\"Facebook\",\"Has Instagram\");\r\n        addClaim(\"Facebook\",\"Has Facebook\");\r\n        addClaim(\"Facebook\",\"Has Whatsapp\");\r\n        addClaimToOwned(1);\r\n    }\r\n    function get()\r\n    public\r\n    view\r\n    returns(string memory _ownerName)\r\n    {\r\n        return ownedClaims[msg.sender][1].ownerName;\r\n    }\r\n    struct Claim {\r\n        address payable issuer;\r\n        string ownerName;\r\n        string data;\r\n    }\r\n\r\n    function addClaim(\r\n        string memory _ownerName,\r\n        string memory _data\r\n    )\r\n        public\r\n        returns(\r\n            string memory _ownerNameR,\r\n            string memory _dataR,\r\n            address _issuer\r\n        )\r\n    {\r\n        uint256 claimId = claimCount + 1;\r\n        claims[claimId].issuer = msg.sender;\r\n        claims[claimId].ownerName = _ownerName;\r\n        claims[claimId].data = _data;\r\n\r\n        emit ClaimAdded(\r\n            msg.sender,\r\n            _ownerName,\r\n            _data\r\n        );\r\n\r\n        claimCount++;\r\n        return (\r\n            claims[claimId].ownerName,\r\n            claims[claimId].data,\r\n            claims[claimId].issuer\r\n        );\r\n    }\r\n\r\n    function addClaimToOwned(uint256 claimId) public {\r\n            if(claimId > 1 && claimId <= claimCount){\r\n                address payable self = msg.sender;\r\n                uint256 nr = numberOfOwned[self];\r\n                nr++;\r\n                // ownedClaims[msg.sender][nr].issuer =    claims[claimId].issuer;\r\n                // ownedClaims[msg.sender][nr].ownerName = claims[claimId].ownerName;\r\n                // ownedClaims[msg.sender][nr].data =      claims[claimId].data;\r\n                ownedClaims[self].push(Claim(\r\n                                                claims[claimId].issuer,\r\n                                                claims[claimId].ownerName,\r\n                                                claims[claimId].data)\r\n                                            );\r\n                numberOfOwned[self] = nr;\r\n        }\r\n    }\r\n\r\n    function getClaimOwnedNumber() public view returns(uint256 _nrOwned){\r\n        address payable self = msg.sender;\r\n        return numberOfOwned[self];\r\n    }\r\n\r\n    function getClaimOwned(uint256 _claimOwnedId) //Not working\r\n        public\r\n        view\r\n        returns(\r\n            address _issuer,\r\n            string memory _ownerName,\r\n            string memory _data\r\n        )\r\n    {\r\n        return (\r\n            ownedClaims[msg.sender][_claimOwnedId].issuer,\r\n            ownedClaims[msg.sender][_claimOwnedId].ownerName,\r\n            ownedClaims[msg.sender][_claimOwnedId].data\r\n        );\r\n    }\r\n    function getClaim(uint256 _claimId)\r\n            public\r\n            view\r\n            returns(\r\n                string memory _ownerName,\r\n                string memory _data,\r\n                address _issuer\r\n            )\r\n        {\r\n            return (\r\n                claims[_claimId].ownerName,\r\n                claims[_claimId].data,\r\n                claims[_claimId].issuer\r\n            );\r\n        }\r\n\r\n}",
  "sourcePath": "D:\\Stuffs\\Facultate\\Anul3-Cazac\\blockchain\\react-proj-blockchain\\contracts\\ClaimContainer.sol",
  "compiler": {
    "name": "solc",
    "version": "0.6.4+commit.1dca32f3.Emscripten.clang"
  },
  "schemaVersion": "3.1.0",
  "updatedAt": "2020-04-25T16:20:49.319Z",
  "networkType": "ethereum",
  "devdoc": {
    "methods": {}
  },
  "userdoc": {
    "methods": {}
  }
}