{
  "contractName": "ClaimContainer",
  "abi": [
    {
      "inputs": [],
      "stateMutability": "nonpayable",
      "type": "constructor"
    },
    {
      "anonymous": false,
      "inputs": [
        {
          "indexed": false,
          "internalType": "address",
          "name": "_issuer",
          "type": "address"
        },
        {
          "indexed": false,
          "internalType": "string",
          "name": "_ownerName",
          "type": "string"
        },
        {
          "indexed": false,
          "internalType": "string",
          "name": "_data",
          "type": "string"
        }
      ],
      "name": "ClaimAdded",
      "type": "event"
    },
    {
      "anonymous": false,
      "inputs": [
        {
          "indexed": false,
          "internalType": "address",
          "name": "_sender",
          "type": "address"
        },
        {
          "indexed": false,
          "internalType": "address",
          "name": "_issuer",
          "type": "address"
        }
      ],
      "name": "ClaimRequested",
      "type": "event"
    },
    {
      "inputs": [],
      "name": "claimCount",
      "outputs": [
        {
          "internalType": "uint256",
          "name": "",
          "type": "uint256"
        }
      ],
      "stateMutability": "view",
      "type": "function",
      "constant": true
    },
    {
      "inputs": [
        {
          "internalType": "uint256",
          "name": "",
          "type": "uint256"
        }
      ],
      "name": "claims",
      "outputs": [
        {
          "internalType": "address payable",
          "name": "issuer",
          "type": "address"
        },
        {
          "internalType": "string",
          "name": "ownerName",
          "type": "string"
        },
        {
          "internalType": "string",
          "name": "data",
          "type": "string"
        }
      ],
      "stateMutability": "view",
      "type": "function",
      "constant": true
    },
    {
      "inputs": [
        {
          "internalType": "address",
          "name": "",
          "type": "address"
        }
      ],
      "name": "numberOfOwned",
      "outputs": [
        {
          "internalType": "uint256",
          "name": "",
          "type": "uint256"
        }
      ],
      "stateMutability": "view",
      "type": "function",
      "constant": true
    },
    {
      "inputs": [],
      "name": "test_adding",
      "outputs": [
        {
          "internalType": "address",
          "name": "",
          "type": "address"
        }
      ],
      "stateMutability": "view",
      "type": "function",
      "constant": true
    },
    {
      "inputs": [
        {
          "internalType": "uint256",
          "name": "_index",
          "type": "uint256"
        }
      ],
      "name": "returnTest_ConstrValues",
      "outputs": [
        {
          "internalType": "string",
          "name": "_ownerNameR",
          "type": "string"
        },
        {
          "internalType": "string",
          "name": "_dataR",
          "type": "string"
        },
        {
          "internalType": "address",
          "name": "_issuer",
          "type": "address"
        }
      ],
      "stateMutability": "view",
      "type": "function",
      "constant": true
    },
    {
      "inputs": [],
      "name": "returnTest_ConstrValues",
      "outputs": [
        {
          "internalType": "string",
          "name": "_ownerNameR",
          "type": "string"
        },
        {
          "internalType": "string",
          "name": "_dataR",
          "type": "string"
        },
        {
          "internalType": "address",
          "name": "_issuer",
          "type": "address"
        }
      ],
      "stateMutability": "view",
      "type": "function",
      "constant": true
    },
    {
      "inputs": [],
      "name": "addToTestingAdding",
      "outputs": [],
      "stateMutability": "nonpayable",
      "type": "function"
    },
    {
      "inputs": [],
      "name": "get",
      "outputs": [
        {
          "internalType": "string",
          "name": "_ownerName",
          "type": "string"
        }
      ],
      "stateMutability": "view",
      "type": "function",
      "constant": true
    },
    {
      "inputs": [
        {
          "internalType": "address",
          "name": "owner",
          "type": "address"
        }
      ],
      "name": "getClaimOwnedNumber",
      "outputs": [
        {
          "internalType": "uint256",
          "name": "_nrOwned",
          "type": "uint256"
        }
      ],
      "stateMutability": "view",
      "type": "function",
      "constant": true
    },
    {
      "inputs": [
        {
          "internalType": "address",
          "name": "owner",
          "type": "address"
        }
      ],
      "name": "getClaimOwnedNumberLength",
      "outputs": [
        {
          "internalType": "uint256",
          "name": "_nrOwned",
          "type": "uint256"
        }
      ],
      "stateMutability": "view",
      "type": "function",
      "constant": true
    },
    {
      "inputs": [
        {
          "internalType": "address",
          "name": "test_add",
          "type": "address"
        }
      ],
      "name": "fill_map",
      "outputs": [],
      "stateMutability": "nonpayable",
      "type": "function"
    },
    {
      "inputs": [],
      "name": "fill_map",
      "outputs": [],
      "stateMutability": "nonpayable",
      "type": "function"
    },
    {
      "inputs": [],
      "name": "addTest_values",
      "outputs": [],
      "stateMutability": "nonpayable",
      "type": "function"
    },
    {
      "inputs": [
        {
          "internalType": "address",
          "name": "test_add",
          "type": "address"
        }
      ],
      "name": "addTest_values",
      "outputs": [],
      "stateMutability": "nonpayable",
      "type": "function"
    },
    {
      "inputs": [],
      "name": "addTest_values2",
      "outputs": [],
      "stateMutability": "nonpayable",
      "type": "function"
    },
    {
      "inputs": [
        {
          "internalType": "address",
          "name": "test_add",
          "type": "address"
        }
      ],
      "name": "addTest_values2",
      "outputs": [],
      "stateMutability": "nonpayable",
      "type": "function"
    },
    {
      "inputs": [
        {
          "internalType": "uint256",
          "name": "claimRequestedId",
          "type": "uint256"
        },
        {
          "internalType": "address",
          "name": "owAddress",
          "type": "address"
        }
      ],
      "name": "addOwnedClaim",
      "outputs": [],
      "stateMutability": "nonpayable",
      "type": "function"
    },
    {
      "inputs": [
        {
          "internalType": "uint256",
          "name": "_claimOwnedId",
          "type": "uint256"
        },
        {
          "internalType": "address",
          "name": "addr0",
          "type": "address"
        }
      ],
      "name": "getOwnedClaim",
      "outputs": [
        {
          "internalType": "address",
          "name": "_issuer",
          "type": "address"
        },
        {
          "internalType": "string",
          "name": "_ownerName",
          "type": "string"
        },
        {
          "internalType": "string",
          "name": "_data",
          "type": "string"
        }
      ],
      "stateMutability": "view",
      "type": "function",
      "constant": true
    },
    {
      "inputs": [
        {
          "internalType": "address",
          "name": "test_add",
          "type": "address"
        }
      ],
      "name": "getMsgSender",
      "outputs": [
        {
          "internalType": "address",
          "name": "_me",
          "type": "address"
        }
      ],
      "stateMutability": "pure",
      "type": "function",
      "constant": true
    },
    {
      "inputs": [],
      "name": "getMsgSender",
      "outputs": [
        {
          "internalType": "address",
          "name": "_me",
          "type": "address"
        }
      ],
      "stateMutability": "view",
      "type": "function",
      "constant": true
    },
    {
      "inputs": [
        {
          "internalType": "address",
          "name": "test_add",
          "type": "address"
        }
      ],
      "name": "getOwned0Value",
      "outputs": [
        {
          "internalType": "string",
          "name": "_ownerNameR",
          "type": "string"
        },
        {
          "internalType": "string",
          "name": "_dataR",
          "type": "string"
        },
        {
          "internalType": "address",
          "name": "_issuer",
          "type": "address"
        }
      ],
      "stateMutability": "view",
      "type": "function",
      "constant": true
    },
    {
      "inputs": [
        {
          "internalType": "string",
          "name": "_ownerName",
          "type": "string"
        },
        {
          "internalType": "string",
          "name": "_data",
          "type": "string"
        }
      ],
      "name": "addClaim",
      "outputs": [
        {
          "internalType": "string",
          "name": "_ownerNameR",
          "type": "string"
        },
        {
          "internalType": "string",
          "name": "_dataR",
          "type": "string"
        },
        {
          "internalType": "address",
          "name": "_issuer",
          "type": "address"
        }
      ],
      "stateMutability": "nonpayable",
      "type": "function"
    },
    {
      "inputs": [
        {
          "internalType": "string",
          "name": "_ownerName",
          "type": "string"
        },
        {
          "internalType": "string",
          "name": "_data",
          "type": "string"
        },
        {
          "internalType": "address",
          "name": "issuer",
          "type": "address"
        }
      ],
      "name": "isDuplicateClaim",
      "outputs": [
        {
          "internalType": "bool",
          "name": "isDuplicate",
          "type": "bool"
        }
      ],
      "stateMutability": "view",
      "type": "function",
      "constant": true
    },
    {
      "inputs": [
        {
          "internalType": "uint256",
          "name": "_claimId",
          "type": "uint256"
        }
      ],
      "name": "getClaim",
      "outputs": [
        {
          "internalType": "string",
          "name": "_ownerName",
          "type": "string"
        },
        {
          "internalType": "string",
          "name": "_data",
          "type": "string"
        },
        {
          "internalType": "address",
          "name": "_issuer",
          "type": "address"
        }
      ],
      "stateMutability": "view",
      "type": "function",
      "constant": true
    },
    {
      "inputs": [
        {
          "internalType": "uint256",
          "name": "_claimId",
          "type": "uint256"
        },
        {
          "internalType": "address",
          "name": "_owner",
          "type": "address"
        }
      ],
      "name": "isDuplicateOwnedClaim",
      "outputs": [
        {
          "internalType": "bool",
          "name": "isDuplicate",
          "type": "bool"
        }
      ],
      "stateMutability": "view",
      "type": "function",
      "constant": true
    }
  ],
  "bytecode": "0x60806040523480156200001157600080fd5b5073b2341897b1ce81ac2c7553ce841d7efd2767e9ea600460006101000a81548173ffffffffffffffffffffffffffffffffffffffff021916908373ffffffffffffffffffffffffffffffffffffffff160217905550620000e36040518060400160405280600881526020017f46616365626f6f6b0000000000000000000000000000000000000000000000008152506040518060400160405280600d81526020017f48617320496e7374616772616d000000000000000000000000000000000000008152506200035860201b60201c565b505050620001626040518060400160405280600881526020017f46616365626f6f6b0000000000000000000000000000000000000000000000008152506040518060400160405280600c81526020017f4861732046616365626f6f6b00000000000000000000000000000000000000008152506200035860201b60201c565b505050620001e16040518060400160405280600881526020017f46616365626f6f6b0000000000000000000000000000000000000000000000008152506040518060400160405280600c81526020017f48617320576861747361707000000000000000000000000000000000000000008152506200035860201b60201c565b50505062000352604051806060016040528073b2341897b1ce81ac2c7553ce841d7efd2767e9ea73ffffffffffffffffffffffffffffffffffffffff1681526020016040518060400160405280600981526020017f4d6963726f736f6674000000000000000000000000000000000000000000000081525081526020016040518060400160405280600581526020017f5573657273000000000000000000000000000000000000000000000000000000815250815250604051806060016040528073b2341897b1ce81ac2c7553ce841d7efd2767e9ea73ffffffffffffffffffffffffffffffffffffffff1681526020016040518060400160405280600981526020017f4d6963726f736f6674000000000000000000000000000000000000000000000081525081526020016040518060400160405280600a81526020017f57696e646f7773203130000000000000000000000000000000000000000000008152508152506200071a60201b60201c565b62000ae9565b6060806000806000549050336001600083815260200190815260200160002060000160006101000a81548173ffffffffffffffffffffffffffffffffffffffff021916908373ffffffffffffffffffffffffffffffffffffffff16021790555085600160008381526020019081526020016000206001019080519060200190620003e4929190620009b3565b508460016000838152602001908152602001600020600201908051906020019062000411929190620009b3565b507fddd09ba2bdf0909225fd15c1849448b1d6c0dd7f37663029d382180ab2049b42338787604051808473ffffffffffffffffffffffffffffffffffffffff1673ffffffffffffffffffffffffffffffffffffffff1681526020018060200180602001838103835285818151815260200191508051906020019080838360005b83811015620004ae57808201518184015260208101905062000491565b50505050905090810190601f168015620004dc5780820380516001836020036101000a031916815260200191505b50838103825284818151815260200191508051906020019080838360005b8381101562000517578082015181840152602081019050620004fa565b50505050905090810190601f168015620005455780820380516001836020036101000a031916815260200191505b509550505050505060405180910390a1600080815480929190600101919050555060016000828152602001908152602001600020600101600160008381526020019081526020016000206002016001600084815260200190815260200160002060000160009054906101000a900473ffffffffffffffffffffffffffffffffffffffff16828054600181600116156101000203166002900480601f016020809104026020016040519081016040528092919081815260200182805460018160011615610100020316600290048015620006625780601f10620006365761010080835404028352916020019162000662565b820191906000526020600020905b8154815290600101906020018083116200064457829003601f168201915b50505050509250818054600181600116156101000203166002900480601f016020809104026020016040519081016040528092919081815260200182805460018160011615610100020316600290048015620007025780601f10620006d65761010080835404028352916020019162000702565b820191906000526020600020905b815481529060010190602001808311620006e457829003601f168201915b50505050509150809050935093509350509250925092565b60026000600460009054906101000a900473ffffffffffffffffffffffffffffffffffffffff1673ffffffffffffffffffffffffffffffffffffffff1673ffffffffffffffffffffffffffffffffffffffff16815260200190815260200160002082908060018154018082558091505060019003906000526020600020906003020160009091909190915060008201518160000160006101000a81548173ffffffffffffffffffffffffffffffffffffffff021916908373ffffffffffffffffffffffffffffffffffffffff16021790555060208201518160010190805190602001906200080a92919062000a3a565b5060408201518160020190805190602001906200082992919062000a3a565b50505060026000600460009054906101000a900473ffffffffffffffffffffffffffffffffffffffff1673ffffffffffffffffffffffffffffffffffffffff1673ffffffffffffffffffffffffffffffffffffffff16815260200190815260200160002081908060018154018082558091505060019003906000526020600020906003020160009091909190915060008201518160000160006101000a81548173ffffffffffffffffffffffffffffffffffffffff021916908373ffffffffffffffffffffffffffffffffffffffff16021790555060208201518160010190805190602001906200091c92919062000a3a565b5060408201518160020190805190602001906200093b92919062000a3a565b50505060036000600460009054906101000a900473ffffffffffffffffffffffffffffffffffffffff1673ffffffffffffffffffffffffffffffffffffffff1673ffffffffffffffffffffffffffffffffffffffff168152602001908152602001600020600081548092919060010191905055505050565b828054600181600116156101000203166002900490600052602060002090601f016020900481019282601f10620009f657805160ff191683800117855562000a27565b8280016001018555821562000a27579182015b8281111562000a2657825182559160200191906001019062000a09565b5b50905062000a36919062000ac1565b5090565b828054600181600116156101000203166002900490600052602060002090601f016020900481019282601f1062000a7d57805160ff191683800117855562000aae565b8280016001018555821562000aae579182015b8281111562000aad57825182559160200191906001019062000a90565b5b50905062000abd919062000ac1565b5090565b62000ae691905b8082111562000ae257600081600090555060010162000ac8565b5090565b90565b6145548062000af96000396000f3fe608060405234801561001057600080fd5b50600436106101735760003560e01c80637753a2da116100de5780639521973211610097578063af2fe93c11610071578063af2fe93c14610f1b578063c2ce90ec146110a5578063ce63da60146110fd578063e9cae5e01461114157610173565b80639521973214610c65578063a888c2cd14610c6f578063ab395e7214610db557610173565b80637753a2da146107e95780637a6ce2e11461082d578063802a29e914610877578063815da40a146109d3578063848cb5ac146109dd5780638da4d3c914610c4757610173565b80632931300211610130578063293130021461051e5780634562660b1461056c5780635aef2447146105d257806361e55594146107185780636d4ce63c14610722578063705d2751146107a557610173565b8063028dd150146101785780630babc84b146101d05780630f7aa0fe146103165780631d04e1681461036e57806324905ef5146104905780632867b3ca1461049a575b600080fd5b6101ba6004803603602081101561018e57600080fd5b81019080803573ffffffffffffffffffffffffffffffffffffffff16906020019092919050505061118b565b6040518082815260200191505060405180910390f35b6101fc600480360360208110156101e657600080fd5b81019080803590602001909291905050506111d4565b6040518080602001806020018473ffffffffffffffffffffffffffffffffffffffff1673ffffffffffffffffffffffffffffffffffffffff168152602001838103835286818151815260200191508051906020019080838360005b83811015610272578082015181840152602081019050610257565b50505050905090810190601f16801561029f5780820380516001836020036101000a031916815260200191505b50838103825285818151815260200191508051906020019080838360005b838110156102d85780820151818401526020810190506102bd565b50505050905090810190601f1680156103055780820380516001836020036101000a031916815260200191505b509550505050505060405180910390f35b6103586004803603602081101561032c57600080fd5b81019080803573ffffffffffffffffffffffffffffffffffffffff169060200190929190505050611608565b6040518082815260200191505060405180910390f35b610376611620565b6040518080602001806020018473ffffffffffffffffffffffffffffffffffffffff1673ffffffffffffffffffffffffffffffffffffffff168152602001838103835286818151815260200191508051906020019080838360005b838110156103ec5780820151818401526020810190506103d1565b50505050905090810190601f1680156104195780820380516001836020036101000a031916815260200191505b50838103825285818151815260200191508051906020019080838360005b83811015610452578082015181840152602081019050610437565b50505050905090810190601f16801561047f5780820380516001836020036101000a031916815260200191505b509550505050505060405180910390f35b610498611906565b005b6104dc600480360360208110156104b057600080fd5b81019080803573ffffffffffffffffffffffffffffffffffffffff169060200190929190505050611b09565b604051808273ffffffffffffffffffffffffffffffffffffffff1673ffffffffffffffffffffffffffffffffffffffff16815260200191505060405180910390f35b61056a6004803603604081101561053457600080fd5b8101908080359060200190929190803573ffffffffffffffffffffffffffffffffffffffff169060200190929190505050611b13565b005b6105b86004803603604081101561058257600080fd5b8101908080359060200190929190803573ffffffffffffffffffffffffffffffffffffffff169060200190929190505050611dd7565b604051808215151515815260200191505060405180910390f35b6105fe600480360360208110156105e857600080fd5b810190808035906020019092919050505061243f565b6040518080602001806020018473ffffffffffffffffffffffffffffffffffffffff1673ffffffffffffffffffffffffffffffffffffffff168152602001838103835286818151815260200191508051906020019080838360005b83811015610674578082015181840152602081019050610659565b50505050905090810190601f1680156106a15780820380516001836020036101000a031916815260200191505b50838103825285818151815260200191508051906020019080838360005b838110156106da5780820151818401526020810190506106bf565b50505050905090810190601f1680156107075780820380516001836020036101000a031916815260200191505b509550505050505060405180910390f35b6107206125ef565b005b61072a6127b3565b6040518080602001828103825283818151815260200191508051906020019080838360005b8381101561076a57808201518184015260208101905061074f565b50505050905090810190601f1680156107975780820380516001836020036101000a031916815260200191505b509250505060405180910390f35b6107e7600480360360208110156107bb57600080fd5b81019080803573ffffffffffffffffffffffffffffffffffffffff1690602001909291905050506128af565b005b61082b600480360360208110156107ff57600080fd5b81019080803573ffffffffffffffffffffffffffffffffffffffff169060200190929190505050612ab3565b005b610835612e39565b604051808273ffffffffffffffffffffffffffffffffffffffff1673ffffffffffffffffffffffffffffffffffffffff16815260200191505060405180910390f35b6108b96004803603602081101561088d57600080fd5b81019080803573ffffffffffffffffffffffffffffffffffffffff169060200190929190505050612e41565b6040518080602001806020018473ffffffffffffffffffffffffffffffffffffffff1673ffffffffffffffffffffffffffffffffffffffff168152602001838103835286818151815260200191508051906020019080838360005b8381101561092f578082015181840152602081019050610914565b50505050905090810190601f16801561095c5780820380516001836020036101000a031916815260200191505b50838103825285818151815260200191508051906020019080838360005b8381101561099557808201518184015260208101905061097a565b50505050905090810190601f1680156109c25780820380516001836020036101000a031916815260200191505b509550505050505060405180910390f35b6109db6130c3565b005b610b2d600480360360408110156109f357600080fd5b8101908080359060200190640100000000811115610a1057600080fd5b820183602082011115610a2257600080fd5b80359060200191846001830284011164010000000083111715610a4457600080fd5b91908080601f016020809104026020016040519081016040528093929190818152602001838380828437600081840152601f19601f82011690508083019250505050505050919291929080359060200190640100000000811115610aa757600080fd5b820183602082011115610ab957600080fd5b80359060200191846001830284011164010000000083111715610adb57600080fd5b91908080601f016020809104026020016040519081016040528093929190818152602001838380828437600081840152601f19601f820116905080830192505050505050509192919290505050613265565b6040518080602001806020018473ffffffffffffffffffffffffffffffffffffffff1673ffffffffffffffffffffffffffffffffffffffff168152602001838103835286818151815260200191508051906020019080838360005b83811015610ba3578082015181840152602081019050610b88565b50505050905090810190601f168015610bd05780820380516001836020036101000a031916815260200191505b50838103825285818151815260200191508051906020019080838360005b83811015610c09578082015181840152602081019050610bee565b50505050905090810190601f168015610c365780820380516001836020036101000a031916815260200191505b509550505050505060405180910390f35b610c4f613615565b6040518082815260200191505060405180910390f35b610c6d61361b565b005b610c9b60048036036020811015610c8557600080fd5b81019080803590602001909291905050506139a0565b604051808473ffffffffffffffffffffffffffffffffffffffff1673ffffffffffffffffffffffffffffffffffffffff1681526020018060200180602001838103835285818151815260200191508051906020019080838360005b83811015610d11578082015181840152602081019050610cf6565b50505050905090810190601f168015610d3e5780820380516001836020036101000a031916815260200191505b50838103825284818151815260200191508051906020019080838360005b83811015610d77578082015181840152602081019050610d5c565b50505050905090810190601f168015610da45780820380516001836020036101000a031916815260200191505b509550505050505060405180910390f35b610e0160048036036040811015610dcb57600080fd5b8101908080359060200190929190803573ffffffffffffffffffffffffffffffffffffffff169060200190929190505050613b1a565b604051808473ffffffffffffffffffffffffffffffffffffffff1673ffffffffffffffffffffffffffffffffffffffff1681526020018060200180602001838103835285818151815260200191508051906020019080838360005b83811015610e77578082015181840152602081019050610e5c565b50505050905090810190601f168015610ea45780820380516001836020036101000a031916815260200191505b50838103825284818151815260200191508051906020019080838360005b83811015610edd578082015181840152602081019050610ec2565b50505050905090810190601f168015610f0a5780820380516001836020036101000a031916815260200191505b509550505050505060405180910390f35b61108b60048036036060811015610f3157600080fd5b8101908080359060200190640100000000811115610f4e57600080fd5b820183602082011115610f6057600080fd5b80359060200191846001830284011164010000000083111715610f8257600080fd5b91908080601f016020809104026020016040519081016040528093929190818152602001838380828437600081840152601f19601f82011690508083019250505050505050919291929080359060200190640100000000811115610fe557600080fd5b820183602082011115610ff757600080fd5b8035906020019184600183028401116401000000008311171561101957600080fd5b91908080601f016020809104026020016040519081016040528093929190818152602001838380828437600081840152601f19601f820116905080830192505050505050509192919290803573ffffffffffffffffffffffffffffffffffffffff169060200190929190505050613d99565b604051808215151515815260200191505060405180910390f35b6110e7600480360360208110156110bb57600080fd5b81019080803573ffffffffffffffffffffffffffffffffffffffff1690602001909291905050506141ad565b6040518082815260200191505060405180910390f35b61113f6004803603602081101561111357600080fd5b81019080803573ffffffffffffffffffffffffffffffffffffffff1690602001909291905050506141f9565b005b61114961439c565b604051808273ffffffffffffffffffffffffffffffffffffffff1673ffffffffffffffffffffffffffffffffffffffff16815260200191505060405180910390f35b6000600360008373ffffffffffffffffffffffffffffffffffffffff1673ffffffffffffffffffffffffffffffffffffffff168152602001908152602001600020549050919050565b60608060008084101561124f576040517f08c379a00000000000000000000000000000000000000000000000000000000081526004018080602001828103825260088152602001807f4572726f72203c3000000000000000000000000000000000000000000000000081525060200191505060405180910390fd5b60026000600460009054906101000a900473ffffffffffffffffffffffffffffffffffffffff1673ffffffffffffffffffffffffffffffffffffffff1673ffffffffffffffffffffffffffffffffffffffff168152602001908152602001600020805490508410611328576040517f08c379a00000000000000000000000000000000000000000000000000000000081526004018080602001828103825260138152602001807f4572726f72206f7574206f6620626f756e64730000000000000000000000000081525060200191505060405180910390fd5b60026000600460009054906101000a900473ffffffffffffffffffffffffffffffffffffffff1673ffffffffffffffffffffffffffffffffffffffff1673ffffffffffffffffffffffffffffffffffffffff168152602001908152602001600020848154811061139457fe5b906000526020600020906003020160010160026000600460009054906101000a900473ffffffffffffffffffffffffffffffffffffffff1673ffffffffffffffffffffffffffffffffffffffff1673ffffffffffffffffffffffffffffffffffffffff168152602001908152602001600020858154811061141157fe5b906000526020600020906003020160020160026000600460009054906101000a900473ffffffffffffffffffffffffffffffffffffffff1673ffffffffffffffffffffffffffffffffffffffff1673ffffffffffffffffffffffffffffffffffffffff168152602001908152602001600020868154811061148e57fe5b906000526020600020906003020160000160009054906101000a900473ffffffffffffffffffffffffffffffffffffffff16828054600181600116156101000203166002900480601f0160208091040260200160405190810160405280929190818152602001828054600181600116156101000203166002900480156115555780601f1061152a57610100808354040283529160200191611555565b820191906000526020600020905b81548152906001019060200180831161153857829003601f168201915b50505050509250818054600181600116156101000203166002900480601f0160208091040260200160405190810160405280929190818152602001828054600181600116156101000203166002900480156115f15780601f106115c6576101008083540402835291602001916115f1565b820191906000526020600020905b8154815290600101906020018083116115d457829003601f168201915b505050505091508090509250925092509193909250565b60036020528060005260406000206000915090505481565b606080600060026000600460009054906101000a900473ffffffffffffffffffffffffffffffffffffffff1673ffffffffffffffffffffffffffffffffffffffff1673ffffffffffffffffffffffffffffffffffffffff16815260200190815260200160002060008154811061169257fe5b906000526020600020906003020160010160026000600460009054906101000a900473ffffffffffffffffffffffffffffffffffffffff1673ffffffffffffffffffffffffffffffffffffffff1673ffffffffffffffffffffffffffffffffffffffff16815260200190815260200160002060008154811061171057fe5b906000526020600020906003020160020160026000600460009054906101000a900473ffffffffffffffffffffffffffffffffffffffff1673ffffffffffffffffffffffffffffffffffffffff1673ffffffffffffffffffffffffffffffffffffffff16815260200190815260200160002060008154811061178e57fe5b906000526020600020906003020160000160009054906101000a900473ffffffffffffffffffffffffffffffffffffffff16828054600181600116156101000203166002900480601f0160208091040260200160405190810160405280929190818152602001828054600181600116156101000203166002900480156118555780601f1061182a57610100808354040283529160200191611855565b820191906000526020600020905b81548152906001019060200180831161183857829003601f168201915b50505050509250818054600181600116156101000203166002900480601f0160208091040260200160405190810160405280929190818152602001828054600181600116156101000203166002900480156118f15780601f106118c6576101008083540402835291602001916118f1565b820191906000526020600020905b8154815290600101906020018083116118d457829003601f168201915b50505050509150809050925092509250909192565b6040518060400160405280600781526020017f5465737456616c00000000000000000000000000000000000000000000000000815250600260003373ffffffffffffffffffffffffffffffffffffffff1673ffffffffffffffffffffffffffffffffffffffff16815260200190815260200160002060008154811061198757fe5b906000526020600020906003020160010190805190602001906119ab9291906143c2565b506040518060400160405280600781526020017f5465737456616c00000000000000000000000000000000000000000000000000815250600260003373ffffffffffffffffffffffffffffffffffffffff1673ffffffffffffffffffffffffffffffffffffffff168152602001908152602001600020600081548110611a2d57fe5b90600052602060002090600302016002019080519060200190611a519291906143c2565b50600073b2341897b1ce81ac2c7553ce841d7efd2767e9ea905080600260003373ffffffffffffffffffffffffffffffffffffffff1673ffffffffffffffffffffffffffffffffffffffff168152602001908152602001600020600081548110611ab757fe5b906000526020600020906003020160000160006101000a81548173ffffffffffffffffffffffffffffffffffffffff021916908373ffffffffffffffffffffffffffffffffffffffff16021790555050565b6000819050919050565b60006001600084815260200190815260200160002060000160009054906101000a900473ffffffffffffffffffffffffffffffffffffffff1690506060600160008581526020019081526020016000206001018054600181600116156101000203166002900480601f016020809104026020016040519081016040528092919081815260200182805460018160011615610100020316600290048015611bfa5780601f10611bcf57610100808354040283529160200191611bfa565b820191906000526020600020905b815481529060010190602001808311611bdd57829003601f168201915b505050505090506060600160008681526020019081526020016000206002018054600181600116156101000203166002900480601f016020809104026020016040519081016040528092919081815260200182805460018160011615610100020316600290048015611cad5780601f10611c8257610100808354040283529160200191611cad565b820191906000526020600020905b815481529060010190602001808311611c9057829003601f168201915b50505050509050600260008573ffffffffffffffffffffffffffffffffffffffff1673ffffffffffffffffffffffffffffffffffffffff16815260200190815260200160002060405180606001604052808573ffffffffffffffffffffffffffffffffffffffff16815260200184815260200183815250908060018154018082558091505060019003906000526020600020906003020160009091909190915060008201518160000160006101000a81548173ffffffffffffffffffffffffffffffffffffffff021916908373ffffffffffffffffffffffffffffffffffffffff1602179055506020820151816001019080519060200190611db0929190614442565b506040820151816002019080519060200190611dcd929190614442565b5050505050505050565b6000611de16144c2565b600160008581526020019081526020016000206040518060600160405290816000820160009054906101000a900473ffffffffffffffffffffffffffffffffffffffff1673ffffffffffffffffffffffffffffffffffffffff1673ffffffffffffffffffffffffffffffffffffffff168152602001600182018054600181600116156101000203166002900480601f016020809104026020016040519081016040528092919081815260200182805460018160011615610100020316600290048015611eee5780601f10611ec357610100808354040283529160200191611eee565b820191906000526020600020905b815481529060010190602001808311611ed157829003601f168201915b50505050508152602001600282018054600181600116156101000203166002900480601f016020809104026020016040519081016040528092919081815260200182805460018160011615610100020316600290048015611f905780601f10611f6557610100808354040283529160200191611f90565b820191906000526020600020905b815481529060010190602001808311611f7357829003601f168201915b505050505081525050905060008090505b600260008573ffffffffffffffffffffffffffffffffffffffff1673ffffffffffffffffffffffffffffffffffffffff1681526020019081526020016000208054905081101561243257611ff36144c2565b600260008673ffffffffffffffffffffffffffffffffffffffff1673ffffffffffffffffffffffffffffffffffffffff168152602001908152602001600020828154811061203d57fe5b90600052602060002090600302016040518060600160405290816000820160009054906101000a900473ffffffffffffffffffffffffffffffffffffffff1673ffffffffffffffffffffffffffffffffffffffff1673ffffffffffffffffffffffffffffffffffffffff168152602001600182018054600181600116156101000203166002900480601f0160208091040260200160405190810160405280929190818152602001828054600181600116156101000203166002900480156121455780601f1061211a57610100808354040283529160200191612145565b820191906000526020600020905b81548152906001019060200180831161212857829003601f168201915b50505050508152602001600282018054600181600116156101000203166002900480601f0160208091040260200160405190810160405280929190818152602001828054600181600116156101000203166002900480156121e75780601f106121bc576101008083540402835291602001916121e7565b820191906000526020600020905b8154815290600101906020018083116121ca57829003601f168201915b5050505050815250509050826000015173ffffffffffffffffffffffffffffffffffffffff16816000015173ffffffffffffffffffffffffffffffffffffffff1614801561231e575082602001516040516020018082805190602001908083835b6020831061226b5780518252602082019150602081019050602083039250612248565b6001836020036101000a0380198251168184511680821785525050505050509050019150506040516020818303038152906040528051906020012081602001516040516020018082805190602001908083835b602083106122e157805182526020820191506020810190506020830392506122be565b6001836020036101000a03801982511681845116808217855250505050505090500191505060405160208183030381529060405280519060200120145b8015612413575082604001516040516020018082805190602001908083835b60208310612360578051825260208201915060208101905060208303925061233d565b6001836020036101000a0380198251168184511680821785525050505050509050019150506040516020818303038152906040528051906020012081604001516040516020018082805190602001908083835b602083106123d657805182526020820191506020810190506020830392506123b3565b6001836020036101000a03801982511681845116808217855250505050505090500191505060405160208183030381529060405280519060200120145b156124245760019350505050612439565b508080600101915050611fa1565b5060009150505b92915050565b606080600060016000858152602001908152602001600020600101600160008681526020019081526020016000206002016001600087815260200190815260200160002060000160009054906101000a900473ffffffffffffffffffffffffffffffffffffffff16828054600181600116156101000203166002900480601f01602080910402602001604051908101604052809291908181526020018280546001816001161561010002031660029004801561253c5780601f106125115761010080835404028352916020019161253c565b820191906000526020600020905b81548152906001019060200180831161251f57829003601f168201915b50505050509250818054600181600116156101000203166002900480601f0160208091040260200160405190810160405280929190818152602001828054600181600116156101000203166002900480156125d85780601f106125ad576101008083540402835291602001916125d8565b820191906000526020600020905b8154815290600101906020018083116125bb57829003601f168201915b505050505091508090509250925092509193909250565b600073b2341897b1ce81ac2c7553ce841d7efd2767e9ea905060026000600460009054906101000a900473ffffffffffffffffffffffffffffffffffffffff1673ffffffffffffffffffffffffffffffffffffffff1673ffffffffffffffffffffffffffffffffffffffff16815260200190815260200160002060405180606001604052808373ffffffffffffffffffffffffffffffffffffffff1681526020016040518060400160405280600781526020017f5465737456616c0000000000000000000000000000000000000000000000000081525081526020016040518060400160405280600781526020017f5465737456616c00000000000000000000000000000000000000000000000000815250815250908060018154018082558091505060019003906000526020600020906003020160009091909190915060008201518160000160006101000a81548173ffffffffffffffffffffffffffffffffffffffff021916908373ffffffffffffffffffffffffffffffffffffffff1602179055506020820151816001019080519060200190612790929190614442565b5060408201518160020190805190602001906127ad929190614442565b50505050565b6060600260003373ffffffffffffffffffffffffffffffffffffffff1673ffffffffffffffffffffffffffffffffffffffff16815260200190815260200160002060018154811061280057fe5b90600052602060002090600302016001018054600181600116156101000203166002900480601f0160208091040260200160405190810160405280929190818152602001828054600181600116156101000203166002900480156128a55780601f1061287a576101008083540402835291602001916128a5565b820191906000526020600020905b81548152906001019060200180831161288857829003601f168201915b5050505050905090565b6040518060400160405280600781526020017f5465737456616c00000000000000000000000000000000000000000000000000815250600260008373ffffffffffffffffffffffffffffffffffffffff1673ffffffffffffffffffffffffffffffffffffffff16815260200190815260200160002060008154811061293057fe5b906000526020600020906003020160010190805190602001906129549291906143c2565b506040518060400160405280600781526020017f5465737456616c00000000000000000000000000000000000000000000000000815250600260008373ffffffffffffffffffffffffffffffffffffffff1673ffffffffffffffffffffffffffffffffffffffff1681526020019081526020016000206000815481106129d657fe5b906000526020600020906003020160020190805190602001906129fa9291906143c2565b50600073b2341897b1ce81ac2c7553ce841d7efd2767e9ea905080600260008473ffffffffffffffffffffffffffffffffffffffff1673ffffffffffffffffffffffffffffffffffffffff168152602001908152602001600020600081548110612a6057fe5b906000526020600020906003020160000160006101000a81548173ffffffffffffffffffffffffffffffffffffffff021916908373ffffffffffffffffffffffffffffffffffffffff1602179055505050565b600260008273ffffffffffffffffffffffffffffffffffffffff1673ffffffffffffffffffffffffffffffffffffffff168152602001908152602001600020604051806060016040528073b2341897b1ce81ac2c7553ce841d7efd2767e9ea73ffffffffffffffffffffffffffffffffffffffff1681526020016040518060400160405280600981526020017f4d6963726f736f6674000000000000000000000000000000000000000000000081525081526020016040518060400160405280600581526020017f5465616d73000000000000000000000000000000000000000000000000000000815250815250908060018154018082558091505060019003906000526020600020906003020160009091909190915060008201518160000160006101000a81548173ffffffffffffffffffffffffffffffffffffffff021916908373ffffffffffffffffffffffffffffffffffffffff1602179055506020820151816001019080519060200190612c2d929190614442565b506040820151816002019080519060200190612c4a929190614442565b505050600260008273ffffffffffffffffffffffffffffffffffffffff1673ffffffffffffffffffffffffffffffffffffffff168152602001908152602001600020604051806060016040528073b2341897b1ce81ac2c7553ce841d7efd2767e9ea73ffffffffffffffffffffffffffffffffffffffff1681526020016040518060400160405280600981526020017f4d6963726f736f6674000000000000000000000000000000000000000000000081525081526020016040518060400160405280600b81526020017f57696e646f777320382e31000000000000000000000000000000000000000000815250815250908060018154018082558091505060019003906000526020600020906003020160009091909190915060008201518160000160006101000a81548173ffffffffffffffffffffffffffffffffffffffff021916908373ffffffffffffffffffffffffffffffffffffffff1602179055506020820151816001019080519060200190612dc7929190614442565b506040820151816002019080519060200190612de4929190614442565b505050600360008273ffffffffffffffffffffffffffffffffffffffff1673ffffffffffffffffffffffffffffffffffffffff1681526020019081526020016000206000815480929190600101919050555050565b600033905090565b6060806000600260008573ffffffffffffffffffffffffffffffffffffffff1673ffffffffffffffffffffffffffffffffffffffff168152602001908152602001600020600081548110612e9157fe5b9060005260206000209060030201600101600260008673ffffffffffffffffffffffffffffffffffffffff1673ffffffffffffffffffffffffffffffffffffffff168152602001908152602001600020600081548110612eed57fe5b9060005260206000209060030201600201600260008773ffffffffffffffffffffffffffffffffffffffff1673ffffffffffffffffffffffffffffffffffffffff168152602001908152602001600020600081548110612f4957fe5b906000526020600020906003020160000160009054906101000a900473ffffffffffffffffffffffffffffffffffffffff16828054600181600116156101000203166002900480601f0160208091040260200160405190810160405280929190818152602001828054600181600116156101000203166002900480156130105780601f10612fe557610100808354040283529160200191613010565b820191906000526020600020905b815481529060010190602001808311612ff357829003601f168201915b50505050509250818054600181600116156101000203166002900480601f0160208091040260200160405190810160405280929190818152602001828054600181600116156101000203166002900480156130ac5780601f10613081576101008083540402835291602001916130ac565b820191906000526020600020905b81548152906001019060200180831161308f57829003601f168201915b505050505091508090509250925092509193909250565b600073b2341897b1ce81ac2c7553ce841d7efd2767e9ea9050600260003373ffffffffffffffffffffffffffffffffffffffff1673ffffffffffffffffffffffffffffffffffffffff16815260200190815260200160002060405180606001604052808373ffffffffffffffffffffffffffffffffffffffff1681526020016040518060400160405280600781526020017f5465737456616c0000000000000000000000000000000000000000000000000081525081526020016040518060400160405280600781526020017f5465737456616c00000000000000000000000000000000000000000000000000815250815250908060018154018082558091505060019003906000526020600020906003020160009091909190915060008201518160000160006101000a81548173ffffffffffffffffffffffffffffffffffffffff021916908373ffffffffffffffffffffffffffffffffffffffff1602179055506020820151816001019080519060200190613242929190614442565b50604082015181600201908051906020019061325f929190614442565b50505050565b6060806000806000549050336001600083815260200190815260200160002060000160006101000a81548173ffffffffffffffffffffffffffffffffffffffff021916908373ffffffffffffffffffffffffffffffffffffffff160217905550856001600083815260200190815260200160002060010190805190602001906132ef9291906143c2565b508460016000838152602001908152602001600020600201908051906020019061331a9291906143c2565b507fddd09ba2bdf0909225fd15c1849448b1d6c0dd7f37663029d382180ab2049b42338787604051808473ffffffffffffffffffffffffffffffffffffffff1673ffffffffffffffffffffffffffffffffffffffff1681526020018060200180602001838103835285818151815260200191508051906020019080838360005b838110156133b557808201518184015260208101905061339a565b50505050905090810190601f1680156133e25780820380516001836020036101000a031916815260200191505b50838103825284818151815260200191508051906020019080838360005b8381101561341b578082015181840152602081019050613400565b50505050905090810190601f1680156134485780820380516001836020036101000a031916815260200191505b509550505050505060405180910390a1600080815480929190600101919050555060016000828152602001908152602001600020600101600160008381526020019081526020016000206002016001600084815260200190815260200160002060000160009054906101000a900473ffffffffffffffffffffffffffffffffffffffff16828054600181600116156101000203166002900480601f0160208091040260200160405190810160405280929190818152602001828054600181600116156101000203166002900480156135615780601f1061353657610100808354040283529160200191613561565b820191906000526020600020905b81548152906001019060200180831161354457829003601f168201915b50505050509250818054600181600116156101000203166002900480601f0160208091040260200160405190810160405280929190818152602001828054600181600116156101000203166002900480156135fd5780601f106135d2576101008083540402835291602001916135fd565b820191906000526020600020905b8154815290600101906020018083116135e057829003601f168201915b50505050509150809050935093509350509250925092565b60005481565b600260003373ffffffffffffffffffffffffffffffffffffffff1673ffffffffffffffffffffffffffffffffffffffff168152602001908152602001600020604051806060016040528073b2341897b1ce81ac2c7553ce841d7efd2767e9ea73ffffffffffffffffffffffffffffffffffffffff1681526020016040518060400160405280600981526020017f4d6963726f736f6674000000000000000000000000000000000000000000000081525081526020016040518060400160405280600581526020017f5465616d73000000000000000000000000000000000000000000000000000000815250815250908060018154018082558091505060019003906000526020600020906003020160009091909190915060008201518160000160006101000a81548173ffffffffffffffffffffffffffffffffffffffff021916908373ffffffffffffffffffffffffffffffffffffffff1602179055506020820151816001019080519060200190613795929190614442565b5060408201518160020190805190602001906137b2929190614442565b505050600260003373ffffffffffffffffffffffffffffffffffffffff1673ffffffffffffffffffffffffffffffffffffffff168152602001908152602001600020604051806060016040528073b2341897b1ce81ac2c7553ce841d7efd2767e9ea73ffffffffffffffffffffffffffffffffffffffff1681526020016040518060400160405280600981526020017f4d6963726f736f6674000000000000000000000000000000000000000000000081525081526020016040518060400160405280600b81526020017f57696e646f777320382e31000000000000000000000000000000000000000000815250815250908060018154018082558091505060019003906000526020600020906003020160009091909190915060008201518160000160006101000a81548173ffffffffffffffffffffffffffffffffffffffff021916908373ffffffffffffffffffffffffffffffffffffffff160217905550602082015181600101908051906020019061392f929190614442565b50604082015181600201908051906020019061394c929190614442565b505050600360003373ffffffffffffffffffffffffffffffffffffffff1673ffffffffffffffffffffffffffffffffffffffff16815260200190815260200160002060008154809291906001019190505550565b60016020528060005260406000206000915090508060000160009054906101000a900473ffffffffffffffffffffffffffffffffffffffff1690806001018054600181600116156101000203166002900480601f016020809104026020016040519081016040528092919081815260200182805460018160011615610100020316600290048015613a725780601f10613a4757610100808354040283529160200191613a72565b820191906000526020600020905b815481529060010190602001808311613a5557829003601f168201915b505050505090806002018054600181600116156101000203166002900480601f016020809104026020016040519081016040528092919081815260200182805460018160011615610100020316600290048015613b105780601f10613ae557610100808354040283529160200191613b10565b820191906000526020600020905b815481529060010190602001808311613af357829003601f168201915b5050505050905083565b6000606080600260008573ffffffffffffffffffffffffffffffffffffffff1673ffffffffffffffffffffffffffffffffffffffff1681526020019081526020016000208581548110613b6957fe5b906000526020600020906003020160000160009054906101000a900473ffffffffffffffffffffffffffffffffffffffff16600260008673ffffffffffffffffffffffffffffffffffffffff1673ffffffffffffffffffffffffffffffffffffffff1681526020019081526020016000208681548110613be557fe5b9060005260206000209060030201600101600260008773ffffffffffffffffffffffffffffffffffffffff1673ffffffffffffffffffffffffffffffffffffffff1681526020019081526020016000208781548110613c4057fe5b9060005260206000209060030201600201829250818054600181600116156101000203166002900480601f016020809104026020016040519081016040528092919081815260200182805460018160011615610100020316600290048015613ce95780601f10613cbe57610100808354040283529160200191613ce9565b820191906000526020600020905b815481529060010190602001808311613ccc57829003601f168201915b50505050509150808054600181600116156101000203166002900480601f016020809104026020016040519081016040528092919081815260200182805460018160011615610100020316600290048015613d855780601f10613d5a57610100808354040283529160200191613d85565b820191906000526020600020905b815481529060010190602001808311613d6857829003601f168201915b505050505090509250925092509250925092565b600080600090505b6000548110156141a057613db36144c2565b600160008381526020019081526020016000206040518060600160405290816000820160009054906101000a900473ffffffffffffffffffffffffffffffffffffffff1673ffffffffffffffffffffffffffffffffffffffff1673ffffffffffffffffffffffffffffffffffffffff168152602001600182018054600181600116156101000203166002900480601f016020809104026020016040519081016040528092919081815260200182805460018160011615610100020316600290048015613ec05780601f10613e9557610100808354040283529160200191613ec0565b820191906000526020600020905b815481529060010190602001808311613ea357829003601f168201915b50505050508152602001600282018054600181600116156101000203166002900480601f016020809104026020016040519081016040528092919081815260200182805460018160011615610100020316600290048015613f625780601f10613f3757610100808354040283529160200191613f62565b820191906000526020600020905b815481529060010190602001808311613f4557829003601f168201915b5050505050815250509050806000015173ffffffffffffffffffffffffffffffffffffffff168473ffffffffffffffffffffffffffffffffffffffff16148015614091575080602001516040516020018082805190602001908083835b60208310613fe25780518252602082019150602081019050602083039250613fbf565b6001836020036101000a03801982511681845116808217855250505050505090500191505060405160208183030381529060405280519060200120866040516020018082805190602001908083835b602083106140545780518252602082019150602081019050602083039250614031565b6001836020036101000a03801982511681845116808217855250505050505090500191505060405160208183030381529060405280519060200120145b8015614182575080604001516040516020018082805190602001908083835b602083106140d357805182526020820191506020810190506020830392506140b0565b6001836020036101000a03801982511681845116808217855250505050505090500191505060405160208183030381529060405280519060200120856040516020018082805190602001908083835b602083106141455780518252602082019150602081019050602083039250614122565b6001836020036101000a03801982511681845116808217855250505050505090500191505060405160208183030381529060405280519060200120145b15614192576001925050506141a6565b508080600101915050613da1565b50600090505b9392505050565b6000600260008373ffffffffffffffffffffffffffffffffffffffff1673ffffffffffffffffffffffffffffffffffffffff168152602001908152602001600020805490509050919050565b600073b2341897b1ce81ac2c7553ce841d7efd2767e9ea9050600260008373ffffffffffffffffffffffffffffffffffffffff1673ffffffffffffffffffffffffffffffffffffffff16815260200190815260200160002060405180606001604052808373ffffffffffffffffffffffffffffffffffffffff1681526020016040518060400160405280600781526020017f5465737456616c0000000000000000000000000000000000000000000000000081525081526020016040518060400160405280600781526020017f5465737456616c00000000000000000000000000000000000000000000000000815250815250908060018154018082558091505060019003906000526020600020906003020160009091909190915060008201518160000160006101000a81548173ffffffffffffffffffffffffffffffffffffffff021916908373ffffffffffffffffffffffffffffffffffffffff1602179055506020820151816001019080519060200190614378929190614442565b506040820151816002019080519060200190614395929190614442565b5050505050565b600460009054906101000a900473ffffffffffffffffffffffffffffffffffffffff1681565b828054600181600116156101000203166002900490600052602060002090601f016020900481019282601f1061440357805160ff1916838001178555614431565b82800160010185558215614431579182015b82811115614430578251825591602001919060010190614415565b5b50905061443e91906144f9565b5090565b828054600181600116156101000203166002900490600052602060002090601f016020900481019282601f1061448357805160ff19168380011785556144b1565b828001600101855582156144b1579182015b828111156144b0578251825591602001919060010190614495565b5b5090506144be91906144f9565b5090565b6040518060600160405280600073ffffffffffffffffffffffffffffffffffffffff16815260200160608152602001606081525090565b61451b91905b808211156145175760008160009055506001016144ff565b5090565b9056fea26469706673582212207add826158c126c2ae21ee7635baf1c844792ca44cac1d4cafd55a825f12fea464736f6c63430006040033",
  "source": "pragma solidity >=0.5.0 <0.7.0;\r\n\r\ncontract ClaimContainer {\r\n\r\n    uint256 public claimCount;\r\n    mapping (uint256 => Claim) public claims;\r\n\r\n    mapping (address => Claim[]) ownedClaims;\r\n    mapping (address => uint256) public numberOfOwned;\r\n    event ClaimRequested(address _sender,address _issuer);\r\n    event ClaimAdded(address _issuer, string _ownerName, string _data);\r\n    address public test_adding;\r\n    constructor () public {\r\n        test_adding = 0xb2341897B1CE81aC2C7553cE841d7efd2767e9EA;  //msg.sender\r\n        addClaim(\"Facebook\",\"Has Instagram\");\r\n        addClaim(\"Facebook\",\"Has Facebook\");\r\n        addClaim(\"Facebook\",\"Has Whatsapp\");\r\n        // addClaimToOwned(1);\r\n        fill_mapHardCoded(\r\n            Claim({issuer:0xb2341897B1CE81aC2C7553cE841d7efd2767e9EA,ownerName: \"Microsoft\",data:\"Users\" }),\r\n            Claim({issuer:0xb2341897B1CE81aC2C7553cE841d7efd2767e9EA,ownerName: \"Microsoft\",data:\"Windows 10\" })\r\n        );\r\n    }\r\n// --------------------------------------------------- TESTING HARD CODED\r\n    function fill_mapHardCoded(Claim memory struct1,Claim memory struct2) internal  {\r\n        ownedClaims[test_adding].push(struct1);\r\n        ownedClaims[test_adding].push(struct2);\r\n        numberOfOwned[test_adding] ++;\r\n  }\r\n    function returnTest_ConstrValues(uint256 _index) public view  //working\r\n        returns( string memory _ownerNameR, string memory _dataR, address _issuer) {\r\n            require(_index >= 0,\"Error <0\");\r\n            require(_index < ownedClaims[test_adding].length,\"Error out of bounds\");\r\n            return (\r\n                ownedClaims[test_adding][_index].ownerName,\r\n                ownedClaims[test_adding][_index].data,\r\n                ownedClaims[test_adding][_index].issuer\r\n            );\r\n        }\r\n    function returnTest_ConstrValues() public view  // working\r\n        returns( string memory _ownerNameR, string memory _dataR, address _issuer) {\r\n            return (\r\n                ownedClaims[test_adding][0].ownerName,\r\n                ownedClaims[test_adding][0].data,\r\n                ownedClaims[test_adding][0].issuer\r\n            );\r\n    }\r\n    function addToTestingAdding() public { // working\r\n        address payable _is = 0xb2341897B1CE81aC2C7553cE841d7efd2767e9EA;\r\n        ownedClaims[test_adding].push(Claim({\r\n            issuer: _is,\r\n            ownerName: \"TestVal\",\r\n            data: \"TestVal\"})\r\n             );\r\n    }\r\n// --------------------------------------------------- TESTING WITH ADDRESS MSG.SENDER THIS DOESNT WORK!!!\r\n    function fill_map() public  {\r\n        ownedClaims[msg.sender].push(Claim({issuer:0xb2341897B1CE81aC2C7553cE841d7efd2767e9EA,ownerName: \"Microsoft\",data:\"Teams\" }));\r\n        ownedClaims[msg.sender].push(Claim({issuer:0xb2341897B1CE81aC2C7553cE841d7efd2767e9EA,ownerName: \"Microsoft\",data:\"Windows 8.1\" }));\r\n        numberOfOwned[msg.sender] ++;\r\n  }\r\n    function addTest_values() public{  //not working\r\n        ownedClaims[msg.sender][0].ownerName = \"TestVal\";\r\n        ownedClaims[msg.sender][0].data = \"TestVal\";\r\n        address payable _is = 0xb2341897B1CE81aC2C7553cE841d7efd2767e9EA;\r\n        ownedClaims[msg.sender][0].issuer = _is;\r\n    }\r\n     function addTest_values2() public{\r\n        address payable _is = 0xb2341897B1CE81aC2C7553cE841d7efd2767e9EA;\r\n        ownedClaims[msg.sender].push(Claim({\r\n            issuer: _is,\r\n            ownerName: \"TestVal\",\r\n            data: \"TestVal\"})\r\n             );\r\n    }\r\n\r\n    function getMsgSender() public view returns (address _me){\r\n        return msg.sender;\r\n    }\r\n\r\n    function get()  public view returns(string memory _ownerName) {\r\n        return ownedClaims[msg.sender][1].ownerName;\r\n    }\r\n\r\n// --------------------------------------------------- TESTING WITH ADDRESS GIVEN ADDRESS\r\n    // returns how many claim the owner has\r\n    function getClaimOwnedNumber(address owner) public view returns(uint256 _nrOwned){\r\n        return numberOfOwned[owner];\r\n    }\r\n     function getClaimOwnedNumberLength(address owner) public view returns(uint256 _nrOwned){\r\n        return ownedClaims[owner].length;\r\n    }\r\n    function fill_map(address test_add) public  {\r\n        ownedClaims[test_add].push(Claim({issuer:0xb2341897B1CE81aC2C7553cE841d7efd2767e9EA,ownerName: \"Microsoft\",data:\"Teams\" }));\r\n        ownedClaims[test_add].push(Claim({issuer:0xb2341897B1CE81aC2C7553cE841d7efd2767e9EA,ownerName: \"Microsoft\",data:\"Windows 8.1\" }));\r\n        numberOfOwned[test_add] ++;\r\n  }\r\n    function addTest_values(address test_add) public{  //not working\r\n        ownedClaims[test_add][0].ownerName = \"TestVal\";\r\n        ownedClaims[test_add][0].data = \"TestVal\";\r\n        address payable _is = 0xb2341897B1CE81aC2C7553cE841d7efd2767e9EA;\r\n        ownedClaims[test_add][0].issuer = _is;\r\n    }\r\n     function addTest_values2(address test_add) public{\r\n        address payable _is = 0xb2341897B1CE81aC2C7553cE841d7efd2767e9EA;\r\n        ownedClaims[test_add].push(Claim({\r\n            issuer: _is,\r\n            ownerName: \"TestVal\",\r\n            data: \"TestVal\"})\r\n             );\r\n    }\r\n    function addOwnedClaim(uint256 claimRequestedId, address owAddress) public{\r\n        address payable _is = claims[claimRequestedId].issuer;\r\n        string memory _owner = claims[claimRequestedId].ownerName;\r\n        string memory _data = claims[claimRequestedId].data;\r\n        ownedClaims[owAddress].push(Claim({\r\n            issuer: _is,\r\n            ownerName: _owner,\r\n            data: _data})\r\n             );\r\n    }\r\n\r\n  function getOwnedClaim(uint256 _claimOwnedId,address addr0) //Not working\r\n        public\r\n        view\r\n        returns(\r\n            address _issuer,\r\n            string memory _ownerName,\r\n            string memory _data\r\n        )\r\n    {\r\n        return (\r\n            ownedClaims[addr0][_claimOwnedId].issuer,\r\n            ownedClaims[addr0][_claimOwnedId].ownerName,\r\n            ownedClaims[addr0][_claimOwnedId].data\r\n        );\r\n    }\r\n    function getMsgSender(address test_add) public pure returns (address _me){\r\n        return test_add;\r\n    }\r\n     function getOwned0Value(address test_add) public view\r\n        returns( string memory _ownerNameR, string memory _dataR, address _issuer) {\r\n            return (\r\n                ownedClaims[test_add][0].ownerName,\r\n                ownedClaims[test_add][0].data,\r\n                ownedClaims[test_add][0].issuer\r\n            );\r\n        }\r\n\r\n\r\n    struct Claim {\r\n        address payable issuer;\r\n        string ownerName;\r\n        string data;\r\n    }\r\n     function addClaim(string memory _ownerName, string memory _data) public\r\n        returns( string memory _ownerNameR, string memory _dataR, address _issuer) {\r\n        uint256 claimId = claimCount;\r\n        claims[claimId].issuer = msg.sender;\r\n        claims[claimId].ownerName = _ownerName;\r\n        claims[claimId].data = _data;\r\n\r\n        emit ClaimAdded(\r\n            msg.sender,\r\n            _ownerName,\r\n            _data\r\n        );\r\n        claimCount++;\r\n        return (\r\n            claims[claimId].ownerName,\r\n            claims[claimId].data,\r\n            claims[claimId].issuer\r\n        );\r\n    }\r\n    function isDuplicateClaim(string memory _ownerName, string memory _data, address issuer) public view returns( bool isDuplicate ){\r\n        for(uint256 i = 0; i < claimCount; i++){\r\n            Claim memory claim = claims[i];\r\n            if( issuer == claim.issuer &&\r\n                keccak256(abi.encodePacked(_ownerName)) == keccak256(abi.encodePacked(claim.ownerName)) &&\r\n                keccak256(abi.encodePacked(_data)) == keccak256(abi.encodePacked(claim.data))){\r\n                return true;\r\n            }\r\n        }\r\n        return false;\r\n    }\r\n    function getClaim(uint256 _claimId)\r\n            public\r\n            view\r\n            returns(\r\n                string memory _ownerName,\r\n                string memory _data,\r\n                address _issuer\r\n            )\r\n        {\r\n            return (\r\n                claims[_claimId].ownerName,\r\n                claims[_claimId].data,\r\n                claims[_claimId].issuer\r\n            );\r\n        }\r\n\r\n    function isDuplicateOwnedClaim(uint256 _claimId, address _owner) public view returns( bool isDuplicate ){\r\n        Claim memory claim = claims[_claimId];\r\n        for(uint256 i = 0; i < ownedClaims[_owner].length; i++){\r\n            Claim memory oClaim = ownedClaims[_owner][i];\r\n            if( oClaim.issuer == claim.issuer &&\r\n                keccak256(abi.encodePacked(oClaim.ownerName)) == keccak256(abi.encodePacked(claim.ownerName)) &&\r\n                keccak256(abi.encodePacked(oClaim.data)) == keccak256(abi.encodePacked(claim.data))){\r\n                return true;\r\n            }\r\n        }\r\n        return false;\r\n    }\r\n}",
  "sourcePath": "D:\\Stuffs\\Facultate\\Anul3-Cazac\\blockchain\\react-proj-blockchain\\contracts\\ClaimContainer.sol",
  "compiler": {
    "name": "solc",
    "version": "0.6.4+commit.1dca32f3.Emscripten.clang"
  },
  "schemaVersion": "3.1.0",
  "updatedAt": "2020-04-28T12:54:53.291Z",
  "networkType": "ethereum",
  "devdoc": {
    "methods": {}
  },
  "userdoc": {
    "methods": {}
  }
}