{
  "contractName": "ClaimContainer",
  "abi": [
    {
      "inputs": [],
      "stateMutability": "nonpayable",
      "type": "constructor"
    },
    {
      "anonymous": false,
      "inputs": [
        {
          "indexed": false,
          "internalType": "address",
          "name": "_issuer",
          "type": "address"
        },
        {
          "indexed": false,
          "internalType": "string",
          "name": "_ownerName",
          "type": "string"
        },
        {
          "indexed": false,
          "internalType": "string",
          "name": "_data",
          "type": "string"
        }
      ],
      "name": "ClaimAdded",
      "type": "event"
    },
    {
      "anonymous": false,
      "inputs": [
        {
          "indexed": false,
          "internalType": "address",
          "name": "_sender",
          "type": "address"
        },
        {
          "indexed": false,
          "internalType": "address",
          "name": "_issuer",
          "type": "address"
        }
      ],
      "name": "ClaimRequested",
      "type": "event"
    },
    {
      "inputs": [],
      "name": "claimCount",
      "outputs": [
        {
          "internalType": "uint256",
          "name": "",
          "type": "uint256"
        }
      ],
      "stateMutability": "view",
      "type": "function",
      "constant": true
    },
    {
      "inputs": [
        {
          "internalType": "uint256",
          "name": "",
          "type": "uint256"
        }
      ],
      "name": "claims",
      "outputs": [
        {
          "internalType": "address payable",
          "name": "issuer",
          "type": "address"
        },
        {
          "internalType": "string",
          "name": "ownerName",
          "type": "string"
        },
        {
          "internalType": "string",
          "name": "data",
          "type": "string"
        }
      ],
      "stateMutability": "view",
      "type": "function",
      "constant": true
    },
    {
      "inputs": [
        {
          "internalType": "address",
          "name": "",
          "type": "address"
        }
      ],
      "name": "numberOfOwned",
      "outputs": [
        {
          "internalType": "uint256",
          "name": "",
          "type": "uint256"
        }
      ],
      "stateMutability": "view",
      "type": "function",
      "constant": true
    },
    {
      "inputs": [
        {
          "internalType": "address",
          "name": "",
          "type": "address"
        }
      ],
      "name": "testOwned",
      "outputs": [
        {
          "internalType": "uint256",
          "name": "nrClaims",
          "type": "uint256"
        }
      ],
      "stateMutability": "view",
      "type": "function",
      "constant": true
    },
    {
      "inputs": [],
      "name": "test_adding",
      "outputs": [
        {
          "internalType": "address",
          "name": "",
          "type": "address"
        }
      ],
      "stateMutability": "view",
      "type": "function",
      "constant": true
    },
    {
      "inputs": [
        {
          "internalType": "uint256",
          "name": "_index",
          "type": "uint256"
        }
      ],
      "name": "returnTest_ConstrValues",
      "outputs": [
        {
          "internalType": "string",
          "name": "_ownerNameR",
          "type": "string"
        },
        {
          "internalType": "string",
          "name": "_dataR",
          "type": "string"
        },
        {
          "internalType": "address",
          "name": "_issuer",
          "type": "address"
        }
      ],
      "stateMutability": "view",
      "type": "function",
      "constant": true
    },
    {
      "inputs": [],
      "name": "returnTest_ConstrValues",
      "outputs": [
        {
          "internalType": "string",
          "name": "_ownerNameR",
          "type": "string"
        },
        {
          "internalType": "string",
          "name": "_dataR",
          "type": "string"
        },
        {
          "internalType": "address",
          "name": "_issuer",
          "type": "address"
        }
      ],
      "stateMutability": "view",
      "type": "function",
      "constant": true
    },
    {
      "inputs": [],
      "name": "addToTestingAdding",
      "outputs": [],
      "stateMutability": "nonpayable",
      "type": "function"
    },
    {
      "inputs": [],
      "name": "addTest_values",
      "outputs": [],
      "stateMutability": "nonpayable",
      "type": "function"
    },
    {
      "inputs": [
        {
          "internalType": "address",
          "name": "test_add",
          "type": "address"
        }
      ],
      "name": "addTest_values",
      "outputs": [],
      "stateMutability": "nonpayable",
      "type": "function"
    },
    {
      "inputs": [],
      "name": "addTest_values2",
      "outputs": [],
      "stateMutability": "nonpayable",
      "type": "function"
    },
    {
      "inputs": [
        {
          "internalType": "address",
          "name": "test_add",
          "type": "address"
        }
      ],
      "name": "addTest_values2",
      "outputs": [],
      "stateMutability": "nonpayable",
      "type": "function"
    },
    {
      "inputs": [
        {
          "internalType": "address",
          "name": "test_add",
          "type": "address"
        }
      ],
      "name": "getMsgSender",
      "outputs": [
        {
          "internalType": "address",
          "name": "_me",
          "type": "address"
        }
      ],
      "stateMutability": "pure",
      "type": "function",
      "constant": true
    },
    {
      "inputs": [],
      "name": "getMsgSender",
      "outputs": [
        {
          "internalType": "address",
          "name": "_me",
          "type": "address"
        }
      ],
      "stateMutability": "view",
      "type": "function",
      "constant": true
    },
    {
      "inputs": [],
      "name": "returnTestMsgSender",
      "outputs": [
        {
          "internalType": "string",
          "name": "_ownerNameR",
          "type": "string"
        },
        {
          "internalType": "string",
          "name": "_dataR",
          "type": "string"
        },
        {
          "internalType": "address",
          "name": "_issuer",
          "type": "address"
        }
      ],
      "stateMutability": "view",
      "type": "function",
      "constant": true
    },
    {
      "inputs": [
        {
          "internalType": "address",
          "name": "test_add",
          "type": "address"
        }
      ],
      "name": "returnTestMsgSender",
      "outputs": [
        {
          "internalType": "string",
          "name": "_ownerNameR",
          "type": "string"
        },
        {
          "internalType": "string",
          "name": "_dataR",
          "type": "string"
        },
        {
          "internalType": "address",
          "name": "_issuer",
          "type": "address"
        }
      ],
      "stateMutability": "view",
      "type": "function",
      "constant": true
    },
    {
      "inputs": [],
      "name": "get",
      "outputs": [
        {
          "internalType": "string",
          "name": "_ownerName",
          "type": "string"
        }
      ],
      "stateMutability": "view",
      "type": "function",
      "constant": true
    },
    {
      "inputs": [
        {
          "internalType": "address",
          "name": "test_add",
          "type": "address"
        }
      ],
      "name": "get",
      "outputs": [
        {
          "internalType": "string",
          "name": "_ownerName",
          "type": "string"
        }
      ],
      "stateMutability": "view",
      "type": "function",
      "constant": true
    },
    {
      "inputs": [
        {
          "internalType": "string",
          "name": "_ownerName",
          "type": "string"
        },
        {
          "internalType": "string",
          "name": "_data",
          "type": "string"
        }
      ],
      "name": "addClaim",
      "outputs": [
        {
          "internalType": "string",
          "name": "_ownerNameR",
          "type": "string"
        },
        {
          "internalType": "string",
          "name": "_dataR",
          "type": "string"
        },
        {
          "internalType": "address",
          "name": "_issuer",
          "type": "address"
        }
      ],
      "stateMutability": "nonpayable",
      "type": "function"
    },
    {
      "inputs": [],
      "name": "getClaimOwnedNumber",
      "outputs": [
        {
          "internalType": "uint256",
          "name": "_nrOwned",
          "type": "uint256"
        }
      ],
      "stateMutability": "view",
      "type": "function",
      "constant": true
    },
    {
      "inputs": [
        {
          "internalType": "uint256",
          "name": "_claimOwnedId",
          "type": "uint256"
        },
        {
          "internalType": "address",
          "name": "addr0",
          "type": "address"
        }
      ],
      "name": "getClaimOwnedWithAddress",
      "outputs": [
        {
          "internalType": "address",
          "name": "_issuer",
          "type": "address"
        },
        {
          "internalType": "string",
          "name": "_ownerName",
          "type": "string"
        },
        {
          "internalType": "string",
          "name": "_data",
          "type": "string"
        }
      ],
      "stateMutability": "view",
      "type": "function",
      "constant": true
    },
    {
      "inputs": [
        {
          "internalType": "uint256",
          "name": "_claimOwnedId",
          "type": "uint256"
        }
      ],
      "name": "getClaimOwned",
      "outputs": [
        {
          "internalType": "address",
          "name": "_issuer",
          "type": "address"
        },
        {
          "internalType": "string",
          "name": "_ownerName",
          "type": "string"
        },
        {
          "internalType": "string",
          "name": "_data",
          "type": "string"
        }
      ],
      "stateMutability": "view",
      "type": "function",
      "constant": true
    },
    {
      "inputs": [
        {
          "internalType": "uint256",
          "name": "_claimId",
          "type": "uint256"
        }
      ],
      "name": "getClaim",
      "outputs": [
        {
          "internalType": "string",
          "name": "_ownerName",
          "type": "string"
        },
        {
          "internalType": "string",
          "name": "_data",
          "type": "string"
        },
        {
          "internalType": "address",
          "name": "_issuer",
          "type": "address"
        }
      ],
      "stateMutability": "view",
      "type": "function",
      "constant": true
    }
  ],
  "bytecode": "0x60806040523480156200001157600080fd5b5073b2341897b1ce81ac2c7553ce841d7efd2767e9ea600560006101000a81548173ffffffffffffffffffffffffffffffffffffffff021916908373ffffffffffffffffffffffffffffffffffffffff160217905550620000e36040518060400160405280600881526020017f46616365626f6f6b0000000000000000000000000000000000000000000000008152506040518060400160405280600d81526020017f48617320496e7374616772616d000000000000000000000000000000000000008152506200035860201b60201c565b505050620001626040518060400160405280600881526020017f46616365626f6f6b0000000000000000000000000000000000000000000000008152506040518060400160405280600c81526020017f4861732046616365626f6f6b00000000000000000000000000000000000000008152506200035860201b60201c565b505050620001e16040518060400160405280600881526020017f46616365626f6f6b0000000000000000000000000000000000000000000000008152506040518060400160405280600c81526020017f48617320576861747361707000000000000000000000000000000000000000008152506200035860201b60201c565b50505062000352604051806060016040528073b2341897b1ce81ac2c7553ce841d7efd2767e9ea73ffffffffffffffffffffffffffffffffffffffff1681526020016040518060400160405280600981526020017f4d6963726f736f6674000000000000000000000000000000000000000000000081525081526020016040518060400160405280600581526020017f5573657273000000000000000000000000000000000000000000000000000000815250815250604051806060016040528073b2341897b1ce81ac2c7553ce841d7efd2767e9ea73ffffffffffffffffffffffffffffffffffffffff1681526020016040518060400160405280600981526020017f4d6963726f736f6674000000000000000000000000000000000000000000000081525081526020016040518060400160405280600a81526020017f57696e646f7773203130000000000000000000000000000000000000000000008152508152506200071d60201b60201c565b62000aec565b6060806000806001600054019050336001600083815260200190815260200160002060000160006101000a81548173ffffffffffffffffffffffffffffffffffffffff021916908373ffffffffffffffffffffffffffffffffffffffff16021790555085600160008381526020019081526020016000206001019080519060200190620003e7929190620009b6565b508460016000838152602001908152602001600020600201908051906020019062000414929190620009b6565b507fddd09ba2bdf0909225fd15c1849448b1d6c0dd7f37663029d382180ab2049b42338787604051808473ffffffffffffffffffffffffffffffffffffffff1673ffffffffffffffffffffffffffffffffffffffff1681526020018060200180602001838103835285818151815260200191508051906020019080838360005b83811015620004b157808201518184015260208101905062000494565b50505050905090810190601f168015620004df5780820380516001836020036101000a031916815260200191505b50838103825284818151815260200191508051906020019080838360005b838110156200051a578082015181840152602081019050620004fd565b50505050905090810190601f168015620005485780820380516001836020036101000a031916815260200191505b509550505050505060405180910390a1600080815480929190600101919050555060016000828152602001908152602001600020600101600160008381526020019081526020016000206002016001600084815260200190815260200160002060000160009054906101000a900473ffffffffffffffffffffffffffffffffffffffff16828054600181600116156101000203166002900480601f016020809104026020016040519081016040528092919081815260200182805460018160011615610100020316600290048015620006655780601f10620006395761010080835404028352916020019162000665565b820191906000526020600020905b8154815290600101906020018083116200064757829003601f168201915b50505050509250818054600181600116156101000203166002900480601f016020809104026020016040519081016040528092919081815260200182805460018160011615610100020316600290048015620007055780601f10620006d95761010080835404028352916020019162000705565b820191906000526020600020905b815481529060010190602001808311620006e757829003601f168201915b50505050509150809050935093509350509250925092565b60026000600560009054906101000a900473ffffffffffffffffffffffffffffffffffffffff1673ffffffffffffffffffffffffffffffffffffffff1673ffffffffffffffffffffffffffffffffffffffff16815260200190815260200160002082908060018154018082558091505060019003906000526020600020906003020160009091909190915060008201518160000160006101000a81548173ffffffffffffffffffffffffffffffffffffffff021916908373ffffffffffffffffffffffffffffffffffffffff16021790555060208201518160010190805190602001906200080d92919062000a3d565b5060408201518160020190805190602001906200082c92919062000a3d565b50505060026000600560009054906101000a900473ffffffffffffffffffffffffffffffffffffffff1673ffffffffffffffffffffffffffffffffffffffff1673ffffffffffffffffffffffffffffffffffffffff16815260200190815260200160002081908060018154018082558091505060019003906000526020600020906003020160009091909190915060008201518160000160006101000a81548173ffffffffffffffffffffffffffffffffffffffff021916908373ffffffffffffffffffffffffffffffffffffffff16021790555060208201518160010190805190602001906200091f92919062000a3d565b5060408201518160020190805190602001906200093e92919062000a3d565b50505060036000600560009054906101000a900473ffffffffffffffffffffffffffffffffffffffff1673ffffffffffffffffffffffffffffffffffffffff1673ffffffffffffffffffffffffffffffffffffffff168152602001908152602001600020600081548092919060010191905055505050565b828054600181600116156101000203166002900490600052602060002090601f016020900481019282601f10620009f957805160ff191683800117855562000a2a565b8280016001018555821562000a2a579182015b8281111562000a2957825182559160200191906001019062000a0c565b5b50905062000a39919062000ac4565b5090565b828054600181600116156101000203166002900490600052602060002090601f016020900481019282601f1062000a8057805160ff191683800117855562000ab1565b8280016001018555821562000ab1579182015b8281111562000ab057825182559160200191906001019062000a93565b5b50905062000ac0919062000ac4565b5090565b62000ae991905b8082111562000ae557600081600090555060010162000acb565b5090565b90565b6136e08062000afc6000396000f3fe608060405234801561001057600080fd5b506004361061014d5760003560e01c80637a6ce2e1116100c3578063c2bc2efc1161007c578063c2bc2efc14610ea7578063ce63da6014610f64578063d639f64214610fa8578063e9cae5e014610fc6578063f355279214611010578063fbd289dd146110685761014d565b80637a6ce2e114610963578063815da40a146109ad578063848cb5ac146109b75780638da4d3c914610c21578063a6cdd85f14610c3f578063a888c2cd14610d615761014d565b80632867b3ca116101155780632867b3ca146105825780635aef244714610606578063610cd51e1461074c57806361e55594146108925780636d4ce63c1461089c578063705d27511461091f5761014d565b80630babc84b146101525780630f7aa0fe1461029857806316c675d5146102f05780631d04e1681461045657806324905ef514610578575b600080fd5b61017e6004803603602081101561016857600080fd5b81019080803590602001909291905050506111c4565b6040518080602001806020018473ffffffffffffffffffffffffffffffffffffffff1673ffffffffffffffffffffffffffffffffffffffff168152602001838103835286818151815260200191508051906020019080838360005b838110156101f45780820151818401526020810190506101d9565b50505050905090810190601f1680156102215780820380516001836020036101000a031916815260200191505b50838103825285818151815260200191508051906020019080838360005b8381101561025a57808201518184015260208101905061023f565b50505050905090810190601f1680156102875780820380516001836020036101000a031916815260200191505b509550505050505060405180910390f35b6102da600480360360208110156102ae57600080fd5b81019080803573ffffffffffffffffffffffffffffffffffffffff1690602001909291905050506115f8565b6040518082815260200191505060405180910390f35b61033c6004803603604081101561030657600080fd5b8101908080359060200190929190803573ffffffffffffffffffffffffffffffffffffffff169060200190929190505050611610565b604051808473ffffffffffffffffffffffffffffffffffffffff1673ffffffffffffffffffffffffffffffffffffffff1681526020018060200180602001838103835285818151815260200191508051906020019080838360005b838110156103b2578082015181840152602081019050610397565b50505050905090810190601f1680156103df5780820380516001836020036101000a031916815260200191505b50838103825284818151815260200191508051906020019080838360005b838110156104185780820151818401526020810190506103fd565b50505050905090810190601f1680156104455780820380516001836020036101000a031916815260200191505b509550505050505060405180910390f35b61045e61188f565b6040518080602001806020018473ffffffffffffffffffffffffffffffffffffffff1673ffffffffffffffffffffffffffffffffffffffff168152602001838103835286818151815260200191508051906020019080838360005b838110156104d45780820151818401526020810190506104b9565b50505050905090810190601f1680156105015780820380516001836020036101000a031916815260200191505b50838103825285818151815260200191508051906020019080838360005b8381101561053a57808201518184015260208101905061051f565b50505050905090810190601f1680156105675780820380516001836020036101000a031916815260200191505b509550505050505060405180910390f35b610580611b75565b005b6105c46004803603602081101561059857600080fd5b81019080803573ffffffffffffffffffffffffffffffffffffffff169060200190929190505050611d78565b604051808273ffffffffffffffffffffffffffffffffffffffff1673ffffffffffffffffffffffffffffffffffffffff16815260200191505060405180910390f35b6106326004803603602081101561061c57600080fd5b8101908080359060200190929190505050611d82565b6040518080602001806020018473ffffffffffffffffffffffffffffffffffffffff1673ffffffffffffffffffffffffffffffffffffffff168152602001838103835286818151815260200191508051906020019080838360005b838110156106a857808201518184015260208101905061068d565b50505050905090810190601f1680156106d55780820380516001836020036101000a031916815260200191505b50838103825285818151815260200191508051906020019080838360005b8381101561070e5780820151818401526020810190506106f3565b50505050905090810190601f16801561073b5780820380516001836020036101000a031916815260200191505b509550505050505060405180910390f35b6107786004803603602081101561076257600080fd5b8101908080359060200190929190505050611f32565b604051808473ffffffffffffffffffffffffffffffffffffffff1673ffffffffffffffffffffffffffffffffffffffff1681526020018060200180602001838103835285818151815260200191508051906020019080838360005b838110156107ee5780820151818401526020810190506107d3565b50505050905090810190601f16801561081b5780820380516001836020036101000a031916815260200191505b50838103825284818151815260200191508051906020019080838360005b83811015610854578082015181840152602081019050610839565b50505050905090810190601f1680156108815780820380516001836020036101000a031916815260200191505b509550505050505060405180910390f35b61089a6121b1565b005b6108a4612375565b6040518080602001828103825283818151815260200191508051906020019080838360005b838110156108e45780820151818401526020810190506108c9565b50505050905090810190601f1680156109115780820380516001836020036101000a031916815260200191505b509250505060405180910390f35b6109616004803603602081101561093557600080fd5b81019080803573ffffffffffffffffffffffffffffffffffffffff169060200190929190505050612471565b005b61096b612675565b604051808273ffffffffffffffffffffffffffffffffffffffff1673ffffffffffffffffffffffffffffffffffffffff16815260200191505060405180910390f35b6109b561267d565b005b610b07600480360360408110156109cd57600080fd5b81019080803590602001906401000000008111156109ea57600080fd5b8201836020820111156109fc57600080fd5b80359060200191846001830284011164010000000083111715610a1e57600080fd5b91908080601f016020809104026020016040519081016040528093929190818152602001838380828437600081840152601f19601f82011690508083019250505050505050919291929080359060200190640100000000811115610a8157600080fd5b820183602082011115610a9357600080fd5b80359060200191846001830284011164010000000083111715610ab557600080fd5b91908080601f016020809104026020016040519081016040528093929190818152602001838380828437600081840152601f19601f82011690508083019250505050505050919291929050505061281f565b6040518080602001806020018473ffffffffffffffffffffffffffffffffffffffff1673ffffffffffffffffffffffffffffffffffffffff168152602001838103835286818151815260200191508051906020019080838360005b83811015610b7d578082015181840152602081019050610b62565b50505050905090810190601f168015610baa5780820380516001836020036101000a031916815260200191505b50838103825285818151815260200191508051906020019080838360005b83811015610be3578082015181840152602081019050610bc8565b50505050905090810190601f168015610c105780820380516001836020036101000a031916815260200191505b509550505050505060405180910390f35b610c29612bd2565b6040518082815260200191505060405180910390f35b610c47612bd8565b6040518080602001806020018473ffffffffffffffffffffffffffffffffffffffff1673ffffffffffffffffffffffffffffffffffffffff168152602001838103835286818151815260200191508051906020019080838360005b83811015610cbd578082015181840152602081019050610ca2565b50505050905090810190601f168015610cea5780820380516001836020036101000a031916815260200191505b50838103825285818151815260200191508051906020019080838360005b83811015610d23578082015181840152602081019050610d08565b50505050905090810190601f168015610d505780820380516001836020036101000a031916815260200191505b509550505050505060405180910390f35b610d8d60048036036020811015610d7757600080fd5b8101908080359060200190929190505050612e58565b604051808473ffffffffffffffffffffffffffffffffffffffff1673ffffffffffffffffffffffffffffffffffffffff1681526020018060200180602001838103835285818151815260200191508051906020019080838360005b83811015610e03578082015181840152602081019050610de8565b50505050905090810190601f168015610e305780820380516001836020036101000a031916815260200191505b50838103825284818151815260200191508051906020019080838360005b83811015610e69578082015181840152602081019050610e4e565b50505050905090810190601f168015610e965780820380516001836020036101000a031916815260200191505b509550505050505060405180910390f35b610ee960048036036020811015610ebd57600080fd5b81019080803573ffffffffffffffffffffffffffffffffffffffff169060200190929190505050612fd2565b6040518080602001828103825283818151815260200191508051906020019080838360005b83811015610f29578082015181840152602081019050610f0e565b50505050905090810190601f168015610f565780820380516001836020036101000a031916815260200191505b509250505060405180910390f35b610fa660048036036020811015610f7a57600080fd5b81019080803573ffffffffffffffffffffffffffffffffffffffff1690602001909291905050506130d0565b005b610fb0613273565b6040518082815260200191505060405180910390f35b610fce6132bf565b604051808273ffffffffffffffffffffffffffffffffffffffff1673ffffffffffffffffffffffffffffffffffffffff16815260200191505060405180910390f35b6110526004803603602081101561102657600080fd5b81019080803573ffffffffffffffffffffffffffffffffffffffff1690602001909291905050506132e5565b6040518082815260200191505060405180910390f35b6110aa6004803603602081101561107e57600080fd5b81019080803573ffffffffffffffffffffffffffffffffffffffff169060200190929190505050613303565b6040518080602001806020018473ffffffffffffffffffffffffffffffffffffffff1673ffffffffffffffffffffffffffffffffffffffff168152602001838103835286818151815260200191508051906020019080838360005b83811015611120578082015181840152602081019050611105565b50505050905090810190601f16801561114d5780820380516001836020036101000a031916815260200191505b50838103825285818151815260200191508051906020019080838360005b8381101561118657808201518184015260208101905061116b565b50505050905090810190601f1680156111b35780820380516001836020036101000a031916815260200191505b509550505050505060405180910390f35b60608060008084101561123f576040517f08c379a00000000000000000000000000000000000000000000000000000000081526004018080602001828103825260088152602001807f4572726f72203c3000000000000000000000000000000000000000000000000081525060200191505060405180910390fd5b60026000600560009054906101000a900473ffffffffffffffffffffffffffffffffffffffff1673ffffffffffffffffffffffffffffffffffffffff1673ffffffffffffffffffffffffffffffffffffffff168152602001908152602001600020805490508410611318576040517f08c379a00000000000000000000000000000000000000000000000000000000081526004018080602001828103825260138152602001807f4572726f72206f7574206f6620626f756e64730000000000000000000000000081525060200191505060405180910390fd5b60026000600560009054906101000a900473ffffffffffffffffffffffffffffffffffffffff1673ffffffffffffffffffffffffffffffffffffffff1673ffffffffffffffffffffffffffffffffffffffff168152602001908152602001600020848154811061138457fe5b906000526020600020906003020160010160026000600560009054906101000a900473ffffffffffffffffffffffffffffffffffffffff1673ffffffffffffffffffffffffffffffffffffffff1673ffffffffffffffffffffffffffffffffffffffff168152602001908152602001600020858154811061140157fe5b906000526020600020906003020160020160026000600560009054906101000a900473ffffffffffffffffffffffffffffffffffffffff1673ffffffffffffffffffffffffffffffffffffffff1673ffffffffffffffffffffffffffffffffffffffff168152602001908152602001600020868154811061147e57fe5b906000526020600020906003020160000160009054906101000a900473ffffffffffffffffffffffffffffffffffffffff16828054600181600116156101000203166002900480601f0160208091040260200160405190810160405280929190818152602001828054600181600116156101000203166002900480156115455780601f1061151a57610100808354040283529160200191611545565b820191906000526020600020905b81548152906001019060200180831161152857829003601f168201915b50505050509250818054600181600116156101000203166002900480601f0160208091040260200160405190810160405280929190818152602001828054600181600116156101000203166002900480156115e15780601f106115b6576101008083540402835291602001916115e1565b820191906000526020600020905b8154815290600101906020018083116115c457829003601f168201915b505050505091508090509250925092509193909250565b60036020528060005260406000206000915090505481565b6000606080600260008573ffffffffffffffffffffffffffffffffffffffff1673ffffffffffffffffffffffffffffffffffffffff168152602001908152602001600020858154811061165f57fe5b906000526020600020906003020160000160009054906101000a900473ffffffffffffffffffffffffffffffffffffffff16600260008673ffffffffffffffffffffffffffffffffffffffff1673ffffffffffffffffffffffffffffffffffffffff16815260200190815260200160002086815481106116db57fe5b9060005260206000209060030201600101600260008773ffffffffffffffffffffffffffffffffffffffff1673ffffffffffffffffffffffffffffffffffffffff168152602001908152602001600020878154811061173657fe5b9060005260206000209060030201600201829250818054600181600116156101000203166002900480601f0160208091040260200160405190810160405280929190818152602001828054600181600116156101000203166002900480156117df5780601f106117b4576101008083540402835291602001916117df565b820191906000526020600020905b8154815290600101906020018083116117c257829003601f168201915b50505050509150808054600181600116156101000203166002900480601f01602080910402602001604051908101604052809291908181526020018280546001816001161561010002031660029004801561187b5780601f106118505761010080835404028352916020019161187b565b820191906000526020600020905b81548152906001019060200180831161185e57829003601f168201915b505050505090509250925092509250925092565b606080600060026000600560009054906101000a900473ffffffffffffffffffffffffffffffffffffffff1673ffffffffffffffffffffffffffffffffffffffff1673ffffffffffffffffffffffffffffffffffffffff16815260200190815260200160002060008154811061190157fe5b906000526020600020906003020160010160026000600560009054906101000a900473ffffffffffffffffffffffffffffffffffffffff1673ffffffffffffffffffffffffffffffffffffffff1673ffffffffffffffffffffffffffffffffffffffff16815260200190815260200160002060008154811061197f57fe5b906000526020600020906003020160020160026000600560009054906101000a900473ffffffffffffffffffffffffffffffffffffffff1673ffffffffffffffffffffffffffffffffffffffff1673ffffffffffffffffffffffffffffffffffffffff1681526020019081526020016000206000815481106119fd57fe5b906000526020600020906003020160000160009054906101000a900473ffffffffffffffffffffffffffffffffffffffff16828054600181600116156101000203166002900480601f016020809104026020016040519081016040528092919081815260200182805460018160011615610100020316600290048015611ac45780601f10611a9957610100808354040283529160200191611ac4565b820191906000526020600020905b815481529060010190602001808311611aa757829003601f168201915b50505050509250818054600181600116156101000203166002900480601f016020809104026020016040519081016040528092919081815260200182805460018160011615610100020316600290048015611b605780601f10611b3557610100808354040283529160200191611b60565b820191906000526020600020905b815481529060010190602001808311611b4357829003601f168201915b50505050509150809050925092509250909192565b6040518060400160405280600781526020017f5465737456616c00000000000000000000000000000000000000000000000000815250600260003373ffffffffffffffffffffffffffffffffffffffff1673ffffffffffffffffffffffffffffffffffffffff168152602001908152602001600020600081548110611bf657fe5b90600052602060002090600302016001019080519060200190611c1a929190613585565b506040518060400160405280600781526020017f5465737456616c00000000000000000000000000000000000000000000000000815250600260003373ffffffffffffffffffffffffffffffffffffffff1673ffffffffffffffffffffffffffffffffffffffff168152602001908152602001600020600081548110611c9c57fe5b90600052602060002090600302016002019080519060200190611cc0929190613585565b50600073b2341897b1ce81ac2c7553ce841d7efd2767e9ea905080600260003373ffffffffffffffffffffffffffffffffffffffff1673ffffffffffffffffffffffffffffffffffffffff168152602001908152602001600020600081548110611d2657fe5b906000526020600020906003020160000160006101000a81548173ffffffffffffffffffffffffffffffffffffffff021916908373ffffffffffffffffffffffffffffffffffffffff16021790555050565b6000819050919050565b606080600060016000858152602001908152602001600020600101600160008681526020019081526020016000206002016001600087815260200190815260200160002060000160009054906101000a900473ffffffffffffffffffffffffffffffffffffffff16828054600181600116156101000203166002900480601f016020809104026020016040519081016040528092919081815260200182805460018160011615610100020316600290048015611e7f5780601f10611e5457610100808354040283529160200191611e7f565b820191906000526020600020905b815481529060010190602001808311611e6257829003601f168201915b50505050509250818054600181600116156101000203166002900480601f016020809104026020016040519081016040528092919081815260200182805460018160011615610100020316600290048015611f1b5780601f10611ef057610100808354040283529160200191611f1b565b820191906000526020600020905b815481529060010190602001808311611efe57829003601f168201915b505050505091508090509250925092509193909250565b6000606080600260003373ffffffffffffffffffffffffffffffffffffffff1673ffffffffffffffffffffffffffffffffffffffff1681526020019081526020016000208481548110611f8157fe5b906000526020600020906003020160000160009054906101000a900473ffffffffffffffffffffffffffffffffffffffff16600260003373ffffffffffffffffffffffffffffffffffffffff1673ffffffffffffffffffffffffffffffffffffffff1681526020019081526020016000208581548110611ffd57fe5b9060005260206000209060030201600101600260003373ffffffffffffffffffffffffffffffffffffffff1673ffffffffffffffffffffffffffffffffffffffff168152602001908152602001600020868154811061205857fe5b9060005260206000209060030201600201829250818054600181600116156101000203166002900480601f0160208091040260200160405190810160405280929190818152602001828054600181600116156101000203166002900480156121015780601f106120d657610100808354040283529160200191612101565b820191906000526020600020905b8154815290600101906020018083116120e457829003601f168201915b50505050509150808054600181600116156101000203166002900480601f01602080910402602001604051908101604052809291908181526020018280546001816001161561010002031660029004801561219d5780601f106121725761010080835404028352916020019161219d565b820191906000526020600020905b81548152906001019060200180831161218057829003601f168201915b505050505090509250925092509193909250565b600073b2341897b1ce81ac2c7553ce841d7efd2767e9ea905060026000600560009054906101000a900473ffffffffffffffffffffffffffffffffffffffff1673ffffffffffffffffffffffffffffffffffffffff1673ffffffffffffffffffffffffffffffffffffffff16815260200190815260200160002060405180606001604052808373ffffffffffffffffffffffffffffffffffffffff1681526020016040518060400160405280600781526020017f5465737456616c0000000000000000000000000000000000000000000000000081525081526020016040518060400160405280600781526020017f5465737456616c00000000000000000000000000000000000000000000000000815250815250908060018154018082558091505060019003906000526020600020906003020160009091909190915060008201518160000160006101000a81548173ffffffffffffffffffffffffffffffffffffffff021916908373ffffffffffffffffffffffffffffffffffffffff1602179055506020820151816001019080519060200190612352929190613605565b50604082015181600201908051906020019061236f929190613605565b50505050565b6060600260003373ffffffffffffffffffffffffffffffffffffffff1673ffffffffffffffffffffffffffffffffffffffff1681526020019081526020016000206001815481106123c257fe5b90600052602060002090600302016001018054600181600116156101000203166002900480601f0160208091040260200160405190810160405280929190818152602001828054600181600116156101000203166002900480156124675780601f1061243c57610100808354040283529160200191612467565b820191906000526020600020905b81548152906001019060200180831161244a57829003601f168201915b5050505050905090565b6040518060400160405280600781526020017f5465737456616c00000000000000000000000000000000000000000000000000815250600260008373ffffffffffffffffffffffffffffffffffffffff1673ffffffffffffffffffffffffffffffffffffffff1681526020019081526020016000206000815481106124f257fe5b90600052602060002090600302016001019080519060200190612516929190613585565b506040518060400160405280600781526020017f5465737456616c00000000000000000000000000000000000000000000000000815250600260008373ffffffffffffffffffffffffffffffffffffffff1673ffffffffffffffffffffffffffffffffffffffff16815260200190815260200160002060008154811061259857fe5b906000526020600020906003020160020190805190602001906125bc929190613585565b50600073b2341897b1ce81ac2c7553ce841d7efd2767e9ea905080600260008473ffffffffffffffffffffffffffffffffffffffff1673ffffffffffffffffffffffffffffffffffffffff16815260200190815260200160002060008154811061262257fe5b906000526020600020906003020160000160006101000a81548173ffffffffffffffffffffffffffffffffffffffff021916908373ffffffffffffffffffffffffffffffffffffffff1602179055505050565b600033905090565b600073b2341897b1ce81ac2c7553ce841d7efd2767e9ea9050600260003373ffffffffffffffffffffffffffffffffffffffff1673ffffffffffffffffffffffffffffffffffffffff16815260200190815260200160002060405180606001604052808373ffffffffffffffffffffffffffffffffffffffff1681526020016040518060400160405280600781526020017f5465737456616c0000000000000000000000000000000000000000000000000081525081526020016040518060400160405280600781526020017f5465737456616c00000000000000000000000000000000000000000000000000815250815250908060018154018082558091505060019003906000526020600020906003020160009091909190915060008201518160000160006101000a81548173ffffffffffffffffffffffffffffffffffffffff021916908373ffffffffffffffffffffffffffffffffffffffff16021790555060208201518160010190805190602001906127fc929190613605565b506040820151816002019080519060200190612819929190613605565b50505050565b6060806000806001600054019050336001600083815260200190815260200160002060000160006101000a81548173ffffffffffffffffffffffffffffffffffffffff021916908373ffffffffffffffffffffffffffffffffffffffff160217905550856001600083815260200190815260200160002060010190805190602001906128ac929190613585565b50846001600083815260200190815260200160002060020190805190602001906128d7929190613585565b507fddd09ba2bdf0909225fd15c1849448b1d6c0dd7f37663029d382180ab2049b42338787604051808473ffffffffffffffffffffffffffffffffffffffff1673ffffffffffffffffffffffffffffffffffffffff1681526020018060200180602001838103835285818151815260200191508051906020019080838360005b83811015612972578082015181840152602081019050612957565b50505050905090810190601f16801561299f5780820380516001836020036101000a031916815260200191505b50838103825284818151815260200191508051906020019080838360005b838110156129d85780820151818401526020810190506129bd565b50505050905090810190601f168015612a055780820380516001836020036101000a031916815260200191505b509550505050505060405180910390a1600080815480929190600101919050555060016000828152602001908152602001600020600101600160008381526020019081526020016000206002016001600084815260200190815260200160002060000160009054906101000a900473ffffffffffffffffffffffffffffffffffffffff16828054600181600116156101000203166002900480601f016020809104026020016040519081016040528092919081815260200182805460018160011615610100020316600290048015612b1e5780601f10612af357610100808354040283529160200191612b1e565b820191906000526020600020905b815481529060010190602001808311612b0157829003601f168201915b50505050509250818054600181600116156101000203166002900480601f016020809104026020016040519081016040528092919081815260200182805460018160011615610100020316600290048015612bba5780601f10612b8f57610100808354040283529160200191612bba565b820191906000526020600020905b815481529060010190602001808311612b9d57829003601f168201915b50505050509150809050935093509350509250925092565b60005481565b6060806000600260003373ffffffffffffffffffffffffffffffffffffffff1673ffffffffffffffffffffffffffffffffffffffff168152602001908152602001600020600081548110612c2857fe5b9060005260206000209060030201600101600260003373ffffffffffffffffffffffffffffffffffffffff1673ffffffffffffffffffffffffffffffffffffffff168152602001908152602001600020600081548110612c8457fe5b9060005260206000209060030201600201600260003373ffffffffffffffffffffffffffffffffffffffff1673ffffffffffffffffffffffffffffffffffffffff168152602001908152602001600020600081548110612ce057fe5b906000526020600020906003020160000160009054906101000a900473ffffffffffffffffffffffffffffffffffffffff16828054600181600116156101000203166002900480601f016020809104026020016040519081016040528092919081815260200182805460018160011615610100020316600290048015612da75780601f10612d7c57610100808354040283529160200191612da7565b820191906000526020600020905b815481529060010190602001808311612d8a57829003601f168201915b50505050509250818054600181600116156101000203166002900480601f016020809104026020016040519081016040528092919081815260200182805460018160011615610100020316600290048015612e435780601f10612e1857610100808354040283529160200191612e43565b820191906000526020600020905b815481529060010190602001808311612e2657829003601f168201915b50505050509150809050925092509250909192565b60016020528060005260406000206000915090508060000160009054906101000a900473ffffffffffffffffffffffffffffffffffffffff1690806001018054600181600116156101000203166002900480601f016020809104026020016040519081016040528092919081815260200182805460018160011615610100020316600290048015612f2a5780601f10612eff57610100808354040283529160200191612f2a565b820191906000526020600020905b815481529060010190602001808311612f0d57829003601f168201915b505050505090806002018054600181600116156101000203166002900480601f016020809104026020016040519081016040528092919081815260200182805460018160011615610100020316600290048015612fc85780601f10612f9d57610100808354040283529160200191612fc8565b820191906000526020600020905b815481529060010190602001808311612fab57829003601f168201915b5050505050905083565b6060600260008373ffffffffffffffffffffffffffffffffffffffff1673ffffffffffffffffffffffffffffffffffffffff16815260200190815260200160002060018154811061301f57fe5b90600052602060002090600302016001018054600181600116156101000203166002900480601f0160208091040260200160405190810160405280929190818152602001828054600181600116156101000203166002900480156130c45780601f10613099576101008083540402835291602001916130c4565b820191906000526020600020905b8154815290600101906020018083116130a757829003601f168201915b50505050509050919050565b600073b2341897b1ce81ac2c7553ce841d7efd2767e9ea9050600260008373ffffffffffffffffffffffffffffffffffffffff1673ffffffffffffffffffffffffffffffffffffffff16815260200190815260200160002060405180606001604052808373ffffffffffffffffffffffffffffffffffffffff1681526020016040518060400160405280600781526020017f5465737456616c0000000000000000000000000000000000000000000000000081525081526020016040518060400160405280600781526020017f5465737456616c00000000000000000000000000000000000000000000000000815250815250908060018154018082558091505060019003906000526020600020906003020160009091909190915060008201518160000160006101000a81548173ffffffffffffffffffffffffffffffffffffffff021916908373ffffffffffffffffffffffffffffffffffffffff160217905550602082015181600101908051906020019061324f929190613605565b50604082015181600201908051906020019061326c929190613605565b5050505050565b600080339050600360008273ffffffffffffffffffffffffffffffffffffffff1673ffffffffffffffffffffffffffffffffffffffff1681526020019081526020016000205491505090565b600560009054906101000a900473ffffffffffffffffffffffffffffffffffffffff1681565b60046020528060005260406000206000915090508060010154905081565b6060806000600260008573ffffffffffffffffffffffffffffffffffffffff1673ffffffffffffffffffffffffffffffffffffffff16815260200190815260200160002060008154811061335357fe5b9060005260206000209060030201600101600260008673ffffffffffffffffffffffffffffffffffffffff1673ffffffffffffffffffffffffffffffffffffffff1681526020019081526020016000206000815481106133af57fe5b9060005260206000209060030201600201600260008773ffffffffffffffffffffffffffffffffffffffff1673ffffffffffffffffffffffffffffffffffffffff16815260200190815260200160002060008154811061340b57fe5b906000526020600020906003020160000160009054906101000a900473ffffffffffffffffffffffffffffffffffffffff16828054600181600116156101000203166002900480601f0160208091040260200160405190810160405280929190818152602001828054600181600116156101000203166002900480156134d25780601f106134a7576101008083540402835291602001916134d2565b820191906000526020600020905b8154815290600101906020018083116134b557829003601f168201915b50505050509250818054600181600116156101000203166002900480601f01602080910402602001604051908101604052809291908181526020018280546001816001161561010002031660029004801561356e5780601f106135435761010080835404028352916020019161356e565b820191906000526020600020905b81548152906001019060200180831161355157829003601f168201915b505050505091508090509250925092509193909250565b828054600181600116156101000203166002900490600052602060002090601f016020900481019282601f106135c657805160ff19168380011785556135f4565b828001600101855582156135f4579182015b828111156135f35782518255916020019190600101906135d8565b5b5090506136019190613685565b5090565b828054600181600116156101000203166002900490600052602060002090601f016020900481019282601f1061364657805160ff1916838001178555613674565b82800160010185558215613674579182015b82811115613673578251825591602001919060010190613658565b5b5090506136819190613685565b5090565b6136a791905b808211156136a357600081600090555060010161368b565b5090565b9056fea2646970667358221220c5b139f64e7a054d13fced352f249dac892c98532d1811e6f2aaf08dd20d9ec664736f6c63430006040033",
  "source": "pragma solidity >=0.5.0 <0.7.0;\r\n\r\ncontract ClaimContainer {\r\n\r\n    uint256 public claimCount;\r\n    mapping (uint256 => Claim) public claims;\r\n\r\n    mapping (address => Claim[]) ownedClaims;\r\n    mapping (address => uint256) public numberOfOwned;\r\n    mapping (address => ClaimO) public testOwned;\r\n    event ClaimRequested(address _sender,address _issuer);\r\n    event ClaimAdded(address _issuer, string _ownerName, string _data);\r\n    address public test_adding;\r\n    constructor () public {\r\n        test_adding = 0xb2341897B1CE81aC2C7553cE841d7efd2767e9EA;  //msg.sender\r\n        addClaim(\"Facebook\",\"Has Instagram\");\r\n        addClaim(\"Facebook\",\"Has Facebook\");\r\n        addClaim(\"Facebook\",\"Has Whatsapp\");\r\n        // addClaimToOwned(1);\r\n        fill_mapHardCoded(\r\n            Claim({issuer:0xb2341897B1CE81aC2C7553cE841d7efd2767e9EA,ownerName: \"Microsoft\",data:\"Users\" }),\r\n            Claim({issuer:0xb2341897B1CE81aC2C7553cE841d7efd2767e9EA,ownerName: \"Microsoft\",data:\"Windows 10\" })\r\n        );\r\n    }\r\n// --------------------------------------------------- TESTING HARD CODED\r\n    function fill_mapHardCoded(Claim memory struct1,Claim memory struct2) internal  {\r\n        ownedClaims[test_adding].push(struct1);\r\n        ownedClaims[test_adding].push(struct2);\r\n        numberOfOwned[test_adding] ++;\r\n  }\r\n    function returnTest_ConstrValues(uint256 _index) public view  //died\r\n        returns( string memory _ownerNameR, string memory _dataR, address _issuer) {\r\n            require(_index >= 0,\"Error <0\");\r\n            require(_index < ownedClaims[test_adding].length,\"Error out of bounds\");\r\n            return (\r\n                ownedClaims[test_adding][_index].ownerName,\r\n                ownedClaims[test_adding][_index].data,\r\n                ownedClaims[test_adding][_index].issuer\r\n            );\r\n        }\r\n    function returnTest_ConstrValues() public view  //working\r\n        returns( string memory _ownerNameR, string memory _dataR, address _issuer) {\r\n            return (\r\n                ownedClaims[test_adding][0].ownerName,\r\n                ownedClaims[test_adding][0].data,\r\n                ownedClaims[test_adding][0].issuer\r\n            );\r\n    }\r\n    function addToTestingAdding() public {\r\n        address payable _is = 0xb2341897B1CE81aC2C7553cE841d7efd2767e9EA;\r\n        ownedClaims[test_adding].push(Claim({\r\n            issuer: _is,\r\n            ownerName: \"TestVal\",\r\n            data: \"TestVal\"})\r\n             );\r\n    }\r\n// --------------------------------------------------- TESTING WITH ADDRESS MSG.SENDER\r\n    function fill_map() internal  {\r\n        ownedClaims[msg.sender].push(Claim({issuer:0xb2341897B1CE81aC2C7553cE841d7efd2767e9EA,ownerName: \"Microsoft\",data:\"Teams\" }));\r\n        ownedClaims[msg.sender].push(Claim({issuer:0xb2341897B1CE81aC2C7553cE841d7efd2767e9EA,ownerName: \"Microsoft\",data:\"Windows 8.1\" }));\r\n        numberOfOwned[msg.sender] ++;\r\n  }\r\n    function addTest_values() public{  //not working\r\n        ownedClaims[msg.sender][0].ownerName = \"TestVal\";\r\n        ownedClaims[msg.sender][0].data = \"TestVal\";\r\n        address payable _is = 0xb2341897B1CE81aC2C7553cE841d7efd2767e9EA;\r\n        ownedClaims[msg.sender][0].issuer = _is;\r\n    }\r\n     function addTest_values2() public{\r\n        address payable _is = 0xb2341897B1CE81aC2C7553cE841d7efd2767e9EA;\r\n        ownedClaims[msg.sender].push(Claim({\r\n            issuer: _is,\r\n            ownerName: \"TestVal\",\r\n            data: \"TestVal\"})\r\n             );\r\n    }\r\n\r\n    function getMsgSender() public view returns (address _me){\r\n        return msg.sender;\r\n    }\r\n     function returnTestMsgSender() public view\r\n        returns( string memory _ownerNameR, string memory _dataR, address _issuer) {\r\n            return (\r\n                ownedClaims[msg.sender][0].ownerName,\r\n                ownedClaims[msg.sender][0].data,\r\n                ownedClaims[msg.sender][0].issuer\r\n            );\r\n        }\r\n\r\n\r\n    function get()  public view returns(string memory _ownerName) {\r\n        return ownedClaims[msg.sender][1].ownerName;\r\n    }\r\n\r\n// --------------------------------------------------- TESTING WITH ADDRESS GIVEN ADDRESS\r\n    function fill_map(address test_add) internal  {\r\n        ownedClaims[test_add].push(Claim({issuer:0xb2341897B1CE81aC2C7553cE841d7efd2767e9EA,ownerName: \"Microsoft\",data:\"Teams\" }));\r\n        ownedClaims[test_add].push(Claim({issuer:0xb2341897B1CE81aC2C7553cE841d7efd2767e9EA,ownerName: \"Microsoft\",data:\"Windows 8.1\" }));\r\n        numberOfOwned[test_add] ++;\r\n  }\r\n    function addTest_values(address test_add) public{  //not working\r\n        ownedClaims[test_add][0].ownerName = \"TestVal\";\r\n        ownedClaims[test_add][0].data = \"TestVal\";\r\n        address payable _is = 0xb2341897B1CE81aC2C7553cE841d7efd2767e9EA;\r\n        ownedClaims[test_add][0].issuer = _is;\r\n    }\r\n     function addTest_values2(address test_add) public{\r\n        address payable _is = 0xb2341897B1CE81aC2C7553cE841d7efd2767e9EA;\r\n        ownedClaims[test_add].push(Claim({\r\n            issuer: _is,\r\n            ownerName: \"TestVal\",\r\n            data: \"TestVal\"})\r\n             );\r\n    }\r\n\r\n    function getMsgSender(address test_add) public pure returns (address _me){\r\n        return test_add;\r\n    }\r\n     function returnTestMsgSender(address test_add) public view\r\n        returns( string memory _ownerNameR, string memory _dataR, address _issuer) {\r\n            return (\r\n                ownedClaims[test_add][0].ownerName,\r\n                ownedClaims[test_add][0].data,\r\n                ownedClaims[test_add][0].issuer\r\n            );\r\n        }\r\n\r\n\r\n    function get(address test_add)  public view returns(string memory _ownerName) {\r\n        return ownedClaims[test_add][1].ownerName;\r\n    }\r\n\r\n\r\n    struct Claim {\r\n        address payable issuer;\r\n        string ownerName;\r\n        string data;\r\n    }\r\n        struct ClaimO {\r\n          mapping (uint256 => Claim) _claims;\r\n          uint256 nrClaims;\r\n    }\r\n    function addClaim(string memory _ownerName, string memory _data) public\r\n        returns( string memory _ownerNameR, string memory _dataR, address _issuer) {\r\n\r\n        uint256 claimId = claimCount + 1;\r\n        claims[claimId].issuer = msg.sender;\r\n        claims[claimId].ownerName = _ownerName;\r\n        claims[claimId].data = _data;\r\n\r\n        emit ClaimAdded(\r\n            msg.sender,\r\n            _ownerName,\r\n            _data\r\n        );\r\n\r\n        claimCount++;\r\n        return (\r\n            claims[claimId].ownerName,\r\n            claims[claimId].data,\r\n            claims[claimId].issuer\r\n        );\r\n    }\r\n    // function addOwnedMapp(uint256 _idClaim) public {\r\n    //     address self = msg.sender;\r\n    //     Claim memory cl = Claim({issuer: claims[_idClaim].issuer,ownerName: claims[_idClaim].ownerName, data: claims[_idClaim].data});\r\n\r\n    // }\r\n    // function sendEther(address payable _addr) public payable {\r\n    //         _addr.transfer(msg.value);\r\n    //     }\r\n    // function addClaimToOwned(uint256 _id) public returns(\r\n    //         address payable _issuer,\r\n    //         string memory _ownerName,\r\n    //         string memory _data\r\n    //     ){\r\n    //         // if(_id >= 1 && _id <= claimCount){\r\n    //             address self = msg.sender;\r\n    //         //    claims[_id].issuer.transfer(msg.value);\r\n    //             // sendEther(claims[claimId].issuer);\r\n    //             uint256 nr = numberOfOwned[self];\r\n    //             nr++;\r\n    //             ownedClaims[self][_id].issuer    = claims[_id].issuer;\r\n    //             ownedClaims[self][_id].ownerName = claims[_id].ownerName;\r\n    //             ownedClaims[self][_id].data      = claims[_id].data;\r\n    //             // ownedClaims[self].push(Claim(\r\n    //             //                                 claims[_id].issuer,\r\n    //             //                                 claims[_id].ownerName,\r\n    //             //                                 claims[_id].data)\r\n    //             numberOfOwned[self] = nr;\r\n    //     // }\r\n    //      return (\r\n    //         ownedClaims[self][_id].issuer,\r\n    //         ownedClaims[self][_id].ownerName,\r\n    //         ownedClaims[self][_id].data\r\n    //     );\r\n    // }\r\n    // returns how many claim the owner has\r\n    function getClaimOwnedNumber() public view returns(uint256 _nrOwned){\r\n        address payable self = msg.sender;\r\n        return numberOfOwned[self];\r\n    }\r\n  function getClaimOwnedWithAddress(uint256 _claimOwnedId,address addr0) //Not working\r\n        public\r\n        view\r\n        returns(\r\n            address _issuer,\r\n            string memory _ownerName,\r\n            string memory _data\r\n        )\r\n    {\r\n        return (\r\n            ownedClaims[addr0][_claimOwnedId].issuer,\r\n            ownedClaims[addr0][_claimOwnedId].ownerName,\r\n            ownedClaims[addr0][_claimOwnedId].data\r\n        );\r\n    }\r\n    function getClaimOwned(uint256 _claimOwnedId) //Not working\r\n        public\r\n        view\r\n        returns(\r\n            address _issuer,\r\n            string memory _ownerName,\r\n            string memory _data\r\n        )\r\n    {\r\n        return (\r\n            ownedClaims[msg.sender][_claimOwnedId].issuer,\r\n            ownedClaims[msg.sender][_claimOwnedId].ownerName,\r\n            ownedClaims[msg.sender][_claimOwnedId].data\r\n        );\r\n    }\r\n    function getClaim(uint256 _claimId)\r\n            public\r\n            view\r\n            returns(\r\n                string memory _ownerName,\r\n                string memory _data,\r\n                address _issuer\r\n            )\r\n        {\r\n            return (\r\n                claims[_claimId].ownerName,\r\n                claims[_claimId].data,\r\n                claims[_claimId].issuer\r\n            );\r\n        }\r\n\r\n}",
  "sourcePath": "D:\\Stuffs\\Facultate\\Anul3-Cazac\\blockchain\\react-proj-blockchain\\contracts\\ClaimContainer.sol",
  "compiler": {
    "name": "solc",
    "version": "0.6.4+commit.1dca32f3.Emscripten.clang"
  },
  "schemaVersion": "3.1.0",
  "updatedAt": "2020-04-26T19:19:41.188Z",
  "networkType": "ethereum",
  "devdoc": {
    "methods": {}
  },
  "userdoc": {
    "methods": {}
  }
}