{
  "contractName": "KeyContainer",
  "abi": [
    {
      "anonymous": false,
      "inputs": [
        {
          "indexed": true,
          "internalType": "bytes32",
          "name": "executionId",
          "type": "bytes32"
        },
        {
          "indexed": false,
          "internalType": "bool",
          "name": "approved",
          "type": "bool"
        }
      ],
      "name": "Approved",
      "type": "event"
    },
    {
      "anonymous": false,
      "inputs": [
        {
          "indexed": true,
          "internalType": "bytes32",
          "name": "executionId",
          "type": "bytes32"
        },
        {
          "indexed": true,
          "internalType": "address",
          "name": "to",
          "type": "address"
        },
        {
          "indexed": true,
          "internalType": "uint256",
          "name": "value",
          "type": "uint256"
        },
        {
          "indexed": false,
          "internalType": "bytes32",
          "name": "data",
          "type": "bytes32"
        }
      ],
      "name": "Executed",
      "type": "event"
    },
    {
      "anonymous": false,
      "inputs": [
        {
          "indexed": true,
          "internalType": "bytes32",
          "name": "executionId",
          "type": "bytes32"
        },
        {
          "indexed": true,
          "internalType": "address",
          "name": "to",
          "type": "address"
        },
        {
          "indexed": true,
          "internalType": "uint256",
          "name": "value",
          "type": "uint256"
        },
        {
          "indexed": false,
          "internalType": "bytes32",
          "name": "data",
          "type": "bytes32"
        }
      ],
      "name": "ExecutionRequested",
      "type": "event"
    },
    {
      "anonymous": false,
      "inputs": [
        {
          "indexed": true,
          "internalType": "address",
          "name": "key",
          "type": "address"
        },
        {
          "indexed": true,
          "internalType": "uint256",
          "name": "keyType",
          "type": "uint256"
        }
      ],
      "name": "KeyAdded",
      "type": "event"
    },
    {
      "anonymous": false,
      "inputs": [
        {
          "indexed": true,
          "internalType": "address",
          "name": "key",
          "type": "address"
        },
        {
          "indexed": true,
          "internalType": "uint256",
          "name": "keyType",
          "type": "uint256"
        }
      ],
      "name": "KeyRemoved",
      "type": "event"
    },
    {
      "inputs": [
        {
          "internalType": "address",
          "name": "_key",
          "type": "address"
        }
      ],
      "name": "getKeyType",
      "outputs": [
        {
          "internalType": "uint256",
          "name": "keyType",
          "type": "uint256"
        }
      ],
      "stateMutability": "view",
      "type": "function"
    },
    {
      "inputs": [
        {
          "internalType": "uint256",
          "name": "_type",
          "type": "uint256"
        }
      ],
      "name": "getKeysByType",
      "outputs": [
        {
          "internalType": "address[]",
          "name": "keys",
          "type": "address[]"
        }
      ],
      "stateMutability": "view",
      "type": "function"
    },
    {
      "inputs": [
        {
          "internalType": "address",
          "name": "_key",
          "type": "address"
        },
        {
          "internalType": "uint256",
          "name": "_type",
          "type": "uint256"
        }
      ],
      "name": "addKey",
      "outputs": [
        {
          "internalType": "bool",
          "name": "success",
          "type": "bool"
        }
      ],
      "stateMutability": "nonpayable",
      "type": "function"
    },
    {
      "inputs": [
        {
          "internalType": "address",
          "name": "_key",
          "type": "address"
        }
      ],
      "name": "removeKey",
      "outputs": [
        {
          "internalType": "bool",
          "name": "success",
          "type": "bool"
        }
      ],
      "stateMutability": "nonpayable",
      "type": "function"
    },
    {
      "inputs": [
        {
          "internalType": "address",
          "name": "_to",
          "type": "address"
        },
        {
          "internalType": "uint256",
          "name": "_value",
          "type": "uint256"
        },
        {
          "internalType": "bytes32",
          "name": "_data",
          "type": "bytes32"
        }
      ],
      "name": "execute",
      "outputs": [
        {
          "internalType": "bytes32",
          "name": "executionId",
          "type": "bytes32"
        }
      ],
      "stateMutability": "nonpayable",
      "type": "function"
    },
    {
      "inputs": [
        {
          "internalType": "bytes32",
          "name": "_id",
          "type": "bytes32"
        },
        {
          "internalType": "bool",
          "name": "_approve",
          "type": "bool"
        }
      ],
      "name": "approve",
      "outputs": [
        {
          "internalType": "bool",
          "name": "success",
          "type": "bool"
        }
      ],
      "stateMutability": "nonpayable",
      "type": "function"
    }
  ],
  "bytecode": "0x608060405234801561001057600080fd5b50610326806100206000396000f3fe608060405234801561001057600080fd5b50600436106100625760003560e01c806341cbfc7b146100675780634b24fd0d146100ea5780634ec799371461014257806369e7849914610194578063a2d39bdb146101f0578063c0d061f414610256575b600080fd5b6100936004803603602081101561007d57600080fd5b81019080803590602001909291905050506102c2565b6040518080602001828103825283818151815260200191508051906020019060200280838360005b838110156100d65780820151818401526020810190506100bb565b505050509050019250505060405180910390f35b61012c6004803603602081101561010057600080fd5b81019080803573ffffffffffffffffffffffffffffffffffffffff1690602001909291905050506102c9565b6040518082815260200191505060405180910390f35b61017a6004803603604081101561015857600080fd5b81019080803590602001909291908035151590602001909291905050506102d0565b604051808215151515815260200191505060405180910390f35b6101d6600480360360208110156101aa57600080fd5b81019080803573ffffffffffffffffffffffffffffffffffffffff1690602001909291905050506102d8565b604051808215151515815260200191505060405180910390f35b61023c6004803603604081101561020657600080fd5b81019080803573ffffffffffffffffffffffffffffffffffffffff169060200190929190803590602001909291905050506102df565b604051808215151515815260200191505060405180910390f35b6102ac6004803603606081101561026c57600080fd5b81019080803573ffffffffffffffffffffffffffffffffffffffff16906020019092919080359060200190929190803590602001909291905050506102e7565b6040518082815260200191505060405180910390f35b6060919050565b6000919050565b600092915050565b6000919050565b600092915050565b6000939250505056fea26469706673582212208264c480e01cd63a2c22b11faa14e0479bcd0da3bffdd668f133b5d7257fdaa164736f6c63430006040033",
  "source": "pragma solidity >=0.5.0 <0.7.0;\r\n\r\nimport \"./ERC725.sol\";\r\n\r\ncontract KeyContainer is ERC725 {\r\n\r\n    function  getKeyType(address _key)  public override  view  returns(uint256 keyType){\r\n\r\n    }\r\n    function getKeysByType(uint256 _type) public override  view returns(address[] memory keys){\r\n        \r\n    }   \r\n    function addKey(address _key, uint256 _type) public override  returns (bool success){\r\n        \r\n    }\r\n    function removeKey(address _key) public override returns (bool success){\r\n        \r\n    }\r\n    function execute(address _to, uint256 _value, bytes32 _data) public override returns (bytes32 executionId){\r\n        \r\n    }\r\n    function approve(bytes32 _id, bool _approve) public override returns (bool success){\r\n        \r\n    }\r\n}",
  "sourcePath": "D:\\Stuffs\\Facultate\\Anul3-Cazac\\blockchain\\react-proj-blockchain\\contracts\\KeyContainer.sol",
  "compiler": {
    "name": "solc",
    "version": "0.6.4+commit.1dca32f3.Emscripten.clang"
  },
  "schemaVersion": "3.1.0",
  "updatedAt": "2020-04-22T13:48:10.984Z",
  "devdoc": {
    "methods": {}
  },
  "userdoc": {
    "methods": {}
  }
}